{"voting_contracts/ElectionOfficer.sol":{"ElectionOfficer":{"abi":[{"inputs":[],"stateMutability":"nonpayable","type":"constructor"},{"anonymous":false,"inputs":[{"indexed":false,"internalType":"address","name":"officer","type":"address"},{"indexed":false,"internalType":"uint256","name":"constituency","type":"uint256"}],"name":"OfficerAssigned","type":"event"},{"inputs":[{"internalType":"address","name":"officerAddress","type":"address"},{"internalType":"string","name":"name","type":"string"},{"internalType":"uint256","name":"allotedConstituency","type":"uint256"}],"name":"electElectionOfficers","outputs":[],"stateMutability":"nonpayable","type":"function"},{"inputs":[],"name":"electionCommissioner","outputs":[{"internalType":"address","name":"","type":"address"}],"stateMutability":"view","type":"function"},{"inputs":[],"name":"electionEnd","outputs":[{"internalType":"uint256","name":"","type":"uint256"}],"stateMutability":"view","type":"function"},{"inputs":[],"name":"electionOfficerCount","outputs":[{"internalType":"uint256","name":"","type":"uint256"}],"stateMutability":"view","type":"function"},{"inputs":[],"name":"electionStart","outputs":[{"internalType":"uint256","name":"","type":"uint256"}],"stateMutability":"view","type":"function"},{"inputs":[],"name":"getCommissionerAddress","outputs":[{"internalType":"address","name":"","type":"address"}],"stateMutability":"view","type":"function"},{"inputs":[{"internalType":"address","name":"officerAddress","type":"address"}],"name":"getOfficerByAddress","outputs":[{"components":[{"internalType":"string","name":"name","type":"string"},{"internalType":"uint256","name":"id","type":"uint256"},{"internalType":"uint256","name":"allotedConstituency","type":"uint256"}],"internalType":"struct ElectionOfficer.electionOfficer","name":"","type":"tuple"}],"stateMutability":"view","type":"function"},{"inputs":[],"name":"isElecCommissioner","outputs":[{"internalType":"bool","name":"","type":"bool"}],"stateMutability":"view","type":"function"},{"inputs":[{"internalType":"address","name":"_address","type":"address"}],"name":"isElecCommissionerAddress","outputs":[{"internalType":"bool","name":"","type":"bool"}],"stateMutability":"view","type":"function"},{"inputs":[{"internalType":"address","name":"officerAddress","type":"address"}],"name":"isElecOfficer","outputs":[{"internalType":"bool","name":"","type":"bool"}],"stateMutability":"view","type":"function"},{"inputs":[],"name":"primKey","outputs":[{"internalType":"uint256","name":"","type":"uint256"}],"stateMutability":"view","type":"function"},{"inputs":[],"name":"timeEnd","outputs":[{"internalType":"uint256","name":"","type":"uint256"}],"stateMutability":"view","type":"function"},{"inputs":[],"name":"timeStart","outputs":[{"internalType":"uint256","name":"","type":"uint256"}],"stateMutability":"view","type":"function"}],"evm":{"bytecode":{"linkReferences":{},"object":"60a06040526000600855600160095534801561001a57600080fd5b5042600081905561002e906203f48061005e565b60018190556100409062093a8061005e565b6002819055610052906201518061005e565b60035533608052610085565b8082018082111561007f57634e487b7160e01b600052601160045260246000fd5b92915050565b608051610a776100bb6000396000818160f5015281816101460152818161016c015281816101c0015261026b0152610a776000f3fe608060405234801561001057600080fd5b50600436106100cf5760003560e01c80639c3ed5f21161008c578063ce7ea16111610066578063ce7ea16114610225578063e6a6f8881461022e578063fd74d2941461024e578063fda263e81461025757600080fd5b80639c3ed5f2146101b0578063bf679a0e146101f0578063c1211c861461021c57600080fd5b80631a5a6983146100d45780631bdbb2ab146100f05780632b241b911461012f57806347a5a9b6146101445780635e9b64391461016a57806379395dc6146101a7575b600080fd5b6100dd60095481565b6040519081526020015b60405180910390f35b6101177f000000000000000000000000000000000000000000000000000000000000000081565b6040516001600160a01b0390911681526020016100e7565b61014261013d3660046107a5565b610260565b005b7f0000000000000000000000000000000000000000000000000000000000000000610117565b7f00000000000000000000000000000000000000000000000000000000000000006001600160a01b031633145b60405190151581526020016100e7565b6100dd60085481565b6101976101be36600461082e565b7f00000000000000000000000000000000000000000000000000000000000000006001600160a01b0390811691161490565b6101976101fe36600461082e565b6001600160a01b031660009081526005602052604090205460ff1690565b6100dd60025481565b6100dd60035481565b61024161023c36600461082e565b61061b565b6040516100e79190610850565b6100dd60005481565b6100dd60015481565b336001600160a01b037f000000000000000000000000000000000000000000000000000000000000000016146102fc5760405162461bcd60e51b815260206004820152603660248201527f4f6e6c792074686520456c656374696f6e20436f6d6d697373696f6e6572206360448201527530b7103832b93337b936903a3434b99030b1ba34b7b760511b60648201526084015b60405180910390fd5b6001544211156103685760405162461bcd60e51b815260206004820152603160248201527f5468652054696d6520666f72207265676973746572696e67206e6577206f66666044820152701a58d95c9cc81a185cc8195b185c1cd959607a1b60648201526084016102f3565b600081116103b85760405162461bcd60e51b815260206004820152601d60248201527f436f6e7374697475656e6379206d75737420626520706f73697469766500000060448201526064016102f3565b60008181526006602052604090205460ff161561042f5760405162461bcd60e51b815260206004820152602f60248201527f5468697320636f6e7374697475656e637920616c72656164792068617320612060448201526e1bd9999a58d95c88185b1b1bdd1959608a1b60648201526084016102f3565b6001600160a01b03841660009081526005602052604090205460ff16156104985760405162461bcd60e51b815260206004820152601f60248201527f54686973206f66666963657220697320616c726561647920656c65637465640060448201526064016102f3565b6040805160806020601f860181900402820181019092526060810184815260009282919087908790819085018382808284376000920182905250938552505060098054602090940193929091506104ee836108bb565b90915550815260209081018490526001600160a01b03871660009081526004909152604090208151919250829181906105279082610981565b506020828101516001808401919091556040938401516002909301929092556001600160a01b038816600081815260058352848120805460ff19908116861790915587825260069093529384208054909216831790915560078054928301815583527fa66cc928b5edb82af9bd49922954155ab7b0942694bea4ce44661d9a8736c68890910180546001600160a01b0319169091179055600880549091906105ce906108bb565b90915550604080516001600160a01b0387168152602081018490527f938f17ce654223e1376a65a5cae25ef36de913f8adba46eae0a9176259950ea8910160405180910390a15050505050565b61063f60405180606001604052806060815260200160008152602001600081525090565b6001600160a01b03821660009081526005602052604090205460ff16806106b95760405162461bcd60e51b815260206004820152602860248201527f5468652061646472657373206973206e6f74206f66206120456c656374696f6e6044820152671027b33334b1b2b960c11b60648201526084016102f3565b6001600160a01b038316600090815260046020526040908190208151606081019092528054829082906106eb906108f8565b80601f0160208091040260200160405190810160405280929190818152602001828054610717906108f8565b80156107645780601f1061073957610100808354040283529160200191610764565b820191906000526020600020905b81548152906001019060200180831161074757829003601f168201915b5050505050815260200160018201548152602001600282015481525050915050919050565b80356001600160a01b03811681146107a057600080fd5b919050565b600080600080606085870312156107bb57600080fd5b6107c485610789565b9350602085013567ffffffffffffffff808211156107e157600080fd5b818701915087601f8301126107f557600080fd5b81358181111561080457600080fd5b88602082850101111561081657600080fd5b95986020929092019750949560400135945092505050565b60006020828403121561084057600080fd5b61084982610789565b9392505050565b600060208083528351606082850152805180608086015260005b818110156108865782810184015186820160a00152830161086a565b50600060a082870101528286015160408601526040860151606086015260a0601f19601f830116860101935050505092915050565b6000600182016108db57634e487b7160e01b600052601160045260246000fd5b5060010190565b634e487b7160e01b600052604160045260246000fd5b600181811c9082168061090c57607f821691505b60208210810361092c57634e487b7160e01b600052602260045260246000fd5b50919050565b601f82111561097c57600081815260208120601f850160051c810160208610156109595750805b601f850160051c820191505b8181101561097857828155600101610965565b5050505b505050565b815167ffffffffffffffff81111561099b5761099b6108e2565b6109af816109a984546108f8565b84610932565b602080601f8311600181146109e457600084156109cc5750858301515b600019600386901b1c1916600185901b178555610978565b600085815260208120601f198616915b82811015610a13578886015182559484019460019091019084016109f4565b5085821015610a315787850151600019600388901b60f8161c191681555b5050505050600190811b0190555056fea264697066735822122043fc9e9a3f8cdf722300d5dd29af97f7de3a07f84c852b78ea40b87984ec281264736f6c63430008140033","opcodes":"PUSH1 0xA0 PUSH1 0x40 MSTORE PUSH1 0x0 PUSH1 0x8 SSTORE PUSH1 0x1 PUSH1 0x9 SSTORE CALLVALUE DUP1 ISZERO PUSH2 0x1A JUMPI PUSH1 0x0 DUP1 REVERT JUMPDEST POP TIMESTAMP PUSH1 0x0 DUP2 SWAP1 SSTORE PUSH2 0x2E SWAP1 PUSH3 0x3F480 PUSH2 0x5E JUMP JUMPDEST PUSH1 0x1 DUP2 SWAP1 SSTORE PUSH2 0x40 SWAP1 PUSH3 0x93A80 PUSH2 0x5E JUMP JUMPDEST PUSH1 0x2 DUP2 SWAP1 SSTORE PUSH2 0x52 SWAP1 PUSH3 0x15180 PUSH2 0x5E JUMP JUMPDEST PUSH1 0x3 SSTORE CALLER PUSH1 0x80 MSTORE PUSH2 0x85 JUMP JUMPDEST DUP1 DUP3 ADD DUP1 DUP3 GT ISZERO PUSH2 0x7F JUMPI PUSH4 0x4E487B71 PUSH1 0xE0 SHL PUSH1 0x0 MSTORE PUSH1 0x11 PUSH1 0x4 MSTORE PUSH1 0x24 PUSH1 0x0 REVERT JUMPDEST SWAP3 SWAP2 POP POP JUMP JUMPDEST PUSH1 0x80 MLOAD PUSH2 0xA77 PUSH2 0xBB PUSH1 0x0 CODECOPY PUSH1 0x0 DUP2 DUP2 PUSH1 0xF5 ADD MSTORE DUP2 DUP2 PUSH2 0x146 ADD MSTORE DUP2 DUP2 PUSH2 0x16C ADD MSTORE DUP2 DUP2 PUSH2 0x1C0 ADD MSTORE PUSH2 0x26B ADD MSTORE PUSH2 0xA77 PUSH1 0x0 RETURN INVALID PUSH1 0x80 PUSH1 0x40 MSTORE CALLVALUE DUP1 ISZERO PUSH2 0x10 JUMPI PUSH1 0x0 DUP1 REVERT JUMPDEST POP PUSH1 0x4 CALLDATASIZE LT PUSH2 0xCF JUMPI PUSH1 0x0 CALLDATALOAD PUSH1 0xE0 SHR DUP1 PUSH4 0x9C3ED5F2 GT PUSH2 0x8C JUMPI DUP1 PUSH4 0xCE7EA161 GT PUSH2 0x66 JUMPI DUP1 PUSH4 0xCE7EA161 EQ PUSH2 0x225 JUMPI DUP1 PUSH4 0xE6A6F888 EQ PUSH2 0x22E JUMPI DUP1 PUSH4 0xFD74D294 EQ PUSH2 0x24E JUMPI DUP1 PUSH4 0xFDA263E8 EQ PUSH2 0x257 JUMPI PUSH1 0x0 DUP1 REVERT JUMPDEST DUP1 PUSH4 0x9C3ED5F2 EQ PUSH2 0x1B0 JUMPI DUP1 PUSH4 0xBF679A0E EQ PUSH2 0x1F0 JUMPI DUP1 PUSH4 0xC1211C86 EQ PUSH2 0x21C JUMPI PUSH1 0x0 DUP1 REVERT JUMPDEST DUP1 PUSH4 0x1A5A6983 EQ PUSH2 0xD4 JUMPI DUP1 PUSH4 0x1BDBB2AB EQ PUSH2 0xF0 JUMPI DUP1 PUSH4 0x2B241B91 EQ PUSH2 0x12F JUMPI DUP1 PUSH4 0x47A5A9B6 EQ PUSH2 0x144 JUMPI DUP1 PUSH4 0x5E9B6439 EQ PUSH2 0x16A JUMPI DUP1 PUSH4 0x79395DC6 EQ PUSH2 0x1A7 JUMPI JUMPDEST PUSH1 0x0 DUP1 REVERT JUMPDEST PUSH2 0xDD PUSH1 0x9 SLOAD DUP2 JUMP JUMPDEST PUSH1 0x40 MLOAD SWAP1 DUP2 MSTORE PUSH1 0x20 ADD JUMPDEST PUSH1 0x40 MLOAD DUP1 SWAP2 SUB SWAP1 RETURN JUMPDEST PUSH2 0x117 PUSH32 0x0 DUP2 JUMP JUMPDEST PUSH1 0x40 MLOAD PUSH1 0x1 PUSH1 0x1 PUSH1 0xA0 SHL SUB SWAP1 SWAP2 AND DUP2 MSTORE PUSH1 0x20 ADD PUSH2 0xE7 JUMP JUMPDEST PUSH2 0x142 PUSH2 0x13D CALLDATASIZE PUSH1 0x4 PUSH2 0x7A5 JUMP JUMPDEST PUSH2 0x260 JUMP JUMPDEST STOP JUMPDEST PUSH32 0x0 PUSH2 0x117 JUMP JUMPDEST PUSH32 0x0 PUSH1 0x1 PUSH1 0x1 PUSH1 0xA0 SHL SUB AND CALLER EQ JUMPDEST PUSH1 0x40 MLOAD SWAP1 ISZERO ISZERO DUP2 MSTORE PUSH1 0x20 ADD PUSH2 0xE7 JUMP JUMPDEST PUSH2 0xDD PUSH1 0x8 SLOAD DUP2 JUMP JUMPDEST PUSH2 0x197 PUSH2 0x1BE CALLDATASIZE PUSH1 0x4 PUSH2 0x82E JUMP JUMPDEST PUSH32 0x0 PUSH1 0x1 PUSH1 0x1 PUSH1 0xA0 SHL SUB SWAP1 DUP2 AND SWAP2 AND EQ SWAP1 JUMP JUMPDEST PUSH2 0x197 PUSH2 0x1FE CALLDATASIZE PUSH1 0x4 PUSH2 0x82E JUMP JUMPDEST PUSH1 0x1 PUSH1 0x1 PUSH1 0xA0 SHL SUB AND PUSH1 0x0 SWAP1 DUP2 MSTORE PUSH1 0x5 PUSH1 0x20 MSTORE PUSH1 0x40 SWAP1 KECCAK256 SLOAD PUSH1 0xFF AND SWAP1 JUMP JUMPDEST PUSH2 0xDD PUSH1 0x2 SLOAD DUP2 JUMP JUMPDEST PUSH2 0xDD PUSH1 0x3 SLOAD DUP2 JUMP JUMPDEST PUSH2 0x241 PUSH2 0x23C CALLDATASIZE PUSH1 0x4 PUSH2 0x82E JUMP JUMPDEST PUSH2 0x61B JUMP JUMPDEST PUSH1 0x40 MLOAD PUSH2 0xE7 SWAP2 SWAP1 PUSH2 0x850 JUMP JUMPDEST PUSH2 0xDD PUSH1 0x0 SLOAD DUP2 JUMP JUMPDEST PUSH2 0xDD PUSH1 0x1 SLOAD DUP2 JUMP JUMPDEST CALLER PUSH1 0x1 PUSH1 0x1 PUSH1 0xA0 SHL SUB PUSH32 0x0 AND EQ PUSH2 0x2FC JUMPI PUSH1 0x40 MLOAD PUSH3 0x461BCD PUSH1 0xE5 SHL DUP2 MSTORE PUSH1 0x20 PUSH1 0x4 DUP3 ADD MSTORE PUSH1 0x36 PUSH1 0x24 DUP3 ADD MSTORE PUSH32 0x4F6E6C792074686520456C656374696F6E20436F6D6D697373696F6E65722063 PUSH1 0x44 DUP3 ADD MSTORE PUSH22 0x30B7103832B93337B936903A3434B99030B1BA34B7B7 PUSH1 0x51 SHL PUSH1 0x64 DUP3 ADD MSTORE PUSH1 0x84 ADD JUMPDEST PUSH1 0x40 MLOAD DUP1 SWAP2 SUB SWAP1 REVERT JUMPDEST PUSH1 0x1 SLOAD TIMESTAMP GT ISZERO PUSH2 0x368 JUMPI PUSH1 0x40 MLOAD PUSH3 0x461BCD PUSH1 0xE5 SHL DUP2 MSTORE PUSH1 0x20 PUSH1 0x4 DUP3 ADD MSTORE PUSH1 0x31 PUSH1 0x24 DUP3 ADD MSTORE PUSH32 0x5468652054696D6520666F72207265676973746572696E67206E6577206F6666 PUSH1 0x44 DUP3 ADD MSTORE PUSH17 0x1A58D95C9CC81A185CC8195B185C1CD959 PUSH1 0x7A SHL PUSH1 0x64 DUP3 ADD MSTORE PUSH1 0x84 ADD PUSH2 0x2F3 JUMP JUMPDEST PUSH1 0x0 DUP2 GT PUSH2 0x3B8 JUMPI PUSH1 0x40 MLOAD PUSH3 0x461BCD PUSH1 0xE5 SHL DUP2 MSTORE PUSH1 0x20 PUSH1 0x4 DUP3 ADD MSTORE PUSH1 0x1D PUSH1 0x24 DUP3 ADD MSTORE PUSH32 0x436F6E7374697475656E6379206D75737420626520706F736974697665000000 PUSH1 0x44 DUP3 ADD MSTORE PUSH1 0x64 ADD PUSH2 0x2F3 JUMP JUMPDEST PUSH1 0x0 DUP2 DUP2 MSTORE PUSH1 0x6 PUSH1 0x20 MSTORE PUSH1 0x40 SWAP1 KECCAK256 SLOAD PUSH1 0xFF AND ISZERO PUSH2 0x42F JUMPI PUSH1 0x40 MLOAD PUSH3 0x461BCD PUSH1 0xE5 SHL DUP2 MSTORE PUSH1 0x20 PUSH1 0x4 DUP3 ADD MSTORE PUSH1 0x2F PUSH1 0x24 DUP3 ADD MSTORE PUSH32 0x5468697320636F6E7374697475656E637920616C726561647920686173206120 PUSH1 0x44 DUP3 ADD MSTORE PUSH15 0x1BD9999A58D95C88185B1B1BDD1959 PUSH1 0x8A SHL PUSH1 0x64 DUP3 ADD MSTORE PUSH1 0x84 ADD PUSH2 0x2F3 JUMP JUMPDEST PUSH1 0x1 PUSH1 0x1 PUSH1 0xA0 SHL SUB DUP5 AND PUSH1 0x0 SWAP1 DUP2 MSTORE PUSH1 0x5 PUSH1 0x20 MSTORE PUSH1 0x40 SWAP1 KECCAK256 SLOAD PUSH1 0xFF AND ISZERO PUSH2 0x498 JUMPI PUSH1 0x40 MLOAD PUSH3 0x461BCD PUSH1 0xE5 SHL DUP2 MSTORE PUSH1 0x20 PUSH1 0x4 DUP3 ADD MSTORE PUSH1 0x1F PUSH1 0x24 DUP3 ADD MSTORE PUSH32 0x54686973206F66666963657220697320616C726561647920656C656374656400 PUSH1 0x44 DUP3 ADD MSTORE PUSH1 0x64 ADD PUSH2 0x2F3 JUMP JUMPDEST PUSH1 0x40 DUP1 MLOAD PUSH1 0x80 PUSH1 0x20 PUSH1 0x1F DUP7 ADD DUP2 SWAP1 DIV MUL DUP3 ADD DUP2 ADD SWAP1 SWAP3 MSTORE PUSH1 0x60 DUP2 ADD DUP5 DUP2 MSTORE PUSH1 0x0 SWAP3 DUP3 SWAP2 SWAP1 DUP8 SWAP1 DUP8 SWAP1 DUP2 SWAP1 DUP6 ADD DUP4 DUP3 DUP1 DUP3 DUP5 CALLDATACOPY PUSH1 0x0 SWAP3 ADD DUP3 SWAP1 MSTORE POP SWAP4 DUP6 MSTORE POP POP PUSH1 0x9 DUP1 SLOAD PUSH1 0x20 SWAP1 SWAP5 ADD SWAP4 SWAP3 SWAP1 SWAP2 POP PUSH2 0x4EE DUP4 PUSH2 0x8BB JUMP JUMPDEST SWAP1 SWAP2 SSTORE POP DUP2 MSTORE PUSH1 0x20 SWAP1 DUP2 ADD DUP5 SWAP1 MSTORE PUSH1 0x1 PUSH1 0x1 PUSH1 0xA0 SHL SUB DUP8 AND PUSH1 0x0 SWAP1 DUP2 MSTORE PUSH1 0x4 SWAP1 SWAP2 MSTORE PUSH1 0x40 SWAP1 KECCAK256 DUP2 MLOAD SWAP2 SWAP3 POP DUP3 SWAP2 DUP2 SWAP1 PUSH2 0x527 SWAP1 DUP3 PUSH2 0x981 JUMP JUMPDEST POP PUSH1 0x20 DUP3 DUP2 ADD MLOAD PUSH1 0x1 DUP1 DUP5 ADD SWAP2 SWAP1 SWAP2 SSTORE PUSH1 0x40 SWAP4 DUP5 ADD MLOAD PUSH1 0x2 SWAP1 SWAP4 ADD SWAP3 SWAP1 SWAP3 SSTORE PUSH1 0x1 PUSH1 0x1 PUSH1 0xA0 SHL SUB DUP9 AND PUSH1 0x0 DUP2 DUP2 MSTORE PUSH1 0x5 DUP4 MSTORE DUP5 DUP2 KECCAK256 DUP1 SLOAD PUSH1 0xFF NOT SWAP1 DUP2 AND DUP7 OR SWAP1 SWAP2 SSTORE DUP8 DUP3 MSTORE PUSH1 0x6 SWAP1 SWAP4 MSTORE SWAP4 DUP5 KECCAK256 DUP1 SLOAD SWAP1 SWAP3 AND DUP4 OR SWAP1 SWAP2 SSTORE PUSH1 0x7 DUP1 SLOAD SWAP3 DUP4 ADD DUP2 SSTORE DUP4 MSTORE PUSH32 0xA66CC928B5EDB82AF9BD49922954155AB7B0942694BEA4CE44661D9A8736C688 SWAP1 SWAP2 ADD DUP1 SLOAD PUSH1 0x1 PUSH1 0x1 PUSH1 0xA0 SHL SUB NOT AND SWAP1 SWAP2 OR SWAP1 SSTORE PUSH1 0x8 DUP1 SLOAD SWAP1 SWAP2 SWAP1 PUSH2 0x5CE SWAP1 PUSH2 0x8BB JUMP JUMPDEST SWAP1 SWAP2 SSTORE POP PUSH1 0x40 DUP1 MLOAD PUSH1 0x1 PUSH1 0x1 PUSH1 0xA0 SHL SUB DUP8 AND DUP2 MSTORE PUSH1 0x20 DUP2 ADD DUP5 SWAP1 MSTORE PUSH32 0x938F17CE654223E1376A65A5CAE25EF36DE913F8ADBA46EAE0A9176259950EA8 SWAP2 ADD PUSH1 0x40 MLOAD DUP1 SWAP2 SUB SWAP1 LOG1 POP POP POP POP POP JUMP JUMPDEST PUSH2 0x63F PUSH1 0x40 MLOAD DUP1 PUSH1 0x60 ADD PUSH1 0x40 MSTORE DUP1 PUSH1 0x60 DUP2 MSTORE PUSH1 0x20 ADD PUSH1 0x0 DUP2 MSTORE PUSH1 0x20 ADD PUSH1 0x0 DUP2 MSTORE POP SWAP1 JUMP JUMPDEST PUSH1 0x1 PUSH1 0x1 PUSH1 0xA0 SHL SUB DUP3 AND PUSH1 0x0 SWAP1 DUP2 MSTORE PUSH1 0x5 PUSH1 0x20 MSTORE PUSH1 0x40 SWAP1 KECCAK256 SLOAD PUSH1 0xFF AND DUP1 PUSH2 0x6B9 JUMPI PUSH1 0x40 MLOAD PUSH3 0x461BCD PUSH1 0xE5 SHL DUP2 MSTORE PUSH1 0x20 PUSH1 0x4 DUP3 ADD MSTORE PUSH1 0x28 PUSH1 0x24 DUP3 ADD MSTORE PUSH32 0x5468652061646472657373206973206E6F74206F66206120456C656374696F6E PUSH1 0x44 DUP3 ADD MSTORE PUSH8 0x1027B33334B1B2B9 PUSH1 0xC1 SHL PUSH1 0x64 DUP3 ADD MSTORE PUSH1 0x84 ADD PUSH2 0x2F3 JUMP JUMPDEST PUSH1 0x1 PUSH1 0x1 PUSH1 0xA0 SHL SUB DUP4 AND PUSH1 0x0 SWAP1 DUP2 MSTORE PUSH1 0x4 PUSH1 0x20 MSTORE PUSH1 0x40 SWAP1 DUP2 SWAP1 KECCAK256 DUP2 MLOAD PUSH1 0x60 DUP2 ADD SWAP1 SWAP3 MSTORE DUP1 SLOAD DUP3 SWAP1 DUP3 SWAP1 PUSH2 0x6EB SWAP1 PUSH2 0x8F8 JUMP JUMPDEST DUP1 PUSH1 0x1F ADD PUSH1 0x20 DUP1 SWAP2 DIV MUL PUSH1 0x20 ADD PUSH1 0x40 MLOAD SWAP1 DUP2 ADD PUSH1 0x40 MSTORE DUP1 SWAP3 SWAP2 SWAP1 DUP2 DUP2 MSTORE PUSH1 0x20 ADD DUP3 DUP1 SLOAD PUSH2 0x717 SWAP1 PUSH2 0x8F8 JUMP JUMPDEST DUP1 ISZERO PUSH2 0x764 JUMPI DUP1 PUSH1 0x1F LT PUSH2 0x739 JUMPI PUSH2 0x100 DUP1 DUP4 SLOAD DIV MUL DUP4 MSTORE SWAP2 PUSH1 0x20 ADD SWAP2 PUSH2 0x764 JUMP JUMPDEST DUP3 ADD SWAP2 SWAP1 PUSH1 0x0 MSTORE PUSH1 0x20 PUSH1 0x0 KECCAK256 SWAP1 JUMPDEST DUP2 SLOAD DUP2 MSTORE SWAP1 PUSH1 0x1 ADD SWAP1 PUSH1 0x20 ADD DUP1 DUP4 GT PUSH2 0x747 JUMPI DUP3 SWAP1 SUB PUSH1 0x1F AND DUP3 ADD SWAP2 JUMPDEST POP POP POP POP POP DUP2 MSTORE PUSH1 0x20 ADD PUSH1 0x1 DUP3 ADD SLOAD DUP2 MSTORE PUSH1 0x20 ADD PUSH1 0x2 DUP3 ADD SLOAD DUP2 MSTORE POP POP SWAP2 POP POP SWAP2 SWAP1 POP JUMP JUMPDEST DUP1 CALLDATALOAD PUSH1 0x1 PUSH1 0x1 PUSH1 0xA0 SHL SUB DUP2 AND DUP2 EQ PUSH2 0x7A0 JUMPI PUSH1 0x0 DUP1 REVERT JUMPDEST SWAP2 SWAP1 POP JUMP JUMPDEST PUSH1 0x0 DUP1 PUSH1 0x0 DUP1 PUSH1 0x60 DUP6 DUP8 SUB SLT ISZERO PUSH2 0x7BB JUMPI PUSH1 0x0 DUP1 REVERT JUMPDEST PUSH2 0x7C4 DUP6 PUSH2 0x789 JUMP JUMPDEST SWAP4 POP PUSH1 0x20 DUP6 ADD CALLDATALOAD PUSH8 0xFFFFFFFFFFFFFFFF DUP1 DUP3 GT ISZERO PUSH2 0x7E1 JUMPI PUSH1 0x0 DUP1 REVERT JUMPDEST DUP2 DUP8 ADD SWAP2 POP DUP8 PUSH1 0x1F DUP4 ADD SLT PUSH2 0x7F5 JUMPI PUSH1 0x0 DUP1 REVERT JUMPDEST DUP2 CALLDATALOAD DUP2 DUP2 GT ISZERO PUSH2 0x804 JUMPI PUSH1 0x0 DUP1 REVERT JUMPDEST DUP9 PUSH1 0x20 DUP3 DUP6 ADD ADD GT ISZERO PUSH2 0x816 JUMPI PUSH1 0x0 DUP1 REVERT JUMPDEST SWAP6 SWAP9 PUSH1 0x20 SWAP3 SWAP1 SWAP3 ADD SWAP8 POP SWAP5 SWAP6 PUSH1 0x40 ADD CALLDATALOAD SWAP5 POP SWAP3 POP POP POP JUMP JUMPDEST PUSH1 0x0 PUSH1 0x20 DUP3 DUP5 SUB SLT ISZERO PUSH2 0x840 JUMPI PUSH1 0x0 DUP1 REVERT JUMPDEST PUSH2 0x849 DUP3 PUSH2 0x789 JUMP JUMPDEST SWAP4 SWAP3 POP POP POP JUMP JUMPDEST PUSH1 0x0 PUSH1 0x20 DUP1 DUP4 MSTORE DUP4 MLOAD PUSH1 0x60 DUP3 DUP6 ADD MSTORE DUP1 MLOAD DUP1 PUSH1 0x80 DUP7 ADD MSTORE PUSH1 0x0 JUMPDEST DUP2 DUP2 LT ISZERO PUSH2 0x886 JUMPI DUP3 DUP2 ADD DUP5 ADD MLOAD DUP7 DUP3 ADD PUSH1 0xA0 ADD MSTORE DUP4 ADD PUSH2 0x86A JUMP JUMPDEST POP PUSH1 0x0 PUSH1 0xA0 DUP3 DUP8 ADD ADD MSTORE DUP3 DUP7 ADD MLOAD PUSH1 0x40 DUP7 ADD MSTORE PUSH1 0x40 DUP7 ADD MLOAD PUSH1 0x60 DUP7 ADD MSTORE PUSH1 0xA0 PUSH1 0x1F NOT PUSH1 0x1F DUP4 ADD AND DUP7 ADD ADD SWAP4 POP POP POP POP SWAP3 SWAP2 POP POP JUMP JUMPDEST PUSH1 0x0 PUSH1 0x1 DUP3 ADD PUSH2 0x8DB JUMPI PUSH4 0x4E487B71 PUSH1 0xE0 SHL PUSH1 0x0 MSTORE PUSH1 0x11 PUSH1 0x4 MSTORE PUSH1 0x24 PUSH1 0x0 REVERT JUMPDEST POP PUSH1 0x1 ADD SWAP1 JUMP JUMPDEST PUSH4 0x4E487B71 PUSH1 0xE0 SHL PUSH1 0x0 MSTORE PUSH1 0x41 PUSH1 0x4 MSTORE PUSH1 0x24 PUSH1 0x0 REVERT JUMPDEST PUSH1 0x1 DUP2 DUP2 SHR SWAP1 DUP3 AND DUP1 PUSH2 0x90C JUMPI PUSH1 0x7F DUP3 AND SWAP2 POP JUMPDEST PUSH1 0x20 DUP3 LT DUP2 SUB PUSH2 0x92C JUMPI PUSH4 0x4E487B71 PUSH1 0xE0 SHL PUSH1 0x0 MSTORE PUSH1 0x22 PUSH1 0x4 MSTORE PUSH1 0x24 PUSH1 0x0 REVERT JUMPDEST POP SWAP2 SWAP1 POP JUMP JUMPDEST PUSH1 0x1F DUP3 GT ISZERO PUSH2 0x97C JUMPI PUSH1 0x0 DUP2 DUP2 MSTORE PUSH1 0x20 DUP2 KECCAK256 PUSH1 0x1F DUP6 ADD PUSH1 0x5 SHR DUP2 ADD PUSH1 0x20 DUP7 LT ISZERO PUSH2 0x959 JUMPI POP DUP1 JUMPDEST PUSH1 0x1F DUP6 ADD PUSH1 0x5 SHR DUP3 ADD SWAP2 POP JUMPDEST DUP2 DUP2 LT ISZERO PUSH2 0x978 JUMPI DUP3 DUP2 SSTORE PUSH1 0x1 ADD PUSH2 0x965 JUMP JUMPDEST POP POP POP JUMPDEST POP POP POP JUMP JUMPDEST DUP2 MLOAD PUSH8 0xFFFFFFFFFFFFFFFF DUP2 GT ISZERO PUSH2 0x99B JUMPI PUSH2 0x99B PUSH2 0x8E2 JUMP JUMPDEST PUSH2 0x9AF DUP2 PUSH2 0x9A9 DUP5 SLOAD PUSH2 0x8F8 JUMP JUMPDEST DUP5 PUSH2 0x932 JUMP JUMPDEST PUSH1 0x20 DUP1 PUSH1 0x1F DUP4 GT PUSH1 0x1 DUP2 EQ PUSH2 0x9E4 JUMPI PUSH1 0x0 DUP5 ISZERO PUSH2 0x9CC JUMPI POP DUP6 DUP4 ADD MLOAD JUMPDEST PUSH1 0x0 NOT PUSH1 0x3 DUP7 SWAP1 SHL SHR NOT AND PUSH1 0x1 DUP6 SWAP1 SHL OR DUP6 SSTORE PUSH2 0x978 JUMP JUMPDEST PUSH1 0x0 DUP6 DUP2 MSTORE PUSH1 0x20 DUP2 KECCAK256 PUSH1 0x1F NOT DUP7 AND SWAP2 JUMPDEST DUP3 DUP2 LT ISZERO PUSH2 0xA13 JUMPI DUP9 DUP7 ADD MLOAD DUP3 SSTORE SWAP5 DUP5 ADD SWAP5 PUSH1 0x1 SWAP1 SWAP2 ADD SWAP1 DUP5 ADD PUSH2 0x9F4 JUMP JUMPDEST POP DUP6 DUP3 LT ISZERO PUSH2 0xA31 JUMPI DUP8 DUP6 ADD MLOAD PUSH1 0x0 NOT PUSH1 0x3 DUP9 SWAP1 SHL PUSH1 0xF8 AND SHR NOT AND DUP2 SSTORE JUMPDEST POP POP POP POP POP PUSH1 0x1 SWAP1 DUP2 SHL ADD SWAP1 SSTORE POP JUMP INVALID LOG2 PUSH5 0x6970667358 0x22 SLT KECCAK256 NUMBER 0xFC SWAP15 SWAP11 EXTCODEHASH DUP13 0xDF PUSH19 0x2300D5DD29AF97F7DE3A07F84C852B78EA40B8 PUSH26 0x84EC281264736F6C634300081400330000000000000000000000 "},"methodIdentifiers":{"electElectionOfficers(address,string,uint256)":"2b241b91","electionCommissioner()":"1bdbb2ab","electionEnd()":"ce7ea161","electionOfficerCount()":"79395dc6","electionStart()":"c1211c86","getCommissionerAddress()":"47a5a9b6","getOfficerByAddress(address)":"e6a6f888","isElecCommissioner()":"5e9b6439","isElecCommissionerAddress(address)":"9c3ed5f2","isElecOfficer(address)":"bf679a0e","primKey()":"1a5a6983","timeEnd()":"fda263e8","timeStart()":"fd74d294"}}}}}