{
  "_format": "hh-sol-artifact-1",
  "contractName": "Voter",
  "sourceName": "voting_contracts/Voter.sol",
  "abi": [
    {
      "inputs": [
        {
          "internalType": "address",
          "name": "_ElectionOfficerAddr",
          "type": "address"
        }
      ],
      "stateMutability": "nonpayable",
      "type": "constructor"
    },
    {
      "inputs": [
        {
          "internalType": "address[]",
          "name": "_voterAddresses",
          "type": "address[]"
        },
        {
          "internalType": "bool[]",
          "name": "_decisions",
          "type": "bool[]"
        }
      ],
      "name": "bulkVerifyVoters",
      "outputs": [],
      "stateMutability": "nonpayable",
      "type": "function"
    },
    {
      "inputs": [],
      "name": "electionCommission",
      "outputs": [
        {
          "internalType": "address",
          "name": "",
          "type": "address"
        }
      ],
      "stateMutability": "view",
      "type": "function"
    },
    {
      "inputs": [],
      "name": "electionEnd",
      "outputs": [
        {
          "internalType": "uint256",
          "name": "",
          "type": "uint256"
        }
      ],
      "stateMutability": "view",
      "type": "function"
    },
    {
      "inputs": [],
      "name": "electionStart",
      "outputs": [
        {
          "internalType": "uint256",
          "name": "",
          "type": "uint256"
        }
      ],
      "stateMutability": "view",
      "type": "function"
    },
    {
      "inputs": [
        {
          "internalType": "address",
          "name": "_voterAddress",
          "type": "address"
        }
      ],
      "name": "emergencyRemoveVoter",
      "outputs": [],
      "stateMutability": "nonpayable",
      "type": "function"
    },
    {
      "inputs": [],
      "name": "endTime",
      "outputs": [
        {
          "internalType": "uint256",
          "name": "",
          "type": "uint256"
        }
      ],
      "stateMutability": "view",
      "type": "function"
    },
    {
      "inputs": [],
      "name": "gElect",
      "outputs": [
        {
          "internalType": "address",
          "name": "",
          "type": "address"
        }
      ],
      "stateMutability": "view",
      "type": "function"
    },
    {
      "inputs": [],
      "name": "getAllVoters",
      "outputs": [
        {
          "internalType": "address[]",
          "name": "",
          "type": "address[]"
        }
      ],
      "stateMutability": "view",
      "type": "function"
    },
    {
      "inputs": [
        {
          "internalType": "uint256",
          "name": "_constituencyId",
          "type": "uint256"
        }
      ],
      "name": "getConstituencyVoterCount",
      "outputs": [
        {
          "internalType": "uint256",
          "name": "",
          "type": "uint256"
        }
      ],
      "stateMutability": "view",
      "type": "function"
    },
    {
      "inputs": [
        {
          "internalType": "address",
          "name": "_voterAddress",
          "type": "address"
        }
      ],
      "name": "getVoterByAddress",
      "outputs": [
        {
          "internalType": "uint256",
          "name": "id",
          "type": "uint256"
        },
        {
          "internalType": "string",
          "name": "name",
          "type": "string"
        },
        {
          "internalType": "uint256",
          "name": "age",
          "type": "uint256"
        },
        {
          "internalType": "uint256",
          "name": "constituencyId",
          "type": "uint256"
        },
        {
          "internalType": "bool",
          "name": "hasVoted",
          "type": "bool"
        },
        {
          "internalType": "bool",
          "name": "isAllowedToVote",
          "type": "bool"
        }
      ],
      "stateMutability": "view",
      "type": "function"
    },
    {
      "inputs": [
        {
          "internalType": "uint256",
          "name": "_voterId",
          "type": "uint256"
        }
      ],
      "name": "getVoterConstituency",
      "outputs": [
        {
          "internalType": "uint256",
          "name": "",
          "type": "uint256"
        }
      ],
      "stateMutability": "view",
      "type": "function"
    },
    {
      "inputs": [
        {
          "internalType": "uint256",
          "name": "_voterId",
          "type": "uint256"
        }
      ],
      "name": "getVoterDetails",
      "outputs": [
        {
          "internalType": "string",
          "name": "name",
          "type": "string"
        },
        {
          "internalType": "uint256",
          "name": "age",
          "type": "uint256"
        },
        {
          "internalType": "uint256",
          "name": "constituencyId",
          "type": "uint256"
        },
        {
          "internalType": "bool",
          "name": "hasVoted",
          "type": "bool"
        },
        {
          "internalType": "bool",
          "name": "isAllowedToVote",
          "type": "bool"
        },
        {
          "internalType": "bool",
          "name": "hasRegistered",
          "type": "bool"
        }
      ],
      "stateMutability": "view",
      "type": "function"
    },
    {
      "inputs": [],
      "name": "getVoterStatistics",
      "outputs": [
        {
          "internalType": "uint256",
          "name": "totalRegistered",
          "type": "uint256"
        },
        {
          "internalType": "uint256",
          "name": "totalVerified",
          "type": "uint256"
        },
        {
          "internalType": "uint256",
          "name": "totalVoted",
          "type": "uint256"
        },
        {
          "internalType": "uint256",
          "name": "totalConstituencies",
          "type": "uint256"
        }
      ],
      "stateMutability": "view",
      "type": "function"
    },
    {
      "inputs": [
        {
          "internalType": "uint256",
          "name": "_constituencyId",
          "type": "uint256"
        }
      ],
      "name": "getVoterTurnout",
      "outputs": [
        {
          "internalType": "uint256",
          "name": "totalVoters",
          "type": "uint256"
        },
        {
          "internalType": "uint256",
          "name": "votedVoters",
          "type": "uint256"
        }
      ],
      "stateMutability": "view",
      "type": "function"
    },
    {
      "inputs": [
        {
          "internalType": "uint256",
          "name": "_constituencyId",
          "type": "uint256"
        }
      ],
      "name": "getVotersByConstituency",
      "outputs": [
        {
          "internalType": "address[]",
          "name": "",
          "type": "address[]"
        }
      ],
      "stateMutability": "view",
      "type": "function"
    },
    {
      "inputs": [
        {
          "internalType": "uint256",
          "name": "_voterId",
          "type": "uint256"
        }
      ],
      "name": "hasVoterVoted",
      "outputs": [
        {
          "internalType": "bool",
          "name": "",
          "type": "bool"
        }
      ],
      "stateMutability": "view",
      "type": "function"
    },
    {
      "inputs": [
        {
          "internalType": "uint256",
          "name": "_voterId",
          "type": "uint256"
        }
      ],
      "name": "isVoterAllowedToVote",
      "outputs": [
        {
          "internalType": "bool",
          "name": "",
          "type": "bool"
        }
      ],
      "stateMutability": "view",
      "type": "function"
    },
    {
      "inputs": [],
      "name": "primKey",
      "outputs": [
        {
          "internalType": "uint256",
          "name": "",
          "type": "uint256"
        }
      ],
      "stateMutability": "view",
      "type": "function"
    },
    {
      "inputs": [
        {
          "internalType": "string",
          "name": "_name",
          "type": "string"
        },
        {
          "internalType": "uint256",
          "name": "_age",
          "type": "uint256"
        },
        {
          "internalType": "bytes12",
          "name": "_aadharNumber",
          "type": "bytes12"
        },
        {
          "internalType": "string",
          "name": "_voterIdNumber",
          "type": "string"
        },
        {
          "internalType": "uint256",
          "name": "_ConstituencyId",
          "type": "uint256"
        }
      ],
      "name": "registerAsVoter",
      "outputs": [
        {
          "internalType": "string",
          "name": "",
          "type": "string"
        }
      ],
      "stateMutability": "nonpayable",
      "type": "function"
    },
    {
      "inputs": [
        {
          "internalType": "address",
          "name": "_generalElection",
          "type": "address"
        }
      ],
      "name": "setGeneralElection",
      "outputs": [],
      "stateMutability": "nonpayable",
      "type": "function"
    },
    {
      "inputs": [],
      "name": "startTime",
      "outputs": [
        {
          "internalType": "uint256",
          "name": "",
          "type": "uint256"
        }
      ],
      "stateMutability": "view",
      "type": "function"
    },
    {
      "inputs": [
        {
          "internalType": "uint256",
          "name": "_voterId",
          "type": "uint256"
        }
      ],
      "name": "updateVoterAfterVote",
      "outputs": [],
      "stateMutability": "nonpayable",
      "type": "function"
    },
    {
      "inputs": [
        {
          "internalType": "address",
          "name": "_voterAddress",
          "type": "address"
        },
        {
          "internalType": "uint256",
          "name": "_newConstituencyId",
          "type": "uint256"
        }
      ],
      "name": "updateVoterConstituency",
      "outputs": [],
      "stateMutability": "nonpayable",
      "type": "function"
    },
    {
      "inputs": [
        {
          "internalType": "address",
          "name": "voterAddress",
          "type": "address"
        },
        {
          "internalType": "bytes12",
          "name": "_aadharNumber",
          "type": "bytes12"
        },
        {
          "internalType": "string",
          "name": "_voterIdNumber",
          "type": "string"
        },
        {
          "internalType": "bool",
          "name": "decision",
          "type": "bool"
        }
      ],
      "name": "verifyVoters",
      "outputs": [
        {
          "internalType": "string",
          "name": "",
          "type": "string"
        }
      ],
      "stateMutability": "nonpayable",
      "type": "function"
    },
    {
      "inputs": [],
      "name": "voterCount",
      "outputs": [
        {
          "internalType": "uint256",
          "name": "",
          "type": "uint256"
        }
      ],
      "stateMutability": "view",
      "type": "function"
    }
  ],
  "bytecode": "0x608060405260006009556001600a553480156200001b57600080fd5b50604051620026e1380380620026e18339810160408190526200003e91620000a4565b426000819055620000539062093a80620000d6565b6001819055620000679062093a80620000d6565b60028190556200007b9062015180620000d6565b600355600680546001600160a01b0319166001600160a01b0392909216919091179055620000fe565b600060208284031215620000b757600080fd5b81516001600160a01b0381168114620000cf57600080fd5b9392505050565b80820180821115620000f857634e487b7160e01b600052601160045260246000fd5b92915050565b6125d3806200010e6000396000f3fe608060405234801561001057600080fd5b50600436106101735760003560e01c806378e97925116100de578063ba2cdd4511610097578063ce7ea16111610071578063ce7ea1611461036f578063d061442814610378578063d2b246631461038b578063eac085d71461039e57600080fd5b8063ba2cdd4514610340578063c1211c8614610353578063c3495b341461035c57600080fd5b806378e97925146102995780637b8fe166146102a257806386f71e4a146102c757806390b536e3146102da578063a92156ce14610302578063aab46b7f1461031557600080fd5b806335bbe70e1161013057806335bbe70e1461020557806338e26ed91461020d57806342169e48146102305780634bdd75851461023957806350dd35ba1461025e57806376679dc01461028657600080fd5b80630f6475e0146101785780631a5a69831461019e57806320ba9b42146101a757806329ed0a2e146101bc5780632f076fae146101dc5780633197cbb6146101fc575b600080fd5b61018b610186366004611c64565b6103b1565b6040519081526020015b60405180910390f35b61018b600a5481565b6101ba6101b5366004611c64565b61042f565b005b6101cf6101ca366004611d83565b6104e4565b6040516101959190611e8b565b6101ef6101ea366004611c64565b61073a565b6040516101959190611ea5565b61018b60015481565b6101ef6108a5565b61022061021b366004611c64565b610971565b6040519015158152602001610195565b61018b60095481565b61024c610247366004611f09565b610a1e565b60405161019596959493929190611f24565b610266610bc6565b604080519485526020850193909352918301526060820152608001610195565b6101cf610294366004611f72565b610d7d565b61018b60005481565b6102b56102b0366004611c64565b611183565b60405161019596959493929190611fe3565b6101ba6102d5366004612023565b61132c565b6102ed6102e8366004611c64565b611408565b60408051928352602083019190915201610195565b61018b610310366004611c64565b6114bf565b600554610328906001600160a01b031681565b6040516001600160a01b039091168152602001610195565b61022061034e366004611c64565b611567565b61018b60025481565b6101ba61036a366004611f09565b611618565b61018b60035481565b6101ba6103863660046120e0565b6117c0565b6101ba610399366004611f09565b611a7c565b600454610328906001600160a01b031681565b60008060015b600a54811015610428576000818152600860205260409020546001600160a01b0316801580159061040257506001600160a01b03811660009081526007602052604090206005015485145b156104155782610411816121b6565b9350505b5080610420816121b6565b9150506103b7565b5092915050565b6004546001600160a01b031633146104625760405162461bcd60e51b8152600401610459906121cf565b60405180910390fd5b6000818152600860205260409020546001600160a01b031680158015906104a057506001600160a01b03811660009081526007602052604090205482145b6104bc5760405162461bcd60e51b81526004016104599061221d565b6001600160a01b03166000908152600760205260409020600601805460ff1916600117905550565b3360008181526007602052604090206006015460609190610100900460ff16156105505760405162461bcd60e51b815260206004820152601b60248201527f566f74657220697320616c7265616479207265676973746572656400000000006044820152606401610459565b6040516001600160a01b031986166020820152600090602c016040516020818303038152906040528051906020012090506000856040516020016105949190612246565b6040516020818303038152906040528051906020012090506000604051806101200160405280600a5481526020018c8c8080601f016020809104026020016040519081016040528093929190818152602001838380828437600092018290525093855250505060208083018d9052604080840188905260608401879052608084018b905260a08401839052600160c0850181905260e09094018390523383526007825290912083518155908301519293508392909182019061065690826122eb565b506040828101516002830155606083015160038301556080830151600483015560a0830151600583015560c08301516006909201805460e0850151610100958601511515620100000262ff00001991151590960261ff00199515159590951661ffff19909216919091179390931792909216929092179055600a80546000908152600860205291822080546001600160a01b0319163317905580549091906106fd906121b6565b9091555060098054600090610711906121b6565b90915550604080516060810182528181529061255e60208301399b9a5050505050505050505050565b6060600060015b600a548110156107b2576000818152600860205260409020546001600160a01b0316801580159061078c57506001600160a01b03811660009081526007602052604090206005015485145b1561079f578261079b816121b6565b9350505b50806107aa816121b6565b915050610741565b5060008167ffffffffffffffff8111156107ce576107ce611c95565b6040519080825280602002602001820160405280156107f7578160200160208202803683370190505b509050600060015b600a5481101561089b576000818152600860205260409020546001600160a01b0316801580159061084a57506001600160a01b03811660009081526007602052604090206005015487145b156108885780848481518110610862576108626123ab565b6001600160a01b039092166020928302919091019091015282610884816121b6565b9350505b5080610893816121b6565b9150506107ff565b5090949350505050565b6060600060095467ffffffffffffffff8111156108c4576108c4611c95565b6040519080825280602002602001820160405280156108ed578160200160208202803683370190505b509050600060015b600a54811015610969576000818152600860205260409020546001600160a01b031680156109565780848481518110610930576109306123ab565b6001600160a01b039092166020928302919091019091015282610952816121b6565b9350505b5080610961816121b6565b9150506108f5565b509092915050565b6004546000906001600160a01b0316331461099e5760405162461bcd60e51b8152600401610459906121cf565b6000828152600860205260409020546001600160a01b031680158015906109dc57506001600160a01b03811660009081526007602052604090205483145b6109f85760405162461bcd60e51b81526004016104599061221d565b6001600160a01b031660009081526007602052604090206006015460ff1690505b919050565b6001600160a01b0381166000908152600760205260408120546060908290819081908190610a5e5760405162461bcd60e51b81526004016104599061221d565b600060076000896001600160a01b03166001600160a01b031681526020019081526020016000206040518061012001604052908160008201548152602001600182018054610aab90612262565b80601f0160208091040260200160405190810160405280929190818152602001828054610ad790612262565b8015610b245780601f10610af957610100808354040283529160200191610b24565b820191906000526020600020905b815481529060010190602001808311610b0757829003601f168201915b505050918352505060028201546020808301919091526003830154604080840191909152600484015460608401526005840154608084015260069093015460ff808216151560a0808601919091526101008084048316151560c08088019190915262010000909404909216151560e090950194909452855192860151948601519386015191860151950151919d939c50919a5090985091965090945092505050565b600080600080600080600060095467ffffffffffffffff811115610bec57610bec611c95565b604051908082528060200260200182016040528015610c15578160200160208202803683370190505b50905060008060015b600a54811015610d68576000818152600860205260409020546001600160a01b03168015610d55576001600160a01b03811660009081526007602052604090206006015462010000900460ff1615610c7e5786610c7a816121b6565b9750505b6001600160a01b03811660009081526007602052604090206006015460ff1615610cb05785610cac816121b6565b9650505b6001600160a01b03811660009081526007602052604081206005015490805b86811015610d125782888281518110610cea57610cea6123ab565b602002602001015103610d005760019150610d12565b80610d0a816121b6565b915050610ccf565b5080610d525781878781518110610d2b57610d2b6123ab565b602090810291909101015285610d40816121b6565b9650508480610d4e906121b6565b9550505b50505b5080610d60816121b6565b915050610c1e565b50600954999498509296509194509192505050565b6001600160a01b03841660009081526007602052604090205460609033908690610db95760405162461bcd60e51b81526004016104599061221d565b600654604051635fb3cd0760e11b81526001600160a01b0384811660048301529091169063bf679a0e90602401602060405180830381865afa158015610e03573d6000803e3d6000fd5b505050506040513d601f19601f82011682018060405250810190610e2791906123c1565b8015610ebf57506001600160a01b0381811660009081526007602052604090819020600501546006549151631cd4df1160e31b815285841660048201529092919091169063e6a6f88890602401600060405180830381865afa158015610e91573d6000803e3d6000fd5b505050506040513d6000823e601f3d908101601f19168201604052610eb991908101906123de565b60400151145b610f3b5760405162461bcd60e51b815260206004820152604160248201527f43616e6e6f74207665726966792074686520766f74657220617320626f74682060448201527f6172652066726f6d20646966666572656e7420636f6e7374697475656e6369656064820152607360f81b608482015260a401610459565b6001600160a01b038716600090815260076020526040902060060154879062010000900460ff1615610faf5760405162461bcd60e51b815260206004820152601960248201527f566f74657220697320616c7265616479207665726966696564000000000000006044820152606401610459565b6040516001600160a01b031988166020820152600090602c01604051602081830303815290604052805190602001209050600087604051602001610ff39190612246565b60408051601f1981840301815291815281516020928301206001600160a01b038d166000908152600790935291208054919250906110735760405162461bcd60e51b815260206004820152601760248201527f566f746572206e6f742070726573656e7420696e2044420000000000000000006044820152606401610459565b828160030154146110c65760405162461bcd60e51b815260206004820152601b60248201527f4161646861722063617264206e756d626572206d69736d6174636800000000006044820152606401610459565b818160040154146111195760405162461bcd60e51b815260206004820152601860248201527f566f746572204944206e756d626572206d69736d6174636800000000000000006044820152606401610459565b87156111375760068101805462ff00001916620100008a1515021790555b8761115a5760405180606001604052806039815260200161252560399139611174565b6040518060600160405280602881526020016124fd602891395b9b9a5050505050505050505050565b6000818152600860205260408120546060919081908190819081906001600160a01b0316806111c45760405162461bcd60e51b81526004016104599061221d565b600060076000836001600160a01b03166001600160a01b03168152602001908152602001600020604051806101200160405290816000820154815260200160018201805461121190612262565b80601f016020809104026020016040519081016040528092919081815260200182805461123d90612262565b801561128a5780601f1061125f5761010080835404028352916020019161128a565b820191906000526020600020905b81548152906001019060200180831161126d57829003601f168201915b505050918352505060028201546020808301919091526003830154604080840191909152600484015460608401526005840154608084015260069093015460ff808216151560a0808601919091526101008084048316151560c08088019190915262010000909404909216151560e09586015292860151948601519286015191860151908601519590930151939e919d509b5090995091975095509350505050565b600654604051635fb3cd0760e11b81523360048201526001600160a01b039091169063bf679a0e90602401602060405180830381865afa158015611374573d6000803e3d6000fd5b505050506040513d601f19601f8201168201806040525081019061139891906123c1565b6113b45760405162461bcd60e51b815260040161045990612498565b6001600160a01b0382166000908152600760205260409020546113e95760405162461bcd60e51b81526004016104599061221d565b6001600160a01b03909116600090815260076020526040902060050155565b600080808060015b600a548110156114b4576000818152600860205260409020546001600160a01b0316801580159061145b57506001600160a01b03811660009081526007602052604090206005015487145b156114a1578361146a816121b6565b6001600160a01b03831660009081526007602052604090206006015490955060ff161590506114a1578261149d816121b6565b9350505b50806114ac816121b6565b915050611410565b509094909350915050565b6004546000906001600160a01b031633146114ec5760405162461bcd60e51b8152600401610459906121cf565b6000828152600860205260409020546001600160a01b0316801580159061152a57506001600160a01b03811660009081526007602052604090205483145b6115465760405162461bcd60e51b81526004016104599061221d565b6001600160a01b031660009081526007602052604090206005015492915050565b6004546000906001600160a01b031633146115945760405162461bcd60e51b8152600401610459906121cf565b6000828152600860205260409020546001600160a01b031680158015906115d257506001600160a01b03811660009081526007602052604090205483145b6115ee5760405162461bcd60e51b81526004016104599061221d565b6001600160a01b031660009081526007602052604090206006015462010000900460ff1692915050565b6006546001600160a01b03166116705760405162461bcd60e51b815260206004820152601d60248201527f456c656374696f6e4f666669636572206e6f7420636f6e6e65637465640000006044820152606401610459565b600654604051634e1f6af960e11b81523360048201526000916001600160a01b031690639c3ed5f290602401602060405180830381865afa1580156116b9573d6000803e3d6000fd5b505050506040513d601f19601f820116820180604052508101906116dd91906123c1565b9050806117445760405162461bcd60e51b815260206004820152602f60248201527f4f6e6c792074686520656c656374696f6e20436f6d6d697373696f6e6572206360448201526e616e20706572666f726d207468697360881b6064820152608401610459565b6004546001600160a01b0316156117945760405162461bcd60e51b8152602060048201526014602482015273115b1958dd1a5bdb88185b1c9958591e481cd95d60621b6044820152606401610459565b50600480546001600160a01b039092166001600160a01b03199283161790556005805490911633179055565b805182511461180a5760405162461bcd60e51b8152602060048201526016602482015275082e4e4c2f2e640d8cadccee8d040dad2e6dac2e8c6d60531b6044820152606401610459565b600654604051635fb3cd0760e11b81523360048201526001600160a01b039091169063bf679a0e90602401602060405180830381865afa158015611852573d6000803e3d6000fd5b505050506040513d601f19601f8201168201806040525081019061187691906123c1565b6118925760405162461bcd60e51b815260040161045990612498565b600654604051631cd4df1160e31b81523360048201526000916001600160a01b03169063e6a6f88890602401600060405180830381865afa1580156118db573d6000803e3d6000fd5b505050506040513d6000823e601f3d908101601f1916820160405261190391908101906123de565b60400151905060005b8351811015611a76576000848281518110611929576119296123ab565b602002602001015190506000848381518110611947576119476123ab565b60200260200101519050600060076000846001600160a01b03166001600160a01b03168152602001908152602001600020600001541180156119ab57506001600160a01b03821660009081526007602052604090206006015462010000900460ff16155b15611a61576001600160a01b0382166000908152600760205260409020600501548414611a325760405162461bcd60e51b815260206004820152602f60248201527f43616e6e6f742076657269667920766f7465722066726f6d206469666665726560448201526e6e7420636f6e7374697475656e637960881b6064820152608401610459565b6001600160a01b0382166000908152600760205260409020600601805462ff0000191662010000831515021790555b50508080611a6e906121b6565b91505061190c565b50505050565b600654604051634e1f6af960e11b81523360048201526001600160a01b0390911690639c3ed5f290602401602060405180830381865afa158015611ac4573d6000803e3d6000fd5b505050506040513d601f19601f82011682018060405250810190611ae891906123c1565b611b4f5760405162461bcd60e51b815260206004820152603260248201527f4f6e6c7920456c656374696f6e20436f6d6d697373696f6e65722063616e207060448201527132b93337b936903a3434b99030b1ba34b7b760711b6064820152608401610459565b6001600160a01b038116600090815260076020526040902054611b845760405162461bcd60e51b81526004016104599061221d565b6001600160a01b0381166000908152600760205260408120805482825591611baf6001830182611c0e565b506000600282018190556003820181905560048201819055600582018190556006909101805462ffffff1916905581815260086020526040812080546001600160a01b03191690556009805491611c05836124e5565b91905055505050565b508054611c1a90612262565b6000825580601f10611c2a575050565b601f016020900490600052602060002090810190611c489190611c4b565b50565b5b80821115611c605760008155600101611c4c565b5090565b600060208284031215611c7657600080fd5b5035919050565b80356001600160a01b031981168114610a1957600080fd5b634e487b7160e01b600052604160045260246000fd5b6040516060810167ffffffffffffffff81118282101715611cce57611cce611c95565b60405290565b604051601f8201601f1916810167ffffffffffffffff81118282101715611cfd57611cfd611c95565b604052919050565b600067ffffffffffffffff821115611d1f57611d1f611c95565b50601f01601f191660200190565b600082601f830112611d3e57600080fd5b8135611d51611d4c82611d05565b611cd4565b818152846020838601011115611d6657600080fd5b816020850160208301376000918101602001919091529392505050565b60008060008060008060a08789031215611d9c57600080fd5b863567ffffffffffffffff80821115611db457600080fd5b818901915089601f830112611dc857600080fd5b813581811115611dd757600080fd5b8a6020828501011115611de957600080fd5b602083810199509097508901359550611e0460408a01611c7d565b94506060890135915080821115611e1a57600080fd5b50611e2789828a01611d2d565b925050608087013590509295509295509295565b60005b83811015611e56578181015183820152602001611e3e565b50506000910152565b60008151808452611e77816020860160208601611e3b565b601f01601f19169290920160200192915050565b602081526000611e9e6020830184611e5f565b9392505050565b6020808252825182820181905260009190848201906040850190845b81811015611ee65783516001600160a01b031683529284019291840191600101611ec1565b50909695505050505050565b80356001600160a01b0381168114610a1957600080fd5b600060208284031215611f1b57600080fd5b611e9e82611ef2565b86815260c060208201526000611f3d60c0830188611e5f565b60408301969096525060608101939093529015156080830152151560a09091015292915050565b8015158114611c4857600080fd5b60008060008060808587031215611f8857600080fd5b611f9185611ef2565b9350611f9f60208601611c7d565b9250604085013567ffffffffffffffff811115611fbb57600080fd5b611fc787828801611d2d565b9250506060850135611fd881611f64565b939692955090935050565b60c081526000611ff660c0830189611e5f565b6020830197909752506040810194909452911515606084015215156080830152151560a090910152919050565b6000806040838503121561203657600080fd5b61203f83611ef2565b946020939093013593505050565b600067ffffffffffffffff82111561206757612067611c95565b5060051b60200190565b600082601f83011261208257600080fd5b81356020612092611d4c8361204d565b82815260059290921b840181019181810190868411156120b157600080fd5b8286015b848110156120d55780356120c881611f64565b83529183019183016120b5565b509695505050505050565b600080604083850312156120f357600080fd5b823567ffffffffffffffff8082111561210b57600080fd5b818501915085601f83011261211f57600080fd5b8135602061212f611d4c8361204d565b82815260059290921b8401810191818101908984111561214e57600080fd5b948201945b838610156121735761216486611ef2565b82529482019490820190612153565b9650508601359250508082111561218957600080fd5b5061219685828601612071565b9150509250929050565b634e487b7160e01b600052601160045260246000fd5b6000600182016121c8576121c86121a0565b5060010190565b6020808252602e908201527f546869732063616e2062652063616c6c6564206f6e6c792066726f6d2047656e60408201526d6572616c20456c656374696f6e7360901b606082015260800190565b6020808252600f908201526e159bdd195c881b9bdd08199bdd5b99608a1b604082015260600190565b60008251612258818460208701611e3b565b9190910192915050565b600181811c9082168061227657607f821691505b60208210810361229657634e487b7160e01b600052602260045260246000fd5b50919050565b601f8211156122e657600081815260208120601f850160051c810160208610156122c35750805b601f850160051c820191505b818110156122e2578281556001016122cf565b5050505b505050565b815167ffffffffffffffff81111561230557612305611c95565b612319816123138454612262565b8461229c565b602080601f83116001811461234e57600084156123365750858301515b600019600386901b1c1916600185901b1785556122e2565b600085815260208120601f198616915b8281101561237d5788860151825594840194600190910190840161235e565b508582101561239b5787850151600019600388901b60f8161c191681555b5050505050600190811b01905550565b634e487b7160e01b600052603260045260246000fd5b6000602082840312156123d357600080fd5b8151611e9e81611f64565b600060208083850312156123f157600080fd5b825167ffffffffffffffff8082111561240957600080fd5b908401906060828703121561241d57600080fd5b612425611cab565b82518281111561243457600080fd5b83019150601f8201871361244757600080fd5b8151612455611d4c82611d05565b818152888683860101111561246957600080fd5b61247882878301888701611e3b565b825250828401519381019390935250604090810151908201529392505050565b6020808252602d908201527f4f6e6c7920456c656374696f6e204f6666696365722063616e20706572666f7260408201526c36903a3434b99030b1ba34b7b760991b606082015260800190565b6000816124f4576124f46121a0565b50600019019056fe566f746572205375636365737366756c6c7920766572696669656420616e642063616e20766f7465566f746572206e6f742072656769737465726564206173206e6f7420666f6c6c6f77696e6720746865207370656369666965642072756c657354686520766f7465722069732072656769737465726564207375636365737366756c6c792e204e6f772068652061776169747320666f7220617070726f76616ca2646970667358221220139ae609ff103c88b3a8599ef9e5f69be419de3eadaac1175f4ecda7d96ad98264736f6c63430008140033",
  "linkReferences": {},
  "deployedLinkReferences": {}
}