{
  "_format": "hh-sol-artifact-1",
  "contractName": "Voter",
  "sourceName": "voting_contracts/Voter.sol",
  "abi": [
    {
      "inputs": [
        {
          "internalType": "address",
          "name": "_ElectionOfficerAddr",
          "type": "address"
        }
      ],
      "stateMutability": "nonpayable",
      "type": "constructor"
    },
    {
      "inputs": [
        {
          "internalType": "address[]",
          "name": "_voterAddresses",
          "type": "address[]"
        },
        {
          "internalType": "bool[]",
          "name": "_decisions",
          "type": "bool[]"
        }
      ],
      "name": "bulkVerifyVoters",
      "outputs": [],
      "stateMutability": "nonpayable",
      "type": "function"
    },
    {
      "inputs": [],
      "name": "electionCommission",
      "outputs": [
        {
          "internalType": "address",
          "name": "",
          "type": "address"
        }
      ],
      "stateMutability": "view",
      "type": "function"
    },
    {
      "inputs": [],
      "name": "electionEnd",
      "outputs": [
        {
          "internalType": "uint256",
          "name": "",
          "type": "uint256"
        }
      ],
      "stateMutability": "view",
      "type": "function"
    },
    {
      "inputs": [],
      "name": "electionStart",
      "outputs": [
        {
          "internalType": "uint256",
          "name": "",
          "type": "uint256"
        }
      ],
      "stateMutability": "view",
      "type": "function"
    },
    {
      "inputs": [
        {
          "internalType": "address",
          "name": "_voterAddress",
          "type": "address"
        }
      ],
      "name": "emergencyRemoveVoter",
      "outputs": [],
      "stateMutability": "nonpayable",
      "type": "function"
    },
    {
      "inputs": [],
      "name": "endTime",
      "outputs": [
        {
          "internalType": "uint256",
          "name": "",
          "type": "uint256"
        }
      ],
      "stateMutability": "view",
      "type": "function"
    },
    {
      "inputs": [],
      "name": "gElect",
      "outputs": [
        {
          "internalType": "address",
          "name": "",
          "type": "address"
        }
      ],
      "stateMutability": "view",
      "type": "function"
    },
    {
      "inputs": [],
      "name": "getAllVoters",
      "outputs": [
        {
          "internalType": "address[]",
          "name": "",
          "type": "address[]"
        }
      ],
      "stateMutability": "view",
      "type": "function"
    },
    {
      "inputs": [
        {
          "internalType": "uint256",
          "name": "_constituencyId",
          "type": "uint256"
        }
      ],
      "name": "getConstituencyVoterCount",
      "outputs": [
        {
          "internalType": "uint256",
          "name": "",
          "type": "uint256"
        }
      ],
      "stateMutability": "view",
      "type": "function"
    },
    {
      "inputs": [
        {
          "internalType": "address",
          "name": "_voterAddress",
          "type": "address"
        }
      ],
      "name": "getVoterByAddress",
      "outputs": [
        {
          "internalType": "uint256",
          "name": "id",
          "type": "uint256"
        },
        {
          "internalType": "string",
          "name": "name",
          "type": "string"
        },
        {
          "internalType": "uint256",
          "name": "age",
          "type": "uint256"
        },
        {
          "internalType": "uint256",
          "name": "constituencyId",
          "type": "uint256"
        },
        {
          "internalType": "bool",
          "name": "hasVoted",
          "type": "bool"
        },
        {
          "internalType": "bool",
          "name": "isAllowedToVote",
          "type": "bool"
        }
      ],
      "stateMutability": "view",
      "type": "function"
    },
    {
      "inputs": [
        {
          "internalType": "uint256",
          "name": "_voterId",
          "type": "uint256"
        }
      ],
      "name": "getVoterConstituency",
      "outputs": [
        {
          "internalType": "uint256",
          "name": "",
          "type": "uint256"
        }
      ],
      "stateMutability": "view",
      "type": "function"
    },
    {
      "inputs": [
        {
          "internalType": "uint256",
          "name": "_voterId",
          "type": "uint256"
        }
      ],
      "name": "getVoterDetails",
      "outputs": [
        {
          "internalType": "string",
          "name": "name",
          "type": "string"
        },
        {
          "internalType": "uint256",
          "name": "age",
          "type": "uint256"
        },
        {
          "internalType": "uint256",
          "name": "constituencyId",
          "type": "uint256"
        },
        {
          "internalType": "bool",
          "name": "hasVoted",
          "type": "bool"
        },
        {
          "internalType": "bool",
          "name": "isAllowedToVote",
          "type": "bool"
        },
        {
          "internalType": "bool",
          "name": "hasRegistered",
          "type": "bool"
        }
      ],
      "stateMutability": "view",
      "type": "function"
    },
    {
      "inputs": [],
      "name": "getVoterStatistics",
      "outputs": [
        {
          "internalType": "uint256",
          "name": "totalRegistered",
          "type": "uint256"
        },
        {
          "internalType": "uint256",
          "name": "totalVerified",
          "type": "uint256"
        },
        {
          "internalType": "uint256",
          "name": "totalVoted",
          "type": "uint256"
        },
        {
          "internalType": "uint256",
          "name": "totalConstituencies",
          "type": "uint256"
        }
      ],
      "stateMutability": "view",
      "type": "function"
    },
    {
      "inputs": [
        {
          "internalType": "uint256",
          "name": "_constituencyId",
          "type": "uint256"
        }
      ],
      "name": "getVoterTurnout",
      "outputs": [
        {
          "internalType": "uint256",
          "name": "totalVoters",
          "type": "uint256"
        },
        {
          "internalType": "uint256",
          "name": "votedVoters",
          "type": "uint256"
        }
      ],
      "stateMutability": "view",
      "type": "function"
    },
    {
      "inputs": [
        {
          "internalType": "uint256",
          "name": "_constituencyId",
          "type": "uint256"
        }
      ],
      "name": "getVotersByConstituency",
      "outputs": [
        {
          "internalType": "address[]",
          "name": "",
          "type": "address[]"
        }
      ],
      "stateMutability": "view",
      "type": "function"
    },
    {
      "inputs": [
        {
          "internalType": "uint256",
          "name": "_voterId",
          "type": "uint256"
        }
      ],
      "name": "hasVoterVoted",
      "outputs": [
        {
          "internalType": "bool",
          "name": "",
          "type": "bool"
        }
      ],
      "stateMutability": "view",
      "type": "function"
    },
    {
      "inputs": [
        {
          "internalType": "uint256",
          "name": "_voterId",
          "type": "uint256"
        }
      ],
      "name": "isVoterAllowedToVote",
      "outputs": [
        {
          "internalType": "bool",
          "name": "",
          "type": "bool"
        }
      ],
      "stateMutability": "view",
      "type": "function"
    },
    {
      "inputs": [],
      "name": "primKey",
      "outputs": [
        {
          "internalType": "uint256",
          "name": "",
          "type": "uint256"
        }
      ],
      "stateMutability": "view",
      "type": "function"
    },
    {
      "inputs": [
        {
          "internalType": "string",
          "name": "_name",
          "type": "string"
        },
        {
          "internalType": "uint256",
          "name": "_age",
          "type": "uint256"
        },
        {
          "internalType": "bytes12",
          "name": "_aadharNumber",
          "type": "bytes12"
        },
        {
          "internalType": "string",
          "name": "_voterIdNumber",
          "type": "string"
        },
        {
          "internalType": "uint256",
          "name": "_ConstituencyId",
          "type": "uint256"
        }
      ],
      "name": "registerAsVoter",
      "outputs": [
        {
          "internalType": "string",
          "name": "",
          "type": "string"
        }
      ],
      "stateMutability": "nonpayable",
      "type": "function"
    },
    {
      "inputs": [
        {
          "internalType": "address",
          "name": "_generalElection",
          "type": "address"
        }
      ],
      "name": "setGeneralElection",
      "outputs": [],
      "stateMutability": "nonpayable",
      "type": "function"
    },
    {
      "inputs": [],
      "name": "startTime",
      "outputs": [
        {
          "internalType": "uint256",
          "name": "",
          "type": "uint256"
        }
      ],
      "stateMutability": "view",
      "type": "function"
    },
    {
      "inputs": [
        {
          "internalType": "uint256",
          "name": "_voterId",
          "type": "uint256"
        }
      ],
      "name": "updateVoterAfterVote",
      "outputs": [],
      "stateMutability": "nonpayable",
      "type": "function"
    },
    {
      "inputs": [
        {
          "internalType": "address",
          "name": "_voterAddress",
          "type": "address"
        },
        {
          "internalType": "uint256",
          "name": "_newConstituencyId",
          "type": "uint256"
        }
      ],
      "name": "updateVoterConstituency",
      "outputs": [],
      "stateMutability": "nonpayable",
      "type": "function"
    },
    {
      "inputs": [
        {
          "internalType": "address",
          "name": "voterAddress",
          "type": "address"
        },
        {
          "internalType": "bytes12",
          "name": "_aadharNumber",
          "type": "bytes12"
        },
        {
          "internalType": "string",
          "name": "_voterIdNumber",
          "type": "string"
        },
        {
          "internalType": "bool",
          "name": "decision",
          "type": "bool"
        }
      ],
      "name": "verifyVoters",
      "outputs": [
        {
          "internalType": "string",
          "name": "",
          "type": "string"
        }
      ],
      "stateMutability": "nonpayable",
      "type": "function"
    },
    {
      "inputs": [],
      "name": "voterCount",
      "outputs": [
        {
          "internalType": "uint256",
          "name": "",
          "type": "uint256"
        }
      ],
      "stateMutability": "view",
      "type": "function"
    }
  ],
  "bytecode": "0x608060405260006009556001600a553480156200001b57600080fd5b5060405162002644380380620026448339810160408190526200003e91620000a4565b426000819055620000539062093a80620000d6565b6001819055620000679062093a80620000d6565b60028190556200007b9062015180620000d6565b600355600680546001600160a01b0319166001600160a01b0392909216919091179055620000fe565b600060208284031215620000b757600080fd5b81516001600160a01b0381168114620000cf57600080fd5b9392505050565b80820180821115620000f857634e487b7160e01b600052601160045260246000fd5b92915050565b612536806200010e6000396000f3fe608060405234801561001057600080fd5b50600436106101735760003560e01c806378e97925116100de578063ba2cdd4511610097578063ce7ea16111610071578063ce7ea1611461036f578063d061442814610378578063d2b246631461038b578063eac085d71461039e57600080fd5b8063ba2cdd4514610340578063c1211c8614610353578063c3495b341461035c57600080fd5b806378e97925146102995780637b8fe166146102a257806386f71e4a146102c757806390b536e3146102da578063a92156ce14610302578063aab46b7f1461031557600080fd5b806335bbe70e1161013057806335bbe70e1461020557806338e26ed91461020d57806342169e48146102305780634bdd75851461023957806350dd35ba1461025e57806376679dc01461028657600080fd5b80630f6475e0146101785780631a5a69831461019e57806320ba9b42146101a757806329ed0a2e146101bc5780632f076fae146101dc5780633197cbb6146101fc575b600080fd5b61018b610186366004611bc8565b6103b1565b6040519081526020015b60405180910390f35b61018b600a5481565b6101ba6101b5366004611bc8565b61042f565b005b6101cf6101ca366004611ce7565b6104e4565b6040516101959190611def565b6101ef6101ea366004611bc8565b610798565b6040516101959190611e09565b61018b60015481565b6101ef610903565b61022061021b366004611bc8565b6109cf565b6040519015158152602001610195565b61018b60095481565b61024c610247366004611e6d565b610a7c565b60405161019596959493929190611e88565b610266610c24565b604080519485526020850193909352918301526060820152608001610195565b6101cf610294366004611ed6565b610ddb565b61018b60005481565b6102b56102b0366004611bc8565b6111e1565b60405161019596959493929190611f47565b6101ba6102d5366004611f87565b61138a565b6102ed6102e8366004611bc8565b611466565b60408051928352602083019190915201610195565b61018b610310366004611bc8565b61151d565b600554610328906001600160a01b031681565b6040516001600160a01b039091168152602001610195565b61022061034e366004611bc8565b6115c5565b61018b60025481565b6101ba61036a366004611e6d565b611676565b61018b60035481565b6101ba610386366004612044565b61181e565b6101ba610399366004611e6d565b6119e0565b600454610328906001600160a01b031681565b60008060015b600a54811015610428576000818152600860205260409020546001600160a01b0316801580159061040257506001600160a01b03811660009081526007602052604090206005015485145b1561041557826104118161211a565b9350505b50806104208161211a565b9150506103b7565b5092915050565b6004546001600160a01b031633146104625760405162461bcd60e51b815260040161045990612133565b60405180910390fd5b6000818152600860205260409020546001600160a01b031680158015906104a057506001600160a01b03811660009081526007602052604090205482145b6104bc5760405162461bcd60e51b815260040161045990612181565b6001600160a01b03166000908152600760205260409020600601805460ff1916600117905550565b606060015442111580156104fa57506000544210155b6105465760405162461bcd60e51b815260206004820152601f60248201527f54686520726567697374726174696f6e20706572696f64206973206f766572006044820152606401610459565b33600081815260076020526040902060060154610100900460ff16156105ae5760405162461bcd60e51b815260206004820152601b60248201527f566f74657220697320616c7265616479207265676973746572656400000000006044820152606401610459565b6040516001600160a01b031986166020820152600090602c016040516020818303038152906040528051906020012090506000856040516020016105f291906121aa565b6040516020818303038152906040528051906020012090506000604051806101200160405280600a5481526020018c8c8080601f016020809104026020016040519081016040528093929190818152602001838380828437600092018290525093855250505060208083018d9052604080840188905260608401879052608084018b905260a08401839052600160c0850181905260e0909401839052338352600782529091208351815590830151929350839290918201906106b4908261224e565b506040828101516002830155606083015160038301556080830151600483015560a0830151600583015560c08301516006909201805460e0850151610100958601511515620100000262ff00001991151590960261ff00199515159590951661ffff19909216919091179390931792909216929092179055600a80546000908152600860205291822080546001600160a01b03191633179055805490919061075b9061211a565b909155506009805460009061076f9061211a565b9091555060408051606081018252818152906124c160208301399b9a5050505050505050505050565b6060600060015b600a54811015610810576000818152600860205260409020546001600160a01b031680158015906107ea57506001600160a01b03811660009081526007602052604090206005015485145b156107fd57826107f98161211a565b9350505b50806108088161211a565b91505061079f565b5060008167ffffffffffffffff81111561082c5761082c611bf9565b604051908082528060200260200182016040528015610855578160200160208202803683370190505b509050600060015b600a548110156108f9576000818152600860205260409020546001600160a01b031680158015906108a857506001600160a01b03811660009081526007602052604090206005015487145b156108e657808484815181106108c0576108c061230e565b6001600160a01b0390921660209283029190910190910152826108e28161211a565b9350505b50806108f18161211a565b91505061085d565b5090949350505050565b6060600060095467ffffffffffffffff81111561092257610922611bf9565b60405190808252806020026020018201604052801561094b578160200160208202803683370190505b509050600060015b600a548110156109c7576000818152600860205260409020546001600160a01b031680156109b4578084848151811061098e5761098e61230e565b6001600160a01b0390921660209283029190910190910152826109b08161211a565b9350505b50806109bf8161211a565b915050610953565b509092915050565b6004546000906001600160a01b031633146109fc5760405162461bcd60e51b815260040161045990612133565b6000828152600860205260409020546001600160a01b03168015801590610a3a57506001600160a01b03811660009081526007602052604090205483145b610a565760405162461bcd60e51b815260040161045990612181565b6001600160a01b031660009081526007602052604090206006015460ff1690505b919050565b6001600160a01b0381166000908152600760205260408120546060908290819081908190610abc5760405162461bcd60e51b815260040161045990612181565b600060076000896001600160a01b03166001600160a01b031681526020019081526020016000206040518061012001604052908160008201548152602001600182018054610b09906121c6565b80601f0160208091040260200160405190810160405280929190818152602001828054610b35906121c6565b8015610b825780601f10610b5757610100808354040283529160200191610b82565b820191906000526020600020905b815481529060010190602001808311610b6557829003601f168201915b505050918352505060028201546020808301919091526003830154604080840191909152600484015460608401526005840154608084015260069093015460ff808216151560a0808601919091526101008084048316151560c08088019190915262010000909404909216151560e090950194909452855192860151948601519386015191860151950151919d939c50919a5090985091965090945092505050565b600080600080600080600060095467ffffffffffffffff811115610c4a57610c4a611bf9565b604051908082528060200260200182016040528015610c73578160200160208202803683370190505b50905060008060015b600a54811015610dc6576000818152600860205260409020546001600160a01b03168015610db3576001600160a01b03811660009081526007602052604090206006015462010000900460ff1615610cdc5786610cd88161211a565b9750505b6001600160a01b03811660009081526007602052604090206006015460ff1615610d0e5785610d0a8161211a565b9650505b6001600160a01b03811660009081526007602052604081206005015490805b86811015610d705782888281518110610d4857610d4861230e565b602002602001015103610d5e5760019150610d70565b80610d688161211a565b915050610d2d565b5080610db05781878781518110610d8957610d8961230e565b602090810291909101015285610d9e8161211a565b9650508480610dac9061211a565b9550505b50505b5080610dbe8161211a565b915050610c7c565b50600954999498509296509194509192505050565b6001600160a01b03841660009081526007602052604090205460609033908690610e175760405162461bcd60e51b815260040161045990612181565b600654604051635fb3cd0760e11b81526001600160a01b0384811660048301529091169063bf679a0e90602401602060405180830381865afa158015610e61573d6000803e3d6000fd5b505050506040513d601f19601f82011682018060405250810190610e859190612324565b8015610f1d57506001600160a01b0381811660009081526007602052604090819020600501546006549151631cd4df1160e31b815285841660048201529092919091169063e6a6f88890602401600060405180830381865afa158015610eef573d6000803e3d6000fd5b505050506040513d6000823e601f3d908101601f19168201604052610f179190810190612341565b60400151145b610f995760405162461bcd60e51b815260206004820152604160248201527f43616e6e6f74207665726966792074686520766f74657220617320626f74682060448201527f6172652066726f6d20646966666572656e7420636f6e7374697475656e6369656064820152607360f81b608482015260a401610459565b6001600160a01b038716600090815260076020526040902060060154879062010000900460ff161561100d5760405162461bcd60e51b815260206004820152601960248201527f566f74657220697320616c7265616479207665726966696564000000000000006044820152606401610459565b6040516001600160a01b031988166020820152600090602c0160405160208183030381529060405280519060200120905060008760405160200161105191906121aa565b60408051601f1981840301815291815281516020928301206001600160a01b038d166000908152600790935291208054919250906110d15760405162461bcd60e51b815260206004820152601760248201527f566f746572206e6f742070726573656e7420696e2044420000000000000000006044820152606401610459565b828160030154146111245760405162461bcd60e51b815260206004820152601b60248201527f4161646861722063617264206e756d626572206d69736d6174636800000000006044820152606401610459565b818160040154146111775760405162461bcd60e51b815260206004820152601860248201527f566f746572204944206e756d626572206d69736d6174636800000000000000006044820152606401610459565b87156111955760068101805462ff00001916620100008a1515021790555b876111b857604051806060016040528060398152602001612488603991396111d2565b604051806060016040528060288152602001612460602891395b9b9a5050505050505050505050565b6000818152600860205260408120546060919081908190819081906001600160a01b0316806112225760405162461bcd60e51b815260040161045990612181565b600060076000836001600160a01b03166001600160a01b03168152602001908152602001600020604051806101200160405290816000820154815260200160018201805461126f906121c6565b80601f016020809104026020016040519081016040528092919081815260200182805461129b906121c6565b80156112e85780601f106112bd576101008083540402835291602001916112e8565b820191906000526020600020905b8154815290600101906020018083116112cb57829003601f168201915b505050918352505060028201546020808301919091526003830154604080840191909152600484015460608401526005840154608084015260069093015460ff808216151560a0808601919091526101008084048316151560c08088019190915262010000909404909216151560e09586015292860151948601519286015191860151908601519590930151939e919d509b5090995091975095509350505050565b600654604051635fb3cd0760e11b81523360048201526001600160a01b039091169063bf679a0e90602401602060405180830381865afa1580156113d2573d6000803e3d6000fd5b505050506040513d601f19601f820116820180604052508101906113f69190612324565b6114125760405162461bcd60e51b8152600401610459906123fb565b6001600160a01b0382166000908152600760205260409020546114475760405162461bcd60e51b815260040161045990612181565b6001600160a01b03909116600090815260076020526040902060050155565b600080808060015b600a54811015611512576000818152600860205260409020546001600160a01b031680158015906114b957506001600160a01b03811660009081526007602052604090206005015487145b156114ff57836114c88161211a565b6001600160a01b03831660009081526007602052604090206006015490955060ff161590506114ff57826114fb8161211a565b9350505b508061150a8161211a565b91505061146e565b509094909350915050565b6004546000906001600160a01b0316331461154a5760405162461bcd60e51b815260040161045990612133565b6000828152600860205260409020546001600160a01b0316801580159061158857506001600160a01b03811660009081526007602052604090205483145b6115a45760405162461bcd60e51b815260040161045990612181565b6001600160a01b031660009081526007602052604090206005015492915050565b6004546000906001600160a01b031633146115f25760405162461bcd60e51b815260040161045990612133565b6000828152600860205260409020546001600160a01b0316801580159061163057506001600160a01b03811660009081526007602052604090205483145b61164c5760405162461bcd60e51b815260040161045990612181565b6001600160a01b031660009081526007602052604090206006015462010000900460ff1692915050565b6006546001600160a01b03166116ce5760405162461bcd60e51b815260206004820152601d60248201527f456c656374696f6e4f666669636572206e6f7420636f6e6e65637465640000006044820152606401610459565b600654604051634e1f6af960e11b81523360048201526000916001600160a01b031690639c3ed5f290602401602060405180830381865afa158015611717573d6000803e3d6000fd5b505050506040513d601f19601f8201168201806040525081019061173b9190612324565b9050806117a25760405162461bcd60e51b815260206004820152602f60248201527f4f6e6c792074686520656c656374696f6e20436f6d6d697373696f6e6572206360448201526e616e20706572666f726d207468697360881b6064820152608401610459565b6004546001600160a01b0316156117f25760405162461bcd60e51b8152602060048201526014602482015273115b1958dd1a5bdb88185b1c9958591e481cd95d60621b6044820152606401610459565b50600480546001600160a01b039092166001600160a01b03199283161790556005805490911633179055565b80518251146118685760405162461bcd60e51b8152602060048201526016602482015275082e4e4c2f2e640d8cadccee8d040dad2e6dac2e8c6d60531b6044820152606401610459565b600654604051635fb3cd0760e11b81523360048201526001600160a01b039091169063bf679a0e90602401602060405180830381865afa1580156118b0573d6000803e3d6000fd5b505050506040513d601f19601f820116820180604052508101906118d49190612324565b6118f05760405162461bcd60e51b8152600401610459906123fb565b60005b82518110156119db5760008382815181106119105761191061230e565b60200260200101519050600083838151811061192e5761192e61230e565b60200260200101519050600060076000846001600160a01b03166001600160a01b031681526020019081526020016000206000015411801561199257506001600160a01b03821660009081526007602052604090206006015462010000900460ff16155b156119c6576001600160a01b0382166000908152600760205260409020600601805462ff0000191662010000831515021790555b505080806119d39061211a565b9150506118f3565b505050565b600654604051634e1f6af960e11b81523360048201526001600160a01b0390911690639c3ed5f290602401602060405180830381865afa158015611a28573d6000803e3d6000fd5b505050506040513d601f19601f82011682018060405250810190611a4c9190612324565b611ab35760405162461bcd60e51b815260206004820152603260248201527f4f6e6c7920456c656374696f6e20436f6d6d697373696f6e65722063616e207060448201527132b93337b936903a3434b99030b1ba34b7b760711b6064820152608401610459565b6001600160a01b038116600090815260076020526040902054611ae85760405162461bcd60e51b815260040161045990612181565b6001600160a01b0381166000908152600760205260408120805482825591611b136001830182611b72565b506000600282018190556003820181905560048201819055600582018190556006909101805462ffffff1916905581815260086020526040812080546001600160a01b03191690556009805491611b6983612448565b91905055505050565b508054611b7e906121c6565b6000825580601f10611b8e575050565b601f016020900490600052602060002090810190611bac9190611baf565b50565b5b80821115611bc45760008155600101611bb0565b5090565b600060208284031215611bda57600080fd5b5035919050565b80356001600160a01b031981168114610a7757600080fd5b634e487b7160e01b600052604160045260246000fd5b6040516060810167ffffffffffffffff81118282101715611c3257611c32611bf9565b60405290565b604051601f8201601f1916810167ffffffffffffffff81118282101715611c6157611c61611bf9565b604052919050565b600067ffffffffffffffff821115611c8357611c83611bf9565b50601f01601f191660200190565b600082601f830112611ca257600080fd5b8135611cb5611cb082611c69565b611c38565b818152846020838601011115611cca57600080fd5b816020850160208301376000918101602001919091529392505050565b60008060008060008060a08789031215611d0057600080fd5b863567ffffffffffffffff80821115611d1857600080fd5b818901915089601f830112611d2c57600080fd5b813581811115611d3b57600080fd5b8a6020828501011115611d4d57600080fd5b602083810199509097508901359550611d6860408a01611be1565b94506060890135915080821115611d7e57600080fd5b50611d8b89828a01611c91565b925050608087013590509295509295509295565b60005b83811015611dba578181015183820152602001611da2565b50506000910152565b60008151808452611ddb816020860160208601611d9f565b601f01601f19169290920160200192915050565b602081526000611e026020830184611dc3565b9392505050565b6020808252825182820181905260009190848201906040850190845b81811015611e4a5783516001600160a01b031683529284019291840191600101611e25565b50909695505050505050565b80356001600160a01b0381168114610a7757600080fd5b600060208284031215611e7f57600080fd5b611e0282611e56565b86815260c060208201526000611ea160c0830188611dc3565b60408301969096525060608101939093529015156080830152151560a09091015292915050565b8015158114611bac57600080fd5b60008060008060808587031215611eec57600080fd5b611ef585611e56565b9350611f0360208601611be1565b9250604085013567ffffffffffffffff811115611f1f57600080fd5b611f2b87828801611c91565b9250506060850135611f3c81611ec8565b939692955090935050565b60c081526000611f5a60c0830189611dc3565b6020830197909752506040810194909452911515606084015215156080830152151560a090910152919050565b60008060408385031215611f9a57600080fd5b611fa383611e56565b946020939093013593505050565b600067ffffffffffffffff821115611fcb57611fcb611bf9565b5060051b60200190565b600082601f830112611fe657600080fd5b81356020611ff6611cb083611fb1565b82815260059290921b8401810191818101908684111561201557600080fd5b8286015b8481101561203957803561202c81611ec8565b8352918301918301612019565b509695505050505050565b6000806040838503121561205757600080fd5b823567ffffffffffffffff8082111561206f57600080fd5b818501915085601f83011261208357600080fd5b81356020612093611cb083611fb1565b82815260059290921b840181019181810190898411156120b257600080fd5b948201945b838610156120d7576120c886611e56565b825294820194908201906120b7565b965050860135925050808211156120ed57600080fd5b506120fa85828601611fd5565b9150509250929050565b634e487b7160e01b600052601160045260246000fd5b60006001820161212c5761212c612104565b5060010190565b6020808252602e908201527f546869732063616e2062652063616c6c6564206f6e6c792066726f6d2047656e60408201526d6572616c20456c656374696f6e7360901b606082015260800190565b6020808252600f908201526e159bdd195c881b9bdd08199bdd5b99608a1b604082015260600190565b600082516121bc818460208701611d9f565b9190910192915050565b600181811c908216806121da57607f821691505b6020821081036121fa57634e487b7160e01b600052602260045260246000fd5b50919050565b601f8211156119db57600081815260208120601f850160051c810160208610156122275750805b601f850160051c820191505b8181101561224657828155600101612233565b505050505050565b815167ffffffffffffffff81111561226857612268611bf9565b61227c8161227684546121c6565b84612200565b602080601f8311600181146122b157600084156122995750858301515b600019600386901b1c1916600185901b178555612246565b600085815260208120601f198616915b828110156122e0578886015182559484019460019091019084016122c1565b50858210156122fe5787850151600019600388901b60f8161c191681555b5050505050600190811b01905550565b634e487b7160e01b600052603260045260246000fd5b60006020828403121561233657600080fd5b8151611e0281611ec8565b6000602080838503121561235457600080fd5b825167ffffffffffffffff8082111561236c57600080fd5b908401906060828703121561238057600080fd5b612388611c0f565b82518281111561239757600080fd5b83019150601f820187136123aa57600080fd5b81516123b8611cb082611c69565b81815288868386010111156123cc57600080fd5b6123db82878301888701611d9f565b825250828401519381019390935250604090810151908201529392505050565b6020808252602d908201527f4f6e6c7920456c656374696f6e204f6666696365722063616e20706572666f7260408201526c36903a3434b99030b1ba34b7b760991b606082015260800190565b60008161245757612457612104565b50600019019056fe566f746572205375636365737366756c6c7920766572696669656420616e642063616e20766f7465566f746572206e6f742072656769737465726564206173206e6f7420666f6c6c6f77696e6720746865207370656369666965642072756c657354686520766f7465722069732072656769737465726564207375636365737366756c6c792e204e6f772068652061776169747320666f7220617070726f76616ca264697066735822122031a962c0b41f3b8fcec68210c7ae615c450df2008ef43069640402b9966606ec64736f6c63430008140033",
  "linkReferences": {},
  "deployedLinkReferences": {}
}