{
  "_format": "hh-sol-artifact-1",
  "contractName": "Candidate",
  "sourceName": "voting_contracts/Candidate.sol",
  "abi": [
    {
      "inputs": [
        {
          "internalType": "address",
          "name": "_electionOfficerAddr",
          "type": "address"
        }
      ],
      "stateMutability": "nonpayable",
      "type": "constructor"
    },
    {
      "anonymous": false,
      "inputs": [
        {
          "indexed": false,
          "internalType": "address",
          "name": "candidateAddress",
          "type": "address"
        },
        {
          "indexed": false,
          "internalType": "string",
          "name": "name",
          "type": "string"
        },
        {
          "indexed": false,
          "internalType": "string",
          "name": "decision",
          "type": "string"
        }
      ],
      "name": "successfulContestant",
      "type": "event"
    },
    {
      "anonymous": false,
      "inputs": [
        {
          "indexed": false,
          "internalType": "address",
          "name": "candidateAddr",
          "type": "address"
        },
        {
          "indexed": false,
          "internalType": "string",
          "name": "candidateName",
          "type": "string"
        }
      ],
      "name": "successfulRegistration",
      "type": "event"
    },
    {
      "inputs": [
        {
          "internalType": "address",
          "name": "candidateAddress",
          "type": "address"
        },
        {
          "internalType": "string",
          "name": "name",
          "type": "string"
        },
        {
          "internalType": "string",
          "name": "politicalParty",
          "type": "string"
        },
        {
          "internalType": "uint256",
          "name": "securityDepositInEthers",
          "type": "uint256"
        },
        {
          "internalType": "uint256",
          "name": "age",
          "type": "uint256"
        },
        {
          "internalType": "uint256",
          "name": "constituencyId",
          "type": "uint256"
        }
      ],
      "name": "candidateRegistration",
      "outputs": [],
      "stateMutability": "payable",
      "type": "function"
    },
    {
      "inputs": [
        {
          "internalType": "address",
          "name": "_candidateAddress",
          "type": "address"
        },
        {
          "internalType": "bool",
          "name": "decision",
          "type": "bool"
        }
      ],
      "name": "candidateVerification",
      "outputs": [],
      "stateMutability": "nonpayable",
      "type": "function"
    },
    {
      "inputs": [],
      "name": "electionCommission",
      "outputs": [
        {
          "internalType": "address",
          "name": "",
          "type": "address"
        }
      ],
      "stateMutability": "view",
      "type": "function"
    },
    {
      "inputs": [
        {
          "internalType": "address",
          "name": "_candidateAddress",
          "type": "address"
        }
      ],
      "name": "emergencyRemoveCandidate",
      "outputs": [],
      "stateMutability": "nonpayable",
      "type": "function"
    },
    {
      "inputs": [],
      "name": "gElect",
      "outputs": [
        {
          "internalType": "address",
          "name": "",
          "type": "address"
        }
      ],
      "stateMutability": "view",
      "type": "function"
    },
    {
      "inputs": [],
      "name": "getAllCandidates",
      "outputs": [
        {
          "internalType": "address[]",
          "name": "",
          "type": "address[]"
        }
      ],
      "stateMutability": "view",
      "type": "function"
    },
    {
      "inputs": [
        {
          "internalType": "uint256",
          "name": "_candidateId",
          "type": "uint256"
        }
      ],
      "name": "getCandidateConstituency",
      "outputs": [
        {
          "internalType": "uint256",
          "name": "",
          "type": "uint256"
        }
      ],
      "stateMutability": "view",
      "type": "function"
    },
    {
      "inputs": [
        {
          "internalType": "uint256",
          "name": "_candidateId",
          "type": "uint256"
        }
      ],
      "name": "getCandidateDetails",
      "outputs": [
        {
          "internalType": "string",
          "name": "name",
          "type": "string"
        },
        {
          "internalType": "string",
          "name": "politicalParty",
          "type": "string"
        },
        {
          "internalType": "uint256",
          "name": "age",
          "type": "uint256"
        },
        {
          "internalType": "uint256",
          "name": "constituencyId",
          "type": "uint256"
        },
        {
          "internalType": "bool",
          "name": "canContest",
          "type": "bool"
        },
        {
          "internalType": "bool",
          "name": "isVerified",
          "type": "bool"
        }
      ],
      "stateMutability": "view",
      "type": "function"
    },
    {
      "inputs": [
        {
          "internalType": "address",
          "name": "_candidateAddress",
          "type": "address"
        }
      ],
      "name": "getCandidateIdByAddress",
      "outputs": [
        {
          "internalType": "uint256",
          "name": "",
          "type": "uint256"
        }
      ],
      "stateMutability": "view",
      "type": "function"
    },
    {
      "inputs": [],
      "name": "getCandidateStatistics",
      "outputs": [
        {
          "internalType": "uint256",
          "name": "totalRegistered",
          "type": "uint256"
        },
        {
          "internalType": "uint256",
          "name": "totalVerified",
          "type": "uint256"
        },
        {
          "internalType": "uint256",
          "name": "totalConstituencies",
          "type": "uint256"
        },
        {
          "internalType": "uint256",
          "name": "totalDepositsCollected",
          "type": "uint256"
        }
      ],
      "stateMutability": "view",
      "type": "function"
    },
    {
      "inputs": [
        {
          "internalType": "uint256",
          "name": "_constituencyId",
          "type": "uint256"
        }
      ],
      "name": "getCandidatesByConstituency",
      "outputs": [
        {
          "internalType": "address[]",
          "name": "",
          "type": "address[]"
        }
      ],
      "stateMutability": "view",
      "type": "function"
    },
    {
      "inputs": [
        {
          "internalType": "uint256",
          "name": "_constituencyId",
          "type": "uint256"
        }
      ],
      "name": "getConstituencyCandidates",
      "outputs": [
        {
          "internalType": "address[]",
          "name": "candidateAddresses",
          "type": "address[]"
        },
        {
          "internalType": "string[]",
          "name": "names",
          "type": "string[]"
        },
        {
          "internalType": "string[]",
          "name": "politicalParties",
          "type": "string[]"
        },
        {
          "internalType": "uint256[]",
          "name": "ages",
          "type": "uint256[]"
        }
      ],
      "stateMutability": "view",
      "type": "function"
    },
    {
      "inputs": [
        {
          "internalType": "uint256",
          "name": "_constituencyId",
          "type": "uint256"
        }
      ],
      "name": "getTotalCandidatesByConstituency",
      "outputs": [
        {
          "internalType": "uint256",
          "name": "",
          "type": "uint256"
        }
      ],
      "stateMutability": "view",
      "type": "function"
    },
    {
      "inputs": [
        {
          "internalType": "uint256",
          "name": "_candidateId",
          "type": "uint256"
        }
      ],
      "name": "isCandidateAllowedToContest",
      "outputs": [
        {
          "internalType": "bool",
          "name": "",
          "type": "bool"
        }
      ],
      "stateMutability": "view",
      "type": "function"
    },
    {
      "inputs": [],
      "name": "regEnd",
      "outputs": [
        {
          "internalType": "uint256",
          "name": "",
          "type": "uint256"
        }
      ],
      "stateMutability": "view",
      "type": "function"
    },
    {
      "inputs": [],
      "name": "regStart",
      "outputs": [
        {
          "internalType": "uint256",
          "name": "",
          "type": "uint256"
        }
      ],
      "stateMutability": "view",
      "type": "function"
    },
    {
      "inputs": [
        {
          "internalType": "address",
          "name": "_generalElection",
          "type": "address"
        }
      ],
      "name": "setGeneralElection",
      "outputs": [],
      "stateMutability": "nonpayable",
      "type": "function"
    },
    {
      "inputs": [],
      "name": "totalCandidates",
      "outputs": [
        {
          "internalType": "uint256",
          "name": "",
          "type": "uint256"
        }
      ],
      "stateMutability": "view",
      "type": "function"
    }
  ],
  "bytecode": "0x608060405260006008556001600a553480156200001b57600080fd5b5060405162002371380380620023718339810160408190526200003e916200007c565b426006819055620000539062093a80620000ae565b600755600080546001600160a01b0319166001600160a01b0392909216919091179055620000d6565b6000602082840312156200008f57600080fd5b81516001600160a01b0381168114620000a757600080fd5b9392505050565b80820180821115620000d057634e487b7160e01b600052601160045260246000fd5b92915050565b61228b80620000e66000396000f3fe6080604052600436106101095760003560e01c8063745cef4411610095578063da6085c811610064578063da6085c8146102f7578063e89f012914610317578063ea417a2f1461032d578063eac085d71461035d578063f9ed80671461037d57600080fd5b8063745cef441461025f578063a12963041461027f578063aab46b7f1461029f578063c3495b34146102d757600080fd5b806345cb0584116100dc57806345cb0584146101bf57806345d7c1e2146101d55780635ed0f33d146101ea57806363873d971461020a578063683e2f261461023f57600080fd5b806327f9fd501461010e5780632e6997fe146101495780633866965c1461016b5780633d33a00e1461018f575b600080fd5b34801561011a57600080fd5b5061012e6101293660046119f9565b61039d565b60405161014096959493929190611a62565b60405180910390f35b34801561015557600080fd5b5061015e6105f0565b6040516101409190611af3565b34801561017757600080fd5b5061018160085481565b604051908152602001610140565b34801561019b57600080fd5b506101af6101aa3660046119f9565b6106bc565b6040519015158152602001610140565b3480156101cb57600080fd5b5061018160075481565b6101e86101e3366004611b6d565b610720565b005b3480156101f657600080fd5b506101e8610205366004611c13565b610a15565b34801561021657600080fd5b5061021f610d17565b604080519485526020850193909352918301526060820152608001610140565b34801561024b57600080fd5b5061018161025a366004611c4a565b610e6c565b34801561026b57600080fd5b506101e861027a366004611c4a565b610efe565b34801561028b57600080fd5b5061018161029a3660046119f9565b611163565b3480156102ab57600080fd5b50600c546102bf906001600160a01b031681565b6040516001600160a01b039091168152602001610140565b3480156102e357600080fd5b506101e86102f2366004611c4a565b6111bc565b34801561030357600080fd5b506101816103123660046119f9565b611364565b34801561032357600080fd5b5061018160065481565b34801561033957600080fd5b5061034d6103483660046119f9565b61140f565b6040516101409493929190611cba565b34801561036957600080fd5b50600b546102bf906001600160a01b031681565b34801561038957600080fd5b5061015e6103983660046119f9565b611763565b60008181526003602052604081205460609182918190819081906001600160a01b0316806104085760405162461bcd60e51b815260206004820152601360248201527210d85b991a59185d19481b9bdd08199bdd5b99606a1b60448201526064015b60405180910390fd5b6001600160a01b03811660009081526001602081815260408084208151610100810183528154815293810154928401929092526002820180549184019161044e90611d38565b80601f016020809104026020016040519081016040528092919081815260200182805461047a90611d38565b80156104c75780601f1061049c576101008083540402835291602001916104c7565b820191906000526020600020905b8154815290600101906020018083116104aa57829003601f168201915b505050505081526020016003820180546104e090611d38565b80601f016020809104026020016040519081016040528092919081815260200182805461050c90611d38565b80156105595780601f1061052e57610100808354040283529160200191610559565b820191906000526020600020905b81548152906001019060200180831161053c57829003601f168201915b5050509183525050600482810154602080840191909152600584015460408085019190915260069094015460ff808216151560608087019190915261010090920481161515608090950194909452858501519086015160a08701518784015160e0909801516001600160a01b039a909a166000908152949093529490922054919e939d509b50929950939750921694509092505050565b6060600060085467ffffffffffffffff81111561060f5761060f611d6c565b604051908082528060200260200182016040528015610638578160200160208202803683370190505b509050600060015b600a548110156106b4576000818152600360205260409020546001600160a01b031680156106a1578084848151811061067b5761067b611d82565b6001600160a01b03909216602092830291909101909101528261069d81611dae565b9350505b50806106ac81611dae565b915050610640565b509092915050565b600b546000906001600160a01b031633146106e95760405162461bcd60e51b81526004016103ff90611dc7565b506000818152600360209081526040808320546001600160a01b031683526001909152902060060154610100900460ff165b919050565b6001600160a01b038816600090815260026020526040902054889060ff161561079d5760405162461bcd60e51b815260206004820152602960248201527f466f6c6c6f77696e672063616e64696461746520697320616c726561647920726044820152681959da5cdd195c995960ba1b60648201526084016103ff565b6107af84670de0b6b3a7640000611e15565b34146107f65760405162461bcd60e51b8152602060048201526016602482015275125b98dbdc9c9958dd0819195c1bdcda5d081cd95b9d60521b60448201526064016103ff565b6000604051806101000160405280600a5481526020018481526020018a8a8080601f016020809104026020016040519081016040528093929190818152602001838380828437600092019190915250505090825250604080516020601f8b0181900481028201810190925289815291810191908a908a908190840183828082843760009201919091525050509082525060200161089b87670de0b6b3a7640000611e15565b815260208082018790526000604080840182905260609093018190526001600160a01b038e16815260018083529083902084518155918401519082015590820151919250829160028201906108f09082611e7d565b50606082015160038201906109059082611e7d565b506080820151600482015560a0820151600582015560c08201516006909101805460e09093015115156101000261ff00199215159290921661ffff19909316929092171790556001600160a01b038a166000818152600260209081526040808320805460ff19166001179055600a805484526003909252822080546001600160a01b031916909317909255815461099b90611dae565b90915550600880546000906109af90611dae565b9190508190555034600960008282546109c89190611f3d565b90915550506040517f5ae54247677d0d0e4dbf3dadd494580e36b7ae8505c298f3bab0a83d985a573090610a01908c908c908c90611f50565b60405180910390a150505050505050505050565b6001600160a01b038216600090815260046020526040902054829060ff1615610a905760405162461bcd60e51b815260206004820152602760248201527f466f6c6c6f77696e672063616e64696461746520697320616c72656164792076604482015266195c9a599a595960ca1b60648201526084016103ff565b600054604051635fb3cd0760e11b815233600482018190529185916001600160a01b039091169063bf679a0e90602401602060405180830381865afa158015610add573d6000803e3d6000fd5b505050506040513d601f19601f82011682018060405250810190610b019190611f90565b8015610b9657506001600160a01b0381811660009081526001602081905260408083209091015491549051631cd4df1160e31b815285841660048201529192169063e6a6f88890602401600060405180830381865afa158015610b68573d6000803e3d6000fd5b505050506040513d6000823e601f3d908101601f19168201604052610b909190810190612007565b60400151145b610c165760405162461bcd60e51b815260206004820152604560248201527f43616e6e6f7420766572696679207468652063616e646964617465206173206260448201527f6f7468206172652066726f6d20646966666572656e7420636f6e7374697475656064820152646e6369657360d81b608482015260a4016103ff565b6001600160a01b03851660009081526001602052604090208415610cb95760068101805461ff001916610100871515021790556001600160a01b0386166000908152600460209081526040808320805460ff191660019081179091559091529081902090517fc90f9b2bc6a44f687eafc0e8e60625cd8a42e2ee375f37831621e009e336f46e91610cac91899160020190612155565b60405180910390a1610d0f565b6001600160a01b0386166000908152600160205260409081902090517fc90f9b2bc6a44f687eafc0e8e60625cd8a42e2ee375f37831621e009e336f46e91610d06918991600201906121c9565b60405180910390a15b505050505050565b60008060008060008060085467ffffffffffffffff811115610d3b57610d3b611d6c565b604051908082528060200260200182016040528015610d64578160200160208202803683370190505b509050600060015b600a54811015610e4c576000818152600360205260409020546001600160a01b03168015610e39576001600160a01b03811660009081526001602081905260408220015490805b85811015610df65782878281518110610dce57610dce611d82565b602002602001015103610de45760019150610df6565b80610dee81611dae565b915050610db3565b5080610e365781868681518110610e0f57610e0f611d82565b602090810291909101015284610e2481611dae565b9550508680610e3290611dae565b9750505b50505b5080610e4481611dae565b915050610d6c565b50600854610e58611928565b600954919990985093965094509192505050565b6001600160a01b03811660009081526002602052604081205460ff16610ee25760405162461bcd60e51b815260206004820152602560248201527f41646472657373206973206e6f74206120726567697374657265642063616e64604482015264696461746560d81b60648201526084016103ff565b506001600160a01b031660009081526001602052604090205490565b600054604051634e1f6af960e11b81523360048201526001600160a01b0390911690639c3ed5f290602401602060405180830381865afa158015610f46573d6000803e3d6000fd5b505050506040513d601f19601f82011682018060405250810190610f6a9190611f90565b610fd15760405162461bcd60e51b815260206004820152603260248201527f4f6e6c7920456c656374696f6e20436f6d6d697373696f6e65722063616e207060448201527132b93337b936903a3434b99030b1ba34b7b760711b60648201526084016103ff565b6001600160a01b03811660009081526002602052604090205460ff1661102f5760405162461bcd60e51b815260206004820152601360248201527210d85b991a59185d19481b9bdd08199bdd5b99606a1b60448201526064016103ff565b6001600160a01b0381166000908152600160205260409020600401548015611089576040516001600160a01b0383169082156108fc029083906000818181858888f19350505050158015611087573d6000803e3d6000fd5b505b6001600160a01b03821660009081526001602081905260408220805483825591810183905590916110bd60028301826119a3565b6110cb6003830160006119a3565b5060006004828101829055600583018290556006909201805461ffff191690556001600160a01b0385168152600260209081526040808320805460ff1990811690915593825280832080549094169093558382526003905290812080546001600160a01b031916905560088054916111428361222b565b919050555081600960008282546111599190612242565b9091555050505050565b600b546000906001600160a01b031633146111905760405162461bcd60e51b81526004016103ff90611dc7565b506000908152600360209081526040808320546001600160a01b03168352600191829052909120015490565b6000546001600160a01b03166112145760405162461bcd60e51b815260206004820152601d60248201527f456c656374696f6e4f666669636572206e6f7420636f6e6e656374656400000060448201526064016103ff565b60008054604051634e1f6af960e11b81523360048201526001600160a01b0390911690639c3ed5f290602401602060405180830381865afa15801561125d573d6000803e3d6000fd5b505050506040513d601f19601f820116820180604052508101906112819190611f90565b9050806112e85760405162461bcd60e51b815260206004820152602f60248201527f4f6e6c792074686520456c656374696f6e20436f6d6d697373696f6e6572206360448201526e616e20706572666f726d207468697360881b60648201526084016103ff565b600b546001600160a01b0316156113385760405162461bcd60e51b8152602060048201526014602482015273115b1958dd1a5bdb88185b1c9958591e481cd95d60621b60448201526064016103ff565b50600b80546001600160a01b039092166001600160a01b0319928316179055600c805490911633179055565b60008060015b600a54811015611408576000818152600360205260409020546001600160a01b031680158015906113b657506001600160a01b0381166000908152600160208190526040909120015485145b80156113e257506001600160a01b038116600090815260016020526040902060060154610100900460ff165b156113f557826113f181611dae565b9350505b508061140081611dae565b91505061136a565b5092915050565b606080606080600061142086611763565b90506000815167ffffffffffffffff81111561143e5761143e611d6c565b60405190808252806020026020018201604052801561147157816020015b606081526020019060019003908161145c5790505b5090506000825167ffffffffffffffff81111561149057611490611d6c565b6040519080825280602002602001820160405280156114c357816020015b60608152602001906001900390816114ae5790505b5090506000835167ffffffffffffffff8111156114e2576114e2611d6c565b60405190808252806020026020018201604052801561150b578160200160208202803683370190505b50905060005b84518110156117535760006001600087848151811061153257611532611d82565b60200260200101516001600160a01b03166001600160a01b0316815260200190815260200160002060405180610100016040529081600082015481526020016001820154815260200160028201805461158a90611d38565b80601f01602080910402602001604051908101604052809291908181526020018280546115b690611d38565b80156116035780601f106115d857610100808354040283529160200191611603565b820191906000526020600020905b8154815290600101906020018083116115e657829003601f168201915b5050505050815260200160038201805461161c90611d38565b80601f016020809104026020016040519081016040528092919081815260200182805461164890611d38565b80156116955780601f1061166a57610100808354040283529160200191611695565b820191906000526020600020905b81548152906001019060200180831161167857829003601f168201915b505050918352505060048201546020820152600582015460408083019190915260069092015460ff808216151560608401526101009091041615156080909101528101518651919250908690849081106116f1576116f1611d82565b6020026020010181905250806060015184838151811061171357611713611d82565b60200260200101819052508060a0015183838151811061173557611735611d82565b6020908102919091010152508061174b81611dae565b915050611511565b5092989197509550909350915050565b6060600060015b600a54811015611808576000818152600360205260409020546001600160a01b031680158015906117b657506001600160a01b0381166000908152600160208190526040909120015485145b80156117e257506001600160a01b038116600090815260016020526040902060060154610100900460ff165b156117f557826117f181611dae565b9350505b508061180081611dae565b91505061176a565b5060008167ffffffffffffffff81111561182457611824611d6c565b60405190808252806020026020018201604052801561184d578160200160208202803683370190505b509050600060015b600a5481101561191e576000818152600360205260409020546001600160a01b031680158015906118a157506001600160a01b0381166000908152600160208190526040909120015487145b80156118cd57506001600160a01b038116600090815260016020526040902060060154610100900460ff165b1561190b57808484815181106118e5576118e5611d82565b6001600160a01b03909216602092830291909101909101528261190781611dae565b9350505b508061191681611dae565b915050611855565b5090949350505050565b60008060015b600a5481101561199d576000818152600360205260409020546001600160a01b0316801580159061197757506001600160a01b03811660009081526004602052604090205460ff165b1561198a578261198681611dae565b9350505b508061199581611dae565b91505061192e565b50919050565b5080546119af90611d38565b6000825580601f106119bf575050565b601f0160209004906000526020600020908101906119dd91906119e0565b50565b5b808211156119f557600081556001016119e1565b5090565b600060208284031215611a0b57600080fd5b5035919050565b60005b83811015611a2d578181015183820152602001611a15565b50506000910152565b60008151808452611a4e816020860160208601611a12565b601f01601f19169290920160200192915050565b60c081526000611a7560c0830189611a36565b8281036020840152611a878189611a36565b6040840197909752505060608101939093529015156080830152151560a09091015292915050565b600081518084526020808501945080840160005b83811015611ae85781516001600160a01b031687529582019590820190600101611ac3565b509495945050505050565b602081526000611b066020830184611aaf565b9392505050565b80356001600160a01b038116811461071b57600080fd5b60008083601f840112611b3657600080fd5b50813567ffffffffffffffff811115611b4e57600080fd5b602083019150836020828501011115611b6657600080fd5b9250929050565b60008060008060008060008060c0898b031215611b8957600080fd5b611b9289611b0d565b9750602089013567ffffffffffffffff80821115611baf57600080fd5b611bbb8c838d01611b24565b909950975060408b0135915080821115611bd457600080fd5b50611be18b828c01611b24565b999c989b5096999698976060880135976080810135975060a0013595509350505050565b80151581146119dd57600080fd5b60008060408385031215611c2657600080fd5b611c2f83611b0d565b91506020830135611c3f81611c05565b809150509250929050565b600060208284031215611c5c57600080fd5b611b0682611b0d565b600081518084526020808501808196508360051b8101915082860160005b85811015611cad578284038952611c9b848351611a36565b98850198935090840190600101611c83565b5091979650505050505050565b608081526000611ccd6080830187611aaf565b602083820381850152611ce08288611c65565b91508382036040850152611cf48287611c65565b8481036060860152855180825282870193509082019060005b81811015611d2957845183529383019391830191600101611d0d565b50909998505050505050505050565b600181811c90821680611d4c57607f821691505b60208210810361199d57634e487b7160e01b600052602260045260246000fd5b634e487b7160e01b600052604160045260246000fd5b634e487b7160e01b600052603260045260246000fd5b634e487b7160e01b600052601160045260246000fd5b600060018201611dc057611dc0611d98565b5060010190565b6020808252602e908201527f546869732063616e2062652063616c6c6564206f6e6c792066726f6d2047656e60408201526d6572616c20456c656374696f6e7360901b606082015260800190565b8082028115828204841417611e2c57611e2c611d98565b92915050565b601f821115611e7857600081815260208120601f850160051c81016020861015611e595750805b601f850160051c820191505b81811015610d0f57828155600101611e65565b505050565b815167ffffffffffffffff811115611e9757611e97611d6c565b611eab81611ea58454611d38565b84611e32565b602080601f831160018114611ee05760008415611ec85750858301515b600019600386901b1c1916600185901b178555610d0f565b600085815260208120601f198616915b82811015611f0f57888601518255948401946001909101908401611ef0565b5085821015611f2d5787850151600019600388901b60f8161c191681555b5050505050600190811b01905550565b80820180821115611e2c57611e2c611d98565b6001600160a01b03841681526040602082018190528101829052818360608301376000818301606090810191909152601f909201601f1916010192915050565b600060208284031215611fa257600080fd5b8151611b0681611c05565b6040516060810167ffffffffffffffff81118282101715611fd057611fd0611d6c565b60405290565b604051601f8201601f1916810167ffffffffffffffff81118282101715611fff57611fff611d6c565b604052919050565b6000602080838503121561201a57600080fd5b825167ffffffffffffffff8082111561203257600080fd5b908401906060828703121561204657600080fd5b61204e611fad565b82518281111561205d57600080fd5b8301601f8101881361206e57600080fd5b80518381111561208057612080611d6c565b612092601f8201601f19168701611fd6565b935080845288868284010111156120a857600080fd5b6120b781878601888501611a12565b50509081528183015192810192909252604090810151908201529392505050565b600081546120e581611d38565b808552602060018381168015612102576001811461211c5761214a565b60ff1985168884015283151560051b88018301955061214a565b866000528260002060005b858110156121425781548a8201860152908301908401612127565b890184019650505b505050505092915050565b6001600160a01b0383168152606060208201819052600090612179908301846120d8565b8281036040840152602781527f546869732063616e6469646174652063616e207375636365737366756c6c792060208201526618dbdb9d195cdd60ca1b6040820152606081019150509392505050565b6001600160a01b03831681526060602082018190526000906121ed908301846120d8565b828103604093840152601d81527f546869732063616e6469646174652063616e6e6f7420636f6e746573740000006020820152919091019392505050565b60008161223a5761223a611d98565b506000190190565b81810381811115611e2c57611e2c611d9856fea26469706673582212207396e58556aa4b4076054170885eefdf4216a03f5352646bbced2f7483887bdc64736f6c63430008140033",
  "linkReferences": {},
  "deployedLinkReferences": {}
}