{
  "_format": "hh-sol-artifact-1",
  "contractName": "Candidate",
  "sourceName": "voting_contracts/Candidate.sol",
  "abi": [
    {
      "inputs": [
        {
          "internalType": "address",
          "name": "_electionOfficerAddr",
          "type": "address"
        }
      ],
      "stateMutability": "nonpayable",
      "type": "constructor"
    },
    {
      "anonymous": false,
      "inputs": [
        {
          "indexed": false,
          "internalType": "address",
          "name": "candidateAddress",
          "type": "address"
        },
        {
          "indexed": false,
          "internalType": "string",
          "name": "name",
          "type": "string"
        },
        {
          "indexed": false,
          "internalType": "string",
          "name": "decision",
          "type": "string"
        }
      ],
      "name": "successfulContestant",
      "type": "event"
    },
    {
      "anonymous": false,
      "inputs": [
        {
          "indexed": false,
          "internalType": "address",
          "name": "candidateAddr",
          "type": "address"
        },
        {
          "indexed": false,
          "internalType": "string",
          "name": "candidateName",
          "type": "string"
        }
      ],
      "name": "successfulRegistration",
      "type": "event"
    },
    {
      "inputs": [
        {
          "internalType": "address",
          "name": "candidateAddress",
          "type": "address"
        },
        {
          "internalType": "string",
          "name": "name",
          "type": "string"
        },
        {
          "internalType": "string",
          "name": "politicalParty",
          "type": "string"
        },
        {
          "internalType": "uint256",
          "name": "securityDepositInEthers",
          "type": "uint256"
        },
        {
          "internalType": "uint256",
          "name": "age",
          "type": "uint256"
        },
        {
          "internalType": "uint256",
          "name": "constituencyId",
          "type": "uint256"
        }
      ],
      "name": "candidateRegistration",
      "outputs": [],
      "stateMutability": "payable",
      "type": "function"
    },
    {
      "inputs": [
        {
          "internalType": "address",
          "name": "_candidateAddress",
          "type": "address"
        },
        {
          "internalType": "bool",
          "name": "decision",
          "type": "bool"
        }
      ],
      "name": "candidateVerification",
      "outputs": [],
      "stateMutability": "nonpayable",
      "type": "function"
    },
    {
      "inputs": [],
      "name": "electionCommission",
      "outputs": [
        {
          "internalType": "address",
          "name": "",
          "type": "address"
        }
      ],
      "stateMutability": "view",
      "type": "function"
    },
    {
      "inputs": [
        {
          "internalType": "address",
          "name": "_candidateAddress",
          "type": "address"
        }
      ],
      "name": "emergencyRemoveCandidate",
      "outputs": [],
      "stateMutability": "nonpayable",
      "type": "function"
    },
    {
      "inputs": [],
      "name": "gElect",
      "outputs": [
        {
          "internalType": "address",
          "name": "",
          "type": "address"
        }
      ],
      "stateMutability": "view",
      "type": "function"
    },
    {
      "inputs": [],
      "name": "getAllCandidates",
      "outputs": [
        {
          "internalType": "address[]",
          "name": "",
          "type": "address[]"
        }
      ],
      "stateMutability": "view",
      "type": "function"
    },
    {
      "inputs": [
        {
          "internalType": "uint256",
          "name": "_candidateId",
          "type": "uint256"
        }
      ],
      "name": "getCandidateConstituency",
      "outputs": [
        {
          "internalType": "uint256",
          "name": "",
          "type": "uint256"
        }
      ],
      "stateMutability": "view",
      "type": "function"
    },
    {
      "inputs": [
        {
          "internalType": "uint256",
          "name": "_candidateId",
          "type": "uint256"
        }
      ],
      "name": "getCandidateDetails",
      "outputs": [
        {
          "internalType": "string",
          "name": "name",
          "type": "string"
        },
        {
          "internalType": "string",
          "name": "politicalParty",
          "type": "string"
        },
        {
          "internalType": "uint256",
          "name": "age",
          "type": "uint256"
        },
        {
          "internalType": "uint256",
          "name": "constituencyId",
          "type": "uint256"
        },
        {
          "internalType": "bool",
          "name": "canContest",
          "type": "bool"
        },
        {
          "internalType": "bool",
          "name": "isVerified",
          "type": "bool"
        }
      ],
      "stateMutability": "view",
      "type": "function"
    },
    {
      "inputs": [
        {
          "internalType": "address",
          "name": "_candidateAddress",
          "type": "address"
        }
      ],
      "name": "getCandidateIdByAddress",
      "outputs": [
        {
          "internalType": "uint256",
          "name": "",
          "type": "uint256"
        }
      ],
      "stateMutability": "view",
      "type": "function"
    },
    {
      "inputs": [],
      "name": "getCandidateStatistics",
      "outputs": [
        {
          "internalType": "uint256",
          "name": "totalRegistered",
          "type": "uint256"
        },
        {
          "internalType": "uint256",
          "name": "totalVerified",
          "type": "uint256"
        },
        {
          "internalType": "uint256",
          "name": "totalConstituencies",
          "type": "uint256"
        },
        {
          "internalType": "uint256",
          "name": "totalDepositsCollected",
          "type": "uint256"
        }
      ],
      "stateMutability": "view",
      "type": "function"
    },
    {
      "inputs": [
        {
          "internalType": "uint256",
          "name": "_constituencyId",
          "type": "uint256"
        }
      ],
      "name": "getCandidatesByConstituency",
      "outputs": [
        {
          "internalType": "address[]",
          "name": "",
          "type": "address[]"
        }
      ],
      "stateMutability": "view",
      "type": "function"
    },
    {
      "inputs": [
        {
          "internalType": "uint256",
          "name": "_constituencyId",
          "type": "uint256"
        }
      ],
      "name": "getConstituencyCandidates",
      "outputs": [
        {
          "internalType": "address[]",
          "name": "candidateAddresses",
          "type": "address[]"
        },
        {
          "internalType": "string[]",
          "name": "names",
          "type": "string[]"
        },
        {
          "internalType": "string[]",
          "name": "politicalParties",
          "type": "string[]"
        },
        {
          "internalType": "uint256[]",
          "name": "ages",
          "type": "uint256[]"
        }
      ],
      "stateMutability": "view",
      "type": "function"
    },
    {
      "inputs": [
        {
          "internalType": "uint256",
          "name": "_constituencyId",
          "type": "uint256"
        }
      ],
      "name": "getTotalCandidatesByConstituency",
      "outputs": [
        {
          "internalType": "uint256",
          "name": "",
          "type": "uint256"
        }
      ],
      "stateMutability": "view",
      "type": "function"
    },
    {
      "inputs": [
        {
          "internalType": "uint256",
          "name": "_candidateId",
          "type": "uint256"
        }
      ],
      "name": "isCandidateAllowedToContest",
      "outputs": [
        {
          "internalType": "bool",
          "name": "",
          "type": "bool"
        }
      ],
      "stateMutability": "view",
      "type": "function"
    },
    {
      "inputs": [],
      "name": "regEnd",
      "outputs": [
        {
          "internalType": "uint256",
          "name": "",
          "type": "uint256"
        }
      ],
      "stateMutability": "view",
      "type": "function"
    },
    {
      "inputs": [],
      "name": "regStart",
      "outputs": [
        {
          "internalType": "uint256",
          "name": "",
          "type": "uint256"
        }
      ],
      "stateMutability": "view",
      "type": "function"
    },
    {
      "inputs": [
        {
          "internalType": "address",
          "name": "_generalElection",
          "type": "address"
        }
      ],
      "name": "setGeneralElection",
      "outputs": [],
      "stateMutability": "nonpayable",
      "type": "function"
    },
    {
      "inputs": [],
      "name": "totalCandidates",
      "outputs": [
        {
          "internalType": "uint256",
          "name": "",
          "type": "uint256"
        }
      ],
      "stateMutability": "view",
      "type": "function"
    }
  ],
  "bytecode": "0x608060405260006008556001600a553480156200001b57600080fd5b50604051620023ce380380620023ce8339810160408190526200003e916200007c565b426006819055620000539062093a80620000ae565b600755600080546001600160a01b0319166001600160a01b0392909216919091179055620000d6565b6000602082840312156200008f57600080fd5b81516001600160a01b0381168114620000a757600080fd5b9392505050565b80820180821115620000d057634e487b7160e01b600052601160045260246000fd5b92915050565b6122e880620000e66000396000f3fe6080604052600436106101095760003560e01c8063745cef4411610095578063da6085c811610064578063da6085c8146102f7578063e89f012914610317578063ea417a2f1461032d578063eac085d71461035d578063f9ed80671461037d57600080fd5b8063745cef441461025f578063a12963041461027f578063aab46b7f1461029f578063c3495b34146102d757600080fd5b806345cb0584116100dc57806345cb0584146101bf57806345d7c1e2146101d55780635ed0f33d146101ea57806363873d971461020a578063683e2f261461023f57600080fd5b806327f9fd501461010e5780632e6997fe146101495780633866965c1461016b5780633d33a00e1461018f575b600080fd5b34801561011a57600080fd5b5061012e610129366004611a56565b61039d565b60405161014096959493929190611abf565b60405180910390f35b34801561015557600080fd5b5061015e6105f0565b6040516101409190611b50565b34801561017757600080fd5b5061018160085481565b604051908152602001610140565b34801561019b57600080fd5b506101af6101aa366004611a56565b6106bc565b6040519015158152602001610140565b3480156101cb57600080fd5b5061018160075481565b6101e86101e3366004611bca565b610720565b005b3480156101f657600080fd5b506101e8610205366004611c70565b610a15565b34801561021657600080fd5b5061021f610d74565b604080519485526020850193909352918301526060820152608001610140565b34801561024b57600080fd5b5061018161025a366004611ca7565b610ec9565b34801561026b57600080fd5b506101e861027a366004611ca7565b610f5b565b34801561028b57600080fd5b5061018161029a366004611a56565b6111c0565b3480156102ab57600080fd5b50600c546102bf906001600160a01b031681565b6040516001600160a01b039091168152602001610140565b3480156102e357600080fd5b506101e86102f2366004611ca7565b611219565b34801561030357600080fd5b50610181610312366004611a56565b6113c1565b34801561032357600080fd5b5061018160065481565b34801561033957600080fd5b5061034d610348366004611a56565b61146c565b6040516101409493929190611d17565b34801561036957600080fd5b50600b546102bf906001600160a01b031681565b34801561038957600080fd5b5061015e610398366004611a56565b6117c0565b60008181526003602052604081205460609182918190819081906001600160a01b0316806104085760405162461bcd60e51b815260206004820152601360248201527210d85b991a59185d19481b9bdd08199bdd5b99606a1b60448201526064015b60405180910390fd5b6001600160a01b03811660009081526001602081815260408084208151610100810183528154815293810154928401929092526002820180549184019161044e90611d95565b80601f016020809104026020016040519081016040528092919081815260200182805461047a90611d95565b80156104c75780601f1061049c576101008083540402835291602001916104c7565b820191906000526020600020905b8154815290600101906020018083116104aa57829003601f168201915b505050505081526020016003820180546104e090611d95565b80601f016020809104026020016040519081016040528092919081815260200182805461050c90611d95565b80156105595780601f1061052e57610100808354040283529160200191610559565b820191906000526020600020905b81548152906001019060200180831161053c57829003601f168201915b5050509183525050600482810154602080840191909152600584015460408085019190915260069094015460ff808216151560608087019190915261010090920481161515608090950194909452858501519086015160a08701518784015160e0909801516001600160a01b039a909a166000908152949093529490922054919e939d509b50929950939750921694509092505050565b6060600060085467ffffffffffffffff81111561060f5761060f611dc9565b604051908082528060200260200182016040528015610638578160200160208202803683370190505b509050600060015b600a548110156106b4576000818152600360205260409020546001600160a01b031680156106a1578084848151811061067b5761067b611ddf565b6001600160a01b03909216602092830291909101909101528261069d81611e0b565b9350505b50806106ac81611e0b565b915050610640565b509092915050565b600b546000906001600160a01b031633146106e95760405162461bcd60e51b81526004016103ff90611e24565b506000818152600360209081526040808320546001600160a01b031683526001909152902060060154610100900460ff165b919050565b6001600160a01b038816600090815260026020526040902054889060ff161561079d5760405162461bcd60e51b815260206004820152602960248201527f466f6c6c6f77696e672063616e64696461746520697320616c726561647920726044820152681959da5cdd195c995960ba1b60648201526084016103ff565b6107af84670de0b6b3a7640000611e72565b34146107f65760405162461bcd60e51b8152602060048201526016602482015275125b98dbdc9c9958dd0819195c1bdcda5d081cd95b9d60521b60448201526064016103ff565b6000604051806101000160405280600a5481526020018481526020018a8a8080601f016020809104026020016040519081016040528093929190818152602001838380828437600092019190915250505090825250604080516020601f8b0181900481028201810190925289815291810191908a908a908190840183828082843760009201919091525050509082525060200161089b87670de0b6b3a7640000611e72565b815260208082018790526000604080840182905260609093018190526001600160a01b038e16815260018083529083902084518155918401519082015590820151919250829160028201906108f09082611eda565b50606082015160038201906109059082611eda565b506080820151600482015560a0820151600582015560c08201516006909101805460e09093015115156101000261ff00199215159290921661ffff19909316929092171790556001600160a01b038a166000818152600260209081526040808320805460ff19166001179055600a805484526003909252822080546001600160a01b031916909317909255815461099b90611e0b565b90915550600880546000906109af90611e0b565b9190508190555034600960008282546109c89190611f9a565b90915550506040517f5ae54247677d0d0e4dbf3dadd494580e36b7ae8505c298f3bab0a83d985a573090610a01908c908c908c90611fad565b60405180910390a150505050505050505050565b600754421115610a725760405162461bcd60e51b815260206004820152602260248201527f526567697374726174696f6e20706572696f6420697320616c72656479206f7660448201526132b960f11b60648201526084016103ff565b6001600160a01b038216600090815260046020526040902054829060ff1615610aed5760405162461bcd60e51b815260206004820152602760248201527f466f6c6c6f77696e672063616e64696461746520697320616c72656164792076604482015266195c9a599a595960ca1b60648201526084016103ff565b600054604051635fb3cd0760e11b815233600482018190529185916001600160a01b039091169063bf679a0e90602401602060405180830381865afa158015610b3a573d6000803e3d6000fd5b505050506040513d601f19601f82011682018060405250810190610b5e9190611fed565b8015610bf357506001600160a01b0381811660009081526001602081905260408083209091015491549051631cd4df1160e31b815285841660048201529192169063e6a6f88890602401600060405180830381865afa158015610bc5573d6000803e3d6000fd5b505050506040513d6000823e601f3d908101601f19168201604052610bed9190810190612064565b60400151145b610c735760405162461bcd60e51b815260206004820152604560248201527f43616e6e6f7420766572696679207468652063616e646964617465206173206260448201527f6f7468206172652066726f6d20646966666572656e7420636f6e7374697475656064820152646e6369657360d81b608482015260a4016103ff565b6001600160a01b03851660009081526001602052604090208415610d165760068101805461ff001916610100871515021790556001600160a01b0386166000908152600460209081526040808320805460ff191660019081179091559091529081902090517fc90f9b2bc6a44f687eafc0e8e60625cd8a42e2ee375f37831621e009e336f46e91610d09918991600201906121b2565b60405180910390a1610d6c565b6001600160a01b0386166000908152600160205260409081902090517fc90f9b2bc6a44f687eafc0e8e60625cd8a42e2ee375f37831621e009e336f46e91610d6391899160020190612226565b60405180910390a15b505050505050565b60008060008060008060085467ffffffffffffffff811115610d9857610d98611dc9565b604051908082528060200260200182016040528015610dc1578160200160208202803683370190505b509050600060015b600a54811015610ea9576000818152600360205260409020546001600160a01b03168015610e96576001600160a01b03811660009081526001602081905260408220015490805b85811015610e535782878281518110610e2b57610e2b611ddf565b602002602001015103610e415760019150610e53565b80610e4b81611e0b565b915050610e10565b5080610e935781868681518110610e6c57610e6c611ddf565b602090810291909101015284610e8181611e0b565b9550508680610e8f90611e0b565b9750505b50505b5080610ea181611e0b565b915050610dc9565b50600854610eb5611985565b600954919990985093965094509192505050565b6001600160a01b03811660009081526002602052604081205460ff16610f3f5760405162461bcd60e51b815260206004820152602560248201527f41646472657373206973206e6f74206120726567697374657265642063616e64604482015264696461746560d81b60648201526084016103ff565b506001600160a01b031660009081526001602052604090205490565b600054604051634e1f6af960e11b81523360048201526001600160a01b0390911690639c3ed5f290602401602060405180830381865afa158015610fa3573d6000803e3d6000fd5b505050506040513d601f19601f82011682018060405250810190610fc79190611fed565b61102e5760405162461bcd60e51b815260206004820152603260248201527f4f6e6c7920456c656374696f6e20436f6d6d697373696f6e65722063616e207060448201527132b93337b936903a3434b99030b1ba34b7b760711b60648201526084016103ff565b6001600160a01b03811660009081526002602052604090205460ff1661108c5760405162461bcd60e51b815260206004820152601360248201527210d85b991a59185d19481b9bdd08199bdd5b99606a1b60448201526064016103ff565b6001600160a01b03811660009081526001602052604090206004015480156110e6576040516001600160a01b0383169082156108fc029083906000818181858888f193505050501580156110e4573d6000803e3d6000fd5b505b6001600160a01b038216600090815260016020819052604082208054838255918101839055909161111a6002830182611a00565b611128600383016000611a00565b5060006004828101829055600583018290556006909201805461ffff191690556001600160a01b0385168152600260209081526040808320805460ff1990811690915593825280832080549094169093558382526003905290812080546001600160a01b0319169055600880549161119f83612288565b919050555081600960008282546111b6919061229f565b9091555050505050565b600b546000906001600160a01b031633146111ed5760405162461bcd60e51b81526004016103ff90611e24565b506000908152600360209081526040808320546001600160a01b03168352600191829052909120015490565b6000546001600160a01b03166112715760405162461bcd60e51b815260206004820152601d60248201527f456c656374696f6e4f666669636572206e6f7420636f6e6e656374656400000060448201526064016103ff565b60008054604051634e1f6af960e11b81523360048201526001600160a01b0390911690639c3ed5f290602401602060405180830381865afa1580156112ba573d6000803e3d6000fd5b505050506040513d601f19601f820116820180604052508101906112de9190611fed565b9050806113455760405162461bcd60e51b815260206004820152602f60248201527f4f6e6c792074686520456c656374696f6e20436f6d6d697373696f6e6572206360448201526e616e20706572666f726d207468697360881b60648201526084016103ff565b600b546001600160a01b0316156113955760405162461bcd60e51b8152602060048201526014602482015273115b1958dd1a5bdb88185b1c9958591e481cd95d60621b60448201526064016103ff565b50600b80546001600160a01b039092166001600160a01b0319928316179055600c805490911633179055565b60008060015b600a54811015611465576000818152600360205260409020546001600160a01b0316801580159061141357506001600160a01b0381166000908152600160208190526040909120015485145b801561143f57506001600160a01b038116600090815260016020526040902060060154610100900460ff165b15611452578261144e81611e0b565b9350505b508061145d81611e0b565b9150506113c7565b5092915050565b606080606080600061147d866117c0565b90506000815167ffffffffffffffff81111561149b5761149b611dc9565b6040519080825280602002602001820160405280156114ce57816020015b60608152602001906001900390816114b95790505b5090506000825167ffffffffffffffff8111156114ed576114ed611dc9565b60405190808252806020026020018201604052801561152057816020015b606081526020019060019003908161150b5790505b5090506000835167ffffffffffffffff81111561153f5761153f611dc9565b604051908082528060200260200182016040528015611568578160200160208202803683370190505b50905060005b84518110156117b05760006001600087848151811061158f5761158f611ddf565b60200260200101516001600160a01b03166001600160a01b031681526020019081526020016000206040518061010001604052908160008201548152602001600182015481526020016002820180546115e790611d95565b80601f016020809104026020016040519081016040528092919081815260200182805461161390611d95565b80156116605780601f1061163557610100808354040283529160200191611660565b820191906000526020600020905b81548152906001019060200180831161164357829003601f168201915b5050505050815260200160038201805461167990611d95565b80601f01602080910402602001604051908101604052809291908181526020018280546116a590611d95565b80156116f25780601f106116c7576101008083540402835291602001916116f2565b820191906000526020600020905b8154815290600101906020018083116116d557829003601f168201915b505050918352505060048201546020820152600582015460408083019190915260069092015460ff8082161515606084015261010090910416151560809091015281015186519192509086908490811061174e5761174e611ddf565b6020026020010181905250806060015184838151811061177057611770611ddf565b60200260200101819052508060a0015183838151811061179257611792611ddf565b602090810291909101015250806117a881611e0b565b91505061156e565b5092989197509550909350915050565b6060600060015b600a54811015611865576000818152600360205260409020546001600160a01b0316801580159061181357506001600160a01b0381166000908152600160208190526040909120015485145b801561183f57506001600160a01b038116600090815260016020526040902060060154610100900460ff165b15611852578261184e81611e0b565b9350505b508061185d81611e0b565b9150506117c7565b5060008167ffffffffffffffff81111561188157611881611dc9565b6040519080825280602002602001820160405280156118aa578160200160208202803683370190505b509050600060015b600a5481101561197b576000818152600360205260409020546001600160a01b031680158015906118fe57506001600160a01b0381166000908152600160208190526040909120015487145b801561192a57506001600160a01b038116600090815260016020526040902060060154610100900460ff165b15611968578084848151811061194257611942611ddf565b6001600160a01b03909216602092830291909101909101528261196481611e0b565b9350505b508061197381611e0b565b9150506118b2565b5090949350505050565b60008060015b600a548110156119fa576000818152600360205260409020546001600160a01b031680158015906119d457506001600160a01b03811660009081526004602052604090205460ff165b156119e757826119e381611e0b565b9350505b50806119f281611e0b565b91505061198b565b50919050565b508054611a0c90611d95565b6000825580601f10611a1c575050565b601f016020900490600052602060002090810190611a3a9190611a3d565b50565b5b80821115611a525760008155600101611a3e565b5090565b600060208284031215611a6857600080fd5b5035919050565b60005b83811015611a8a578181015183820152602001611a72565b50506000910152565b60008151808452611aab816020860160208601611a6f565b601f01601f19169290920160200192915050565b60c081526000611ad260c0830189611a93565b8281036020840152611ae48189611a93565b6040840197909752505060608101939093529015156080830152151560a09091015292915050565b600081518084526020808501945080840160005b83811015611b455781516001600160a01b031687529582019590820190600101611b20565b509495945050505050565b602081526000611b636020830184611b0c565b9392505050565b80356001600160a01b038116811461071b57600080fd5b60008083601f840112611b9357600080fd5b50813567ffffffffffffffff811115611bab57600080fd5b602083019150836020828501011115611bc357600080fd5b9250929050565b60008060008060008060008060c0898b031215611be657600080fd5b611bef89611b6a565b9750602089013567ffffffffffffffff80821115611c0c57600080fd5b611c188c838d01611b81565b909950975060408b0135915080821115611c3157600080fd5b50611c3e8b828c01611b81565b999c989b5096999698976060880135976080810135975060a0013595509350505050565b8015158114611a3a57600080fd5b60008060408385031215611c8357600080fd5b611c8c83611b6a565b91506020830135611c9c81611c62565b809150509250929050565b600060208284031215611cb957600080fd5b611b6382611b6a565b600081518084526020808501808196508360051b8101915082860160005b85811015611d0a578284038952611cf8848351611a93565b98850198935090840190600101611ce0565b5091979650505050505050565b608081526000611d2a6080830187611b0c565b602083820381850152611d3d8288611cc2565b91508382036040850152611d518287611cc2565b8481036060860152855180825282870193509082019060005b81811015611d8657845183529383019391830191600101611d6a565b50909998505050505050505050565b600181811c90821680611da957607f821691505b6020821081036119fa57634e487b7160e01b600052602260045260246000fd5b634e487b7160e01b600052604160045260246000fd5b634e487b7160e01b600052603260045260246000fd5b634e487b7160e01b600052601160045260246000fd5b600060018201611e1d57611e1d611df5565b5060010190565b6020808252602e908201527f546869732063616e2062652063616c6c6564206f6e6c792066726f6d2047656e60408201526d6572616c20456c656374696f6e7360901b606082015260800190565b8082028115828204841417611e8957611e89611df5565b92915050565b601f821115611ed557600081815260208120601f850160051c81016020861015611eb65750805b601f850160051c820191505b81811015610d6c57828155600101611ec2565b505050565b815167ffffffffffffffff811115611ef457611ef4611dc9565b611f0881611f028454611d95565b84611e8f565b602080601f831160018114611f3d5760008415611f255750858301515b600019600386901b1c1916600185901b178555610d6c565b600085815260208120601f198616915b82811015611f6c57888601518255948401946001909101908401611f4d565b5085821015611f8a5787850151600019600388901b60f8161c191681555b5050505050600190811b01905550565b80820180821115611e8957611e89611df5565b6001600160a01b03841681526040602082018190528101829052818360608301376000818301606090810191909152601f909201601f1916010192915050565b600060208284031215611fff57600080fd5b8151611b6381611c62565b6040516060810167ffffffffffffffff8111828210171561202d5761202d611dc9565b60405290565b604051601f8201601f1916810167ffffffffffffffff8111828210171561205c5761205c611dc9565b604052919050565b6000602080838503121561207757600080fd5b825167ffffffffffffffff8082111561208f57600080fd5b90840190606082870312156120a357600080fd5b6120ab61200a565b8251828111156120ba57600080fd5b8301601f810188136120cb57600080fd5b8051838111156120dd576120dd611dc9565b6120ef601f8201601f19168701612033565b9350808452888682840101111561210557600080fd5b61211481878601888501611a6f565b50509081528183015192810192909252604090810151908201529392505050565b6000815461214281611d95565b80855260206001838116801561215f5760018114612179576121a7565b60ff1985168884015283151560051b8801830195506121a7565b866000528260002060005b8581101561219f5781548a8201860152908301908401612184565b890184019650505b505050505092915050565b6001600160a01b03831681526060602082018190526000906121d690830184612135565b8281036040840152602781527f546869732063616e6469646174652063616e207375636365737366756c6c792060208201526618dbdb9d195cdd60ca1b6040820152606081019150509392505050565b6001600160a01b038316815260606020820181905260009061224a90830184612135565b828103604093840152601d81527f546869732063616e6469646174652063616e6e6f7420636f6e746573740000006020820152919091019392505050565b60008161229757612297611df5565b506000190190565b81810381811115611e8957611e89611df556fea2646970667358221220f69b619e0673f92cff81790ad59a81ba907a5b908b5f2a86f0a287a12e0d03c064736f6c63430008140033",
  "linkReferences": {},
  "deployedLinkReferences": {}
}