{
  "_format": "hh-sol-artifact-1",
  "contractName": "Candidate",
  "sourceName": "voting_contracts/Candidate.sol",
  "abi": [
    {
      "inputs": [
        {
          "internalType": "address",
          "name": "_electionOfficerAddr",
          "type": "address"
        }
      ],
      "stateMutability": "nonpayable",
      "type": "constructor"
    },
    {
      "anonymous": false,
      "inputs": [
        {
          "indexed": false,
          "internalType": "address",
          "name": "candidateAddress",
          "type": "address"
        },
        {
          "indexed": false,
          "internalType": "string",
          "name": "name",
          "type": "string"
        },
        {
          "indexed": false,
          "internalType": "string",
          "name": "decision",
          "type": "string"
        }
      ],
      "name": "successfulContestant",
      "type": "event"
    },
    {
      "anonymous": false,
      "inputs": [
        {
          "indexed": false,
          "internalType": "address",
          "name": "candidateAddr",
          "type": "address"
        },
        {
          "indexed": false,
          "internalType": "string",
          "name": "candidateName",
          "type": "string"
        }
      ],
      "name": "successfulRegistration",
      "type": "event"
    },
    {
      "inputs": [
        {
          "internalType": "address",
          "name": "candidateAddress",
          "type": "address"
        },
        {
          "internalType": "string",
          "name": "name",
          "type": "string"
        },
        {
          "internalType": "string",
          "name": "politicalParty",
          "type": "string"
        },
        {
          "internalType": "uint256",
          "name": "securityDepositInEthers",
          "type": "uint256"
        },
        {
          "internalType": "uint256",
          "name": "age",
          "type": "uint256"
        },
        {
          "internalType": "uint256",
          "name": "constituencyId",
          "type": "uint256"
        }
      ],
      "name": "candidateRegistration",
      "outputs": [],
      "stateMutability": "payable",
      "type": "function"
    },
    {
      "inputs": [
        {
          "internalType": "address",
          "name": "_candidateAddress",
          "type": "address"
        },
        {
          "internalType": "bool",
          "name": "decision",
          "type": "bool"
        }
      ],
      "name": "candidateVerification",
      "outputs": [],
      "stateMutability": "nonpayable",
      "type": "function"
    },
    {
      "inputs": [],
      "name": "electionCommission",
      "outputs": [
        {
          "internalType": "address",
          "name": "",
          "type": "address"
        }
      ],
      "stateMutability": "view",
      "type": "function"
    },
    {
      "inputs": [
        {
          "internalType": "address",
          "name": "_candidateAddress",
          "type": "address"
        }
      ],
      "name": "emergencyRemoveCandidate",
      "outputs": [],
      "stateMutability": "nonpayable",
      "type": "function"
    },
    {
      "inputs": [],
      "name": "gElect",
      "outputs": [
        {
          "internalType": "address",
          "name": "",
          "type": "address"
        }
      ],
      "stateMutability": "view",
      "type": "function"
    },
    {
      "inputs": [],
      "name": "getAllCandidates",
      "outputs": [
        {
          "internalType": "address[]",
          "name": "",
          "type": "address[]"
        }
      ],
      "stateMutability": "view",
      "type": "function"
    },
    {
      "inputs": [
        {
          "internalType": "uint256",
          "name": "_candidateId",
          "type": "uint256"
        }
      ],
      "name": "getCandidateConstituency",
      "outputs": [
        {
          "internalType": "uint256",
          "name": "",
          "type": "uint256"
        }
      ],
      "stateMutability": "view",
      "type": "function"
    },
    {
      "inputs": [
        {
          "internalType": "uint256",
          "name": "_candidateId",
          "type": "uint256"
        }
      ],
      "name": "getCandidateDetails",
      "outputs": [
        {
          "internalType": "string",
          "name": "name",
          "type": "string"
        },
        {
          "internalType": "string",
          "name": "politicalParty",
          "type": "string"
        },
        {
          "internalType": "uint256",
          "name": "age",
          "type": "uint256"
        },
        {
          "internalType": "uint256",
          "name": "constituencyId",
          "type": "uint256"
        },
        {
          "internalType": "bool",
          "name": "canContest",
          "type": "bool"
        },
        {
          "internalType": "bool",
          "name": "isVerified",
          "type": "bool"
        }
      ],
      "stateMutability": "view",
      "type": "function"
    },
    {
      "inputs": [
        {
          "internalType": "address",
          "name": "_candidateAddress",
          "type": "address"
        }
      ],
      "name": "getCandidateIdByAddress",
      "outputs": [
        {
          "internalType": "uint256",
          "name": "",
          "type": "uint256"
        }
      ],
      "stateMutability": "view",
      "type": "function"
    },
    {
      "inputs": [],
      "name": "getCandidateStatistics",
      "outputs": [
        {
          "internalType": "uint256",
          "name": "totalRegistered",
          "type": "uint256"
        },
        {
          "internalType": "uint256",
          "name": "totalVerified",
          "type": "uint256"
        },
        {
          "internalType": "uint256",
          "name": "totalConstituencies",
          "type": "uint256"
        },
        {
          "internalType": "uint256",
          "name": "totalDepositsCollected",
          "type": "uint256"
        }
      ],
      "stateMutability": "view",
      "type": "function"
    },
    {
      "inputs": [
        {
          "internalType": "uint256",
          "name": "_constituencyId",
          "type": "uint256"
        }
      ],
      "name": "getCandidatesByConstituency",
      "outputs": [
        {
          "internalType": "address[]",
          "name": "",
          "type": "address[]"
        }
      ],
      "stateMutability": "view",
      "type": "function"
    },
    {
      "inputs": [
        {
          "internalType": "uint256",
          "name": "_constituencyId",
          "type": "uint256"
        }
      ],
      "name": "getConstituencyCandidates",
      "outputs": [
        {
          "internalType": "address[]",
          "name": "candidateAddresses",
          "type": "address[]"
        },
        {
          "internalType": "string[]",
          "name": "names",
          "type": "string[]"
        },
        {
          "internalType": "string[]",
          "name": "politicalParties",
          "type": "string[]"
        },
        {
          "internalType": "uint256[]",
          "name": "ages",
          "type": "uint256[]"
        }
      ],
      "stateMutability": "view",
      "type": "function"
    },
    {
      "inputs": [
        {
          "internalType": "uint256",
          "name": "_constituencyId",
          "type": "uint256"
        }
      ],
      "name": "getTotalCandidatesByConstituency",
      "outputs": [
        {
          "internalType": "uint256",
          "name": "",
          "type": "uint256"
        }
      ],
      "stateMutability": "view",
      "type": "function"
    },
    {
      "inputs": [
        {
          "internalType": "uint256",
          "name": "_candidateId",
          "type": "uint256"
        }
      ],
      "name": "isCandidateAllowedToContest",
      "outputs": [
        {
          "internalType": "bool",
          "name": "",
          "type": "bool"
        }
      ],
      "stateMutability": "view",
      "type": "function"
    },
    {
      "inputs": [],
      "name": "regEnd",
      "outputs": [
        {
          "internalType": "uint256",
          "name": "",
          "type": "uint256"
        }
      ],
      "stateMutability": "view",
      "type": "function"
    },
    {
      "inputs": [],
      "name": "regStart",
      "outputs": [
        {
          "internalType": "uint256",
          "name": "",
          "type": "uint256"
        }
      ],
      "stateMutability": "view",
      "type": "function"
    },
    {
      "inputs": [
        {
          "internalType": "address",
          "name": "candidateAddress",
          "type": "address"
        }
      ],
      "name": "removeCandidate",
      "outputs": [],
      "stateMutability": "nonpayable",
      "type": "function"
    },
    {
      "inputs": [
        {
          "internalType": "address",
          "name": "_generalElection",
          "type": "address"
        }
      ],
      "name": "setGeneralElection",
      "outputs": [],
      "stateMutability": "nonpayable",
      "type": "function"
    },
    {
      "inputs": [],
      "name": "totalCandidates",
      "outputs": [
        {
          "internalType": "uint256",
          "name": "",
          "type": "uint256"
        }
      ],
      "stateMutability": "view",
      "type": "function"
    }
  ],
  "bytecode": "0x608060405260006008556001600a553480156200001b57600080fd5b5060405162002840380380620028408339810160408190526200003e916200007c565b426006819055620000539062093a80620000ae565b600755600080546001600160a01b0319166001600160a01b0392909216919091179055620000d6565b6000602082840312156200008f57600080fd5b81516001600160a01b0381168114620000a757600080fd5b9392505050565b80820180821115620000d057634e487b7160e01b600052601160045260246000fd5b92915050565b61275a80620000e66000396000f3fe6080604052600436106101145760003560e01c80636dd091f9116100a0578063da6085c811610064578063da6085c814610322578063e89f012914610342578063ea417a2f14610358578063eac085d714610388578063f9ed8067146103a857600080fd5b80636dd091f91461026a578063745cef441461028a578063a1296304146102aa578063aab46b7f146102ca578063c3495b341461030257600080fd5b806345cb0584116100e757806345cb0584146101ca57806345d7c1e2146101e05780635ed0f33d146101f557806363873d9714610215578063683e2f261461024a57600080fd5b806327f9fd50146101195780632e6997fe146101545780633866965c146101765780633d33a00e1461019a575b600080fd5b34801561012557600080fd5b50610139610134366004611e4f565b6103c8565b60405161014b96959493929190611eb8565b60405180910390f35b34801561016057600080fd5b506101696105f9565b60405161014b9190611f49565b34801561018257600080fd5b5061018c60085481565b60405190815260200161014b565b3480156101a657600080fd5b506101ba6101b5366004611e4f565b6106c5565b604051901515815260200161014b565b3480156101d657600080fd5b5061018c60075481565b6101f36101ee366004611fc3565b610729565b005b34801561020157600080fd5b506101f3610210366004612069565b610a1e565b34801561022157600080fd5b5061022a610d20565b60408051948552602085019390935291830152606082015260800161014b565b34801561025657600080fd5b5061018c6102653660046120a0565b610e75565b34801561027657600080fd5b506101f36102853660046120a0565b610f07565b34801561029657600080fd5b506101f36102a53660046120a0565b61137a565b3480156102b657600080fd5b5061018c6102c5366004611e4f565b6115b9565b3480156102d657600080fd5b50600c546102ea906001600160a01b031681565b6040516001600160a01b03909116815260200161014b565b34801561030e57600080fd5b506101f361031d3660046120a0565b611612565b34801561032e57600080fd5b5061018c61033d366004611e4f565b6117ba565b34801561034e57600080fd5b5061018c60065481565b34801561036457600080fd5b50610378610373366004611e4f565b611865565b60405161014b9493929190612110565b34801561039457600080fd5b50600b546102ea906001600160a01b031681565b3480156103b457600080fd5b506101696103c3366004611e4f565b611bb9565b60008181526003602052604081205460609182918190819081906001600160a01b0316806104115760405162461bcd60e51b81526004016104089061218e565b60405180910390fd5b6001600160a01b038116600090815260016020818152604080842081516101008101835281548152938101549284019290925260028201805491840191610457906121bb565b80601f0160208091040260200160405190810160405280929190818152602001828054610483906121bb565b80156104d05780601f106104a5576101008083540402835291602001916104d0565b820191906000526020600020905b8154815290600101906020018083116104b357829003601f168201915b505050505081526020016003820180546104e9906121bb565b80601f0160208091040260200160405190810160405280929190818152602001828054610515906121bb565b80156105625780601f1061053757610100808354040283529160200191610562565b820191906000526020600020905b81548152906001019060200180831161054557829003601f168201915b5050509183525050600482810154602080840191909152600584015460408085019190915260069094015460ff808216151560608087019190915261010090920481161515608090950194909452858501519086015160a08701518784015160e0909801516001600160a01b039a909a166000908152949093529490922054919e939d509b50929950939750921694509092505050565b6060600060085467ffffffffffffffff811115610618576106186121ef565b604051908082528060200260200182016040528015610641578160200160208202803683370190505b509050600060015b600a548110156106bd576000818152600360205260409020546001600160a01b031680156106aa578084848151811061068457610684612205565b6001600160a01b0390921660209283029190910190910152826106a681612231565b9350505b50806106b581612231565b915050610649565b509092915050565b600b546000906001600160a01b031633146106f25760405162461bcd60e51b81526004016104089061224a565b506000818152600360209081526040808320546001600160a01b031683526001909152902060060154610100900460ff165b919050565b6001600160a01b038816600090815260026020526040902054889060ff16156107a65760405162461bcd60e51b815260206004820152602960248201527f466f6c6c6f77696e672063616e64696461746520697320616c726561647920726044820152681959da5cdd195c995960ba1b6064820152608401610408565b6107b884670de0b6b3a7640000612298565b34146107ff5760405162461bcd60e51b8152602060048201526016602482015275125b98dbdc9c9958dd0819195c1bdcda5d081cd95b9d60521b6044820152606401610408565b6000604051806101000160405280600a5481526020018481526020018a8a8080601f016020809104026020016040519081016040528093929190818152602001838380828437600092019190915250505090825250604080516020601f8b0181900481028201810190925289815291810191908a908a90819084018382808284376000920191909152505050908252506020016108a487670de0b6b3a7640000612298565b815260208082018790526000604080840182905260609093018190526001600160a01b038e16815260018083529083902084518155918401519082015590820151919250829160028201906108f99082612300565b506060820151600382019061090e9082612300565b506080820151600482015560a0820151600582015560c08201516006909101805460e09093015115156101000261ff00199215159290921661ffff19909316929092171790556001600160a01b038a166000818152600260209081526040808320805460ff19166001179055600a805484526003909252822080546001600160a01b03191690931790925581546109a490612231565b90915550600880546000906109b890612231565b9190508190555034600960008282546109d191906123c0565b90915550506040517f5ae54247677d0d0e4dbf3dadd494580e36b7ae8505c298f3bab0a83d985a573090610a0a908c908c908c906123d3565b60405180910390a150505050505050505050565b6001600160a01b038216600090815260046020526040902054829060ff1615610a995760405162461bcd60e51b815260206004820152602760248201527f466f6c6c6f77696e672063616e64696461746520697320616c72656164792076604482015266195c9a599a595960ca1b6064820152608401610408565b600054604051635fb3cd0760e11b815233600482018190529185916001600160a01b039091169063bf679a0e90602401602060405180830381865afa158015610ae6573d6000803e3d6000fd5b505050506040513d601f19601f82011682018060405250810190610b0a9190612413565b8015610b9f57506001600160a01b0381811660009081526001602081905260408083209091015491549051631cd4df1160e31b815285841660048201529192169063e6a6f88890602401600060405180830381865afa158015610b71573d6000803e3d6000fd5b505050506040513d6000823e601f3d908101601f19168201604052610b99919081019061248a565b60400151145b610c1f5760405162461bcd60e51b815260206004820152604560248201527f43616e6e6f7420766572696679207468652063616e646964617465206173206260448201527f6f7468206172652066726f6d20646966666572656e7420636f6e7374697475656064820152646e6369657360d81b608482015260a401610408565b6001600160a01b03851660009081526001602052604090208415610cc25760068101805461ff001916610100871515021790556001600160a01b0386166000908152600460209081526040808320805460ff191660019081179091559091529081902090517fc90f9b2bc6a44f687eafc0e8e60625cd8a42e2ee375f37831621e009e336f46e91610cb5918991600201906125d8565b60405180910390a1610d18565b6001600160a01b0386166000908152600160205260409081902090517fc90f9b2bc6a44f687eafc0e8e60625cd8a42e2ee375f37831621e009e336f46e91610d0f9189916002019061264c565b60405180910390a15b505050505050565b60008060008060008060085467ffffffffffffffff811115610d4457610d446121ef565b604051908082528060200260200182016040528015610d6d578160200160208202803683370190505b509050600060015b600a54811015610e55576000818152600360205260409020546001600160a01b03168015610e42576001600160a01b03811660009081526001602081905260408220015490805b85811015610dff5782878281518110610dd757610dd7612205565b602002602001015103610ded5760019150610dff565b80610df781612231565b915050610dbc565b5080610e3f5781868681518110610e1857610e18612205565b602090810291909101015284610e2d81612231565b9550508680610e3b90612231565b9750505b50505b5080610e4d81612231565b915050610d75565b50600854610e61611d7e565b600954919990985093965094509192505050565b6001600160a01b03811660009081526002602052604081205460ff16610eeb5760405162461bcd60e51b815260206004820152602560248201527f41646472657373206973206e6f74206120726567697374657265642063616e64604482015264696461746560d81b6064820152608401610408565b506001600160a01b031660009081526001602052604090205490565b600054604051635fb3cd0760e11b81523360048201526001600160a01b039091169063bf679a0e90602401602060405180830381865afa158015610f4f573d6000803e3d6000fd5b505050506040513d601f19601f82011682018060405250810190610f739190612413565b610fd55760405162461bcd60e51b815260206004820152602d60248201527f4f6e6c7920456c656374696f6e204f6666696365722063616e20706572666f7260448201526c36903a3434b99030b1ba34b7b760991b6064820152608401610408565b6001600160a01b03811660009081526002602052604090205460ff1661100d5760405162461bcd60e51b81526004016104089061218e565b6001600160a01b038116600090815260016020818152604080842081516101008101835281548152938101549284019290925260028201805491840191611053906121bb565b80601f016020809104026020016040519081016040528092919081815260200182805461107f906121bb565b80156110cc5780601f106110a1576101008083540402835291602001916110cc565b820191906000526020600020905b8154815290600101906020018083116110af57829003601f168201915b505050505081526020016003820180546110e5906121bb565b80601f0160208091040260200160405190810160405280929190818152602001828054611111906121bb565b801561115e5780601f106111335761010080835404028352916020019161115e565b820191906000526020600020905b81548152906001019060200180831161114157829003601f168201915b50505091835250506004828101546020830152600583015460408084019190915260069093015460ff80821615156060850152610100909104161515608090920191909152600080549251631cd4df1160e31b815233928101929092529293506001600160a01b039091169063e6a6f88890602401600060405180830381865afa1580156111f0573d6000803e3d6000fd5b505050506040513d6000823e601f3d908101601f19168201604052611218919081019061248a565b6040015190508082602001511461128d5760405162461bcd60e51b815260206004820152603360248201527f43616e6e6f742072656d6f76652063616e6469646174652066726f6d20646966604482015272666572656e7420636f6e7374697475656e637960681b6064820152608401610408565b6001600160a01b0383166000908152600260209081526040808320805460ff1990811690915560048352818420805482169055600590925282208054909116905560088054916112dc836126ae565b909155505060808201516040516001600160a01b0385169180156108fc02916000818181858888f1935050505015801561131a573d6000803e3d6000fd5b5081608001516009600082825461133191906126c5565b925050819055507fc90f9b2bc6a44f687eafc0e8e60625cd8a42e2ee375f37831621e009e336f46e83836040015160405161136d9291906126d8565b60405180910390a1505050565b600054604051634e1f6af960e11b81523360048201526001600160a01b0390911690639c3ed5f290602401602060405180830381865afa1580156113c2573d6000803e3d6000fd5b505050506040513d601f19601f820116820180604052508101906113e69190612413565b61144d5760405162461bcd60e51b815260206004820152603260248201527f4f6e6c7920456c656374696f6e20436f6d6d697373696f6e65722063616e207060448201527132b93337b936903a3434b99030b1ba34b7b760711b6064820152608401610408565b6001600160a01b03811660009081526002602052604090205460ff166114855760405162461bcd60e51b81526004016104089061218e565b6001600160a01b03811660009081526001602052604090206004015480156114df576040516001600160a01b0383169082156108fc029083906000818181858888f193505050501580156114dd573d6000803e3d6000fd5b505b6001600160a01b03821660009081526001602081905260408220805483825591810183905590916115136002830182611df9565b611521600383016000611df9565b5060006004828101829055600583018290556006909201805461ffff191690556001600160a01b0385168152600260209081526040808320805460ff1990811690915593825280832080549094169093558382526003905290812080546001600160a01b03191690556008805491611598836126ae565b919050555081600960008282546115af91906126c5565b9091555050505050565b600b546000906001600160a01b031633146115e65760405162461bcd60e51b81526004016104089061224a565b506000908152600360209081526040808320546001600160a01b03168352600191829052909120015490565b6000546001600160a01b031661166a5760405162461bcd60e51b815260206004820152601d60248201527f456c656374696f6e4f666669636572206e6f7420636f6e6e65637465640000006044820152606401610408565b60008054604051634e1f6af960e11b81523360048201526001600160a01b0390911690639c3ed5f290602401602060405180830381865afa1580156116b3573d6000803e3d6000fd5b505050506040513d601f19601f820116820180604052508101906116d79190612413565b90508061173e5760405162461bcd60e51b815260206004820152602f60248201527f4f6e6c792074686520456c656374696f6e20436f6d6d697373696f6e6572206360448201526e616e20706572666f726d207468697360881b6064820152608401610408565b600b546001600160a01b03161561178e5760405162461bcd60e51b8152602060048201526014602482015273115b1958dd1a5bdb88185b1c9958591e481cd95d60621b6044820152606401610408565b50600b80546001600160a01b039092166001600160a01b0319928316179055600c805490911633179055565b60008060015b600a5481101561185e576000818152600360205260409020546001600160a01b0316801580159061180c57506001600160a01b0381166000908152600160208190526040909120015485145b801561183857506001600160a01b038116600090815260016020526040902060060154610100900460ff165b1561184b578261184781612231565b9350505b508061185681612231565b9150506117c0565b5092915050565b606080606080600061187686611bb9565b90506000815167ffffffffffffffff811115611894576118946121ef565b6040519080825280602002602001820160405280156118c757816020015b60608152602001906001900390816118b25790505b5090506000825167ffffffffffffffff8111156118e6576118e66121ef565b60405190808252806020026020018201604052801561191957816020015b60608152602001906001900390816119045790505b5090506000835167ffffffffffffffff811115611938576119386121ef565b604051908082528060200260200182016040528015611961578160200160208202803683370190505b50905060005b8451811015611ba95760006001600087848151811061198857611988612205565b60200260200101516001600160a01b03166001600160a01b031681526020019081526020016000206040518061010001604052908160008201548152602001600182015481526020016002820180546119e0906121bb565b80601f0160208091040260200160405190810160405280929190818152602001828054611a0c906121bb565b8015611a595780601f10611a2e57610100808354040283529160200191611a59565b820191906000526020600020905b815481529060010190602001808311611a3c57829003601f168201915b50505050508152602001600382018054611a72906121bb565b80601f0160208091040260200160405190810160405280929190818152602001828054611a9e906121bb565b8015611aeb5780601f10611ac057610100808354040283529160200191611aeb565b820191906000526020600020905b815481529060010190602001808311611ace57829003601f168201915b505050918352505060048201546020820152600582015460408083019190915260069092015460ff80821615156060840152610100909104161515608090910152810151865191925090869084908110611b4757611b47612205565b60200260200101819052508060600151848381518110611b6957611b69612205565b60200260200101819052508060a00151838381518110611b8b57611b8b612205565b60209081029190910101525080611ba181612231565b915050611967565b5092989197509550909350915050565b6060600060015b600a54811015611c5e576000818152600360205260409020546001600160a01b03168015801590611c0c57506001600160a01b0381166000908152600160208190526040909120015485145b8015611c3857506001600160a01b038116600090815260016020526040902060060154610100900460ff165b15611c4b5782611c4781612231565b9350505b5080611c5681612231565b915050611bc0565b5060008167ffffffffffffffff811115611c7a57611c7a6121ef565b604051908082528060200260200182016040528015611ca3578160200160208202803683370190505b509050600060015b600a54811015611d74576000818152600360205260409020546001600160a01b03168015801590611cf757506001600160a01b0381166000908152600160208190526040909120015487145b8015611d2357506001600160a01b038116600090815260016020526040902060060154610100900460ff165b15611d615780848481518110611d3b57611d3b612205565b6001600160a01b039092166020928302919091019091015282611d5d81612231565b9350505b5080611d6c81612231565b915050611cab565b5090949350505050565b60008060015b600a54811015611df3576000818152600360205260409020546001600160a01b03168015801590611dcd57506001600160a01b03811660009081526004602052604090205460ff165b15611de05782611ddc81612231565b9350505b5080611deb81612231565b915050611d84565b50919050565b508054611e05906121bb565b6000825580601f10611e15575050565b601f016020900490600052602060002090810190611e339190611e36565b50565b5b80821115611e4b5760008155600101611e37565b5090565b600060208284031215611e6157600080fd5b5035919050565b60005b83811015611e83578181015183820152602001611e6b565b50506000910152565b60008151808452611ea4816020860160208601611e68565b601f01601f19169290920160200192915050565b60c081526000611ecb60c0830189611e8c565b8281036020840152611edd8189611e8c565b6040840197909752505060608101939093529015156080830152151560a09091015292915050565b600081518084526020808501945080840160005b83811015611f3e5781516001600160a01b031687529582019590820190600101611f19565b509495945050505050565b602081526000611f5c6020830184611f05565b9392505050565b80356001600160a01b038116811461072457600080fd5b60008083601f840112611f8c57600080fd5b50813567ffffffffffffffff811115611fa457600080fd5b602083019150836020828501011115611fbc57600080fd5b9250929050565b60008060008060008060008060c0898b031215611fdf57600080fd5b611fe889611f63565b9750602089013567ffffffffffffffff8082111561200557600080fd5b6120118c838d01611f7a565b909950975060408b013591508082111561202a57600080fd5b506120378b828c01611f7a565b999c989b5096999698976060880135976080810135975060a0013595509350505050565b8015158114611e3357600080fd5b6000806040838503121561207c57600080fd5b61208583611f63565b915060208301356120958161205b565b809150509250929050565b6000602082840312156120b257600080fd5b611f5c82611f63565b600081518084526020808501808196508360051b8101915082860160005b858110156121035782840389526120f1848351611e8c565b988501989350908401906001016120d9565b5091979650505050505050565b6080815260006121236080830187611f05565b60208382038185015261213682886120bb565b9150838203604085015261214a82876120bb565b8481036060860152855180825282870193509082019060005b8181101561217f57845183529383019391830191600101612163565b50909998505050505050505050565b60208082526013908201527210d85b991a59185d19481b9bdd08199bdd5b99606a1b604082015260600190565b600181811c908216806121cf57607f821691505b602082108103611df357634e487b7160e01b600052602260045260246000fd5b634e487b7160e01b600052604160045260246000fd5b634e487b7160e01b600052603260045260246000fd5b634e487b7160e01b600052601160045260246000fd5b6000600182016122435761224361221b565b5060010190565b6020808252602e908201527f546869732063616e2062652063616c6c6564206f6e6c792066726f6d2047656e60408201526d6572616c20456c656374696f6e7360901b606082015260800190565b80820281158282048414176122af576122af61221b565b92915050565b601f8211156122fb57600081815260208120601f850160051c810160208610156122dc5750805b601f850160051c820191505b81811015610d18578281556001016122e8565b505050565b815167ffffffffffffffff81111561231a5761231a6121ef565b61232e8161232884546121bb565b846122b5565b602080601f831160018114612363576000841561234b5750858301515b600019600386901b1c1916600185901b178555610d18565b600085815260208120601f198616915b8281101561239257888601518255948401946001909101908401612373565b50858210156123b05787850151600019600388901b60f8161c191681555b5050505050600190811b01905550565b808201808211156122af576122af61221b565b6001600160a01b03841681526040602082018190528101829052818360608301376000818301606090810191909152601f909201601f1916010192915050565b60006020828403121561242557600080fd5b8151611f5c8161205b565b6040516060810167ffffffffffffffff81118282101715612453576124536121ef565b60405290565b604051601f8201601f1916810167ffffffffffffffff81118282101715612482576124826121ef565b604052919050565b6000602080838503121561249d57600080fd5b825167ffffffffffffffff808211156124b557600080fd5b90840190606082870312156124c957600080fd5b6124d1612430565b8251828111156124e057600080fd5b8301601f810188136124f157600080fd5b805183811115612503576125036121ef565b612515601f8201601f19168701612459565b9350808452888682840101111561252b57600080fd5b61253a81878601888501611e68565b50509081528183015192810192909252604090810151908201529392505050565b60008154612568816121bb565b808552602060018381168015612585576001811461259f576125cd565b60ff1985168884015283151560051b8801830195506125cd565b866000528260002060005b858110156125c55781548a82018601529083019084016125aa565b890184019650505b505050505092915050565b6001600160a01b03831681526060602082018190526000906125fc9083018461255b565b8281036040840152602781527f546869732063616e6469646174652063616e207375636365737366756c6c792060208201526618dbdb9d195cdd60ca1b6040820152606081019150509392505050565b6001600160a01b03831681526060602082018190526000906126709083018461255b565b828103604093840152601d81527f546869732063616e6469646174652063616e6e6f7420636f6e746573740000006020820152919091019392505050565b6000816126bd576126bd61221b565b506000190190565b818103818111156122af576122af61221b565b6001600160a01b03831681526060602082018190526000906126fc90830184611e8c565b828103604093840152600781526614995b5bdd995960ca1b602082015291909101939250505056fea264697066735822122057b7a2a11affc46398946bab1d3f5150098c92e1d4581bd77e805c40d286805e64736f6c63430008140033",
  "linkReferences": {},
  "deployedLinkReferences": {}
}