{
  "_format": "hh-sol-artifact-1",
  "contractName": "ElectionOfficer",
  "sourceName": "voting_contracts/ElectionOfficer.sol",
  "abi": [
    {
      "inputs": [],
      "stateMutability": "nonpayable",
      "type": "constructor"
    },
    {
      "anonymous": false,
      "inputs": [
        {
          "indexed": false,
          "internalType": "address",
          "name": "officer",
          "type": "address"
        },
        {
          "indexed": false,
          "internalType": "uint256",
          "name": "constituency",
          "type": "uint256"
        }
      ],
      "name": "OfficerAssigned",
      "type": "event"
    },
    {
      "inputs": [
        {
          "internalType": "address",
          "name": "officerAddress",
          "type": "address"
        },
        {
          "internalType": "string",
          "name": "name",
          "type": "string"
        },
        {
          "internalType": "uint256",
          "name": "allotedConstituency",
          "type": "uint256"
        }
      ],
      "name": "electElectionOfficers",
      "outputs": [],
      "stateMutability": "nonpayable",
      "type": "function"
    },
    {
      "inputs": [],
      "name": "electionCommissioner",
      "outputs": [
        {
          "internalType": "address",
          "name": "",
          "type": "address"
        }
      ],
      "stateMutability": "view",
      "type": "function"
    },
    {
      "inputs": [],
      "name": "electionEnd",
      "outputs": [
        {
          "internalType": "uint256",
          "name": "",
          "type": "uint256"
        }
      ],
      "stateMutability": "view",
      "type": "function"
    },
    {
      "inputs": [],
      "name": "electionOfficerCount",
      "outputs": [
        {
          "internalType": "uint256",
          "name": "",
          "type": "uint256"
        }
      ],
      "stateMutability": "view",
      "type": "function"
    },
    {
      "inputs": [],
      "name": "electionStart",
      "outputs": [
        {
          "internalType": "uint256",
          "name": "",
          "type": "uint256"
        }
      ],
      "stateMutability": "view",
      "type": "function"
    },
    {
      "inputs": [],
      "name": "getCommissionerAddress",
      "outputs": [
        {
          "internalType": "address",
          "name": "",
          "type": "address"
        }
      ],
      "stateMutability": "view",
      "type": "function"
    },
    {
      "inputs": [
        {
          "internalType": "address",
          "name": "officerAddress",
          "type": "address"
        }
      ],
      "name": "getOfficerByAddress",
      "outputs": [
        {
          "components": [
            {
              "internalType": "string",
              "name": "name",
              "type": "string"
            },
            {
              "internalType": "uint256",
              "name": "id",
              "type": "uint256"
            },
            {
              "internalType": "uint256",
              "name": "allotedConstituency",
              "type": "uint256"
            }
          ],
          "internalType": "struct ElectionOfficer.electionOfficer",
          "name": "",
          "type": "tuple"
        }
      ],
      "stateMutability": "view",
      "type": "function"
    },
    {
      "inputs": [],
      "name": "isElecCommissioner",
      "outputs": [
        {
          "internalType": "bool",
          "name": "",
          "type": "bool"
        }
      ],
      "stateMutability": "view",
      "type": "function"
    },
    {
      "inputs": [
        {
          "internalType": "address",
          "name": "_address",
          "type": "address"
        }
      ],
      "name": "isElecCommissionerAddress",
      "outputs": [
        {
          "internalType": "bool",
          "name": "",
          "type": "bool"
        }
      ],
      "stateMutability": "view",
      "type": "function"
    },
    {
      "inputs": [
        {
          "internalType": "address",
          "name": "officerAddress",
          "type": "address"
        }
      ],
      "name": "isElecOfficer",
      "outputs": [
        {
          "internalType": "bool",
          "name": "",
          "type": "bool"
        }
      ],
      "stateMutability": "view",
      "type": "function"
    },
    {
      "inputs": [],
      "name": "primKey",
      "outputs": [
        {
          "internalType": "uint256",
          "name": "",
          "type": "uint256"
        }
      ],
      "stateMutability": "view",
      "type": "function"
    },
    {
      "inputs": [],
      "name": "timeEnd",
      "outputs": [
        {
          "internalType": "uint256",
          "name": "",
          "type": "uint256"
        }
      ],
      "stateMutability": "view",
      "type": "function"
    },
    {
      "inputs": [],
      "name": "timeStart",
      "outputs": [
        {
          "internalType": "uint256",
          "name": "",
          "type": "uint256"
        }
      ],
      "stateMutability": "view",
      "type": "function"
    }
  ],
  "bytecode": "0x60a06040526000600855600160095534801561001a57600080fd5b5042600081905561002e906203f48061005e565b60018190556100409062093a8061005e565b6002819055610052906201518061005e565b60035533608052610085565b8082018082111561007f57634e487b7160e01b600052601160045260246000fd5b92915050565b608051610a776100bb6000396000818160f5015281816101460152818161016c015281816101c0015261026b0152610a776000f3fe608060405234801561001057600080fd5b50600436106100cf5760003560e01c80639c3ed5f21161008c578063ce7ea16111610066578063ce7ea16114610225578063e6a6f8881461022e578063fd74d2941461024e578063fda263e81461025757600080fd5b80639c3ed5f2146101b0578063bf679a0e146101f0578063c1211c861461021c57600080fd5b80631a5a6983146100d45780631bdbb2ab146100f05780632b241b911461012f57806347a5a9b6146101445780635e9b64391461016a57806379395dc6146101a7575b600080fd5b6100dd60095481565b6040519081526020015b60405180910390f35b6101177f000000000000000000000000000000000000000000000000000000000000000081565b6040516001600160a01b0390911681526020016100e7565b61014261013d3660046107a5565b610260565b005b7f0000000000000000000000000000000000000000000000000000000000000000610117565b7f00000000000000000000000000000000000000000000000000000000000000006001600160a01b031633145b60405190151581526020016100e7565b6100dd60085481565b6101976101be36600461082e565b7f00000000000000000000000000000000000000000000000000000000000000006001600160a01b0390811691161490565b6101976101fe36600461082e565b6001600160a01b031660009081526005602052604090205460ff1690565b6100dd60025481565b6100dd60035481565b61024161023c36600461082e565b61061b565b6040516100e79190610850565b6100dd60005481565b6100dd60015481565b336001600160a01b037f000000000000000000000000000000000000000000000000000000000000000016146102fc5760405162461bcd60e51b815260206004820152603660248201527f4f6e6c792074686520456c656374696f6e20436f6d6d697373696f6e6572206360448201527530b7103832b93337b936903a3434b99030b1ba34b7b760511b60648201526084015b60405180910390fd5b6001544211156103685760405162461bcd60e51b815260206004820152603160248201527f5468652054696d6520666f72207265676973746572696e67206e6577206f66666044820152701a58d95c9cc81a185cc8195b185c1cd959607a1b60648201526084016102f3565b600081116103b85760405162461bcd60e51b815260206004820152601d60248201527f436f6e7374697475656e6379206d75737420626520706f73697469766500000060448201526064016102f3565b60008181526006602052604090205460ff161561042f5760405162461bcd60e51b815260206004820152602f60248201527f5468697320636f6e7374697475656e637920616c72656164792068617320612060448201526e1bd9999a58d95c88185b1b1bdd1959608a1b60648201526084016102f3565b6001600160a01b03841660009081526005602052604090205460ff16156104985760405162461bcd60e51b815260206004820152601f60248201527f54686973206f66666963657220697320616c726561647920656c65637465640060448201526064016102f3565b6040805160806020601f860181900402820181019092526060810184815260009282919087908790819085018382808284376000920182905250938552505060098054602090940193929091506104ee836108bb565b90915550815260209081018490526001600160a01b03871660009081526004909152604090208151919250829181906105279082610981565b506020828101516001808401919091556040938401516002909301929092556001600160a01b038816600081815260058352848120805460ff19908116861790915587825260069093529384208054909216831790915560078054928301815583527fa66cc928b5edb82af9bd49922954155ab7b0942694bea4ce44661d9a8736c68890910180546001600160a01b0319169091179055600880549091906105ce906108bb565b90915550604080516001600160a01b0387168152602081018490527f938f17ce654223e1376a65a5cae25ef36de913f8adba46eae0a9176259950ea8910160405180910390a15050505050565b61063f60405180606001604052806060815260200160008152602001600081525090565b6001600160a01b03821660009081526005602052604090205460ff16806106b95760405162461bcd60e51b815260206004820152602860248201527f5468652061646472657373206973206e6f74206f66206120456c656374696f6e6044820152671027b33334b1b2b960c11b60648201526084016102f3565b6001600160a01b038316600090815260046020526040908190208151606081019092528054829082906106eb906108f8565b80601f0160208091040260200160405190810160405280929190818152602001828054610717906108f8565b80156107645780601f1061073957610100808354040283529160200191610764565b820191906000526020600020905b81548152906001019060200180831161074757829003601f168201915b5050505050815260200160018201548152602001600282015481525050915050919050565b80356001600160a01b03811681146107a057600080fd5b919050565b600080600080606085870312156107bb57600080fd5b6107c485610789565b9350602085013567ffffffffffffffff808211156107e157600080fd5b818701915087601f8301126107f557600080fd5b81358181111561080457600080fd5b88602082850101111561081657600080fd5b95986020929092019750949560400135945092505050565b60006020828403121561084057600080fd5b61084982610789565b9392505050565b600060208083528351606082850152805180608086015260005b818110156108865782810184015186820160a00152830161086a565b50600060a082870101528286015160408601526040860151606086015260a0601f19601f830116860101935050505092915050565b6000600182016108db57634e487b7160e01b600052601160045260246000fd5b5060010190565b634e487b7160e01b600052604160045260246000fd5b600181811c9082168061090c57607f821691505b60208210810361092c57634e487b7160e01b600052602260045260246000fd5b50919050565b601f82111561097c57600081815260208120601f850160051c810160208610156109595750805b601f850160051c820191505b8181101561097857828155600101610965565b5050505b505050565b815167ffffffffffffffff81111561099b5761099b6108e2565b6109af816109a984546108f8565b84610932565b602080601f8311600181146109e457600084156109cc5750858301515b600019600386901b1c1916600185901b178555610978565b600085815260208120601f198616915b82811015610a13578886015182559484019460019091019084016109f4565b5085821015610a315787850151600019600388901b60f8161c191681555b5050505050600190811b0190555056fea264697066735822122043fc9e9a3f8cdf722300d5dd29af97f7de3a07f84c852b78ea40b87984ec281264736f6c63430008140033",
  "linkReferences": {},
  "deployedLinkReferences": {}
}