{
  "_format": "hh-sol-artifact-1",
  "contractName": "GeneralElections",
  "sourceName": "voting_contracts/GeneralElections.sol",
  "abi": [
    {
      "inputs": [
        {
          "internalType": "address",
          "name": "_candidate",
          "type": "address"
        },
        {
          "internalType": "address",
          "name": "_voter",
          "type": "address"
        },
        {
          "internalType": "address",
          "name": "_electionOfficer",
          "type": "address"
        }
      ],
      "stateMutability": "nonpayable",
      "type": "constructor"
    },
    {
      "anonymous": false,
      "inputs": [
        {
          "indexed": false,
          "internalType": "string",
          "name": "reason",
          "type": "string"
        }
      ],
      "name": "ElectionCancelled",
      "type": "event"
    },
    {
      "anonymous": false,
      "inputs": [
        {
          "indexed": false,
          "internalType": "string",
          "name": "reason",
          "type": "string"
        }
      ],
      "name": "ElectionPaused",
      "type": "event"
    },
    {
      "anonymous": false,
      "inputs": [],
      "name": "ElectionResumed",
      "type": "event"
    },
    {
      "anonymous": false,
      "inputs": [
        {
          "indexed": false,
          "internalType": "uint256",
          "name": "constituencyId",
          "type": "uint256"
        },
        {
          "indexed": false,
          "internalType": "address[]",
          "name": "winners",
          "type": "address[]"
        },
        {
          "indexed": false,
          "internalType": "uint256[]",
          "name": "voteCounts",
          "type": "uint256[]"
        }
      ],
      "name": "ResultDeclared",
      "type": "event"
    },
    {
      "anonymous": false,
      "inputs": [
        {
          "indexed": false,
          "internalType": "uint256",
          "name": "candidateId",
          "type": "uint256"
        },
        {
          "indexed": false,
          "internalType": "uint256",
          "name": "voteCount",
          "type": "uint256"
        }
      ],
      "name": "VoteCounted",
      "type": "event"
    },
    {
      "anonymous": false,
      "inputs": [
        {
          "indexed": false,
          "internalType": "uint256",
          "name": "voterId",
          "type": "uint256"
        },
        {
          "indexed": false,
          "internalType": "bytes32",
          "name": "proofHash",
          "type": "bytes32"
        }
      ],
      "name": "VoteProofGenerated",
      "type": "event"
    },
    {
      "anonymous": false,
      "inputs": [
        {
          "indexed": false,
          "internalType": "uint256",
          "name": "voterId",
          "type": "uint256"
        },
        {
          "indexed": false,
          "internalType": "bool",
          "name": "isValid",
          "type": "bool"
        }
      ],
      "name": "VoteVerified",
      "type": "event"
    },
    {
      "anonymous": false,
      "inputs": [
        {
          "indexed": false,
          "internalType": "string",
          "name": "message",
          "type": "string"
        }
      ],
      "name": "voteRegistered",
      "type": "event"
    },
    {
      "inputs": [],
      "name": "bufferEnd",
      "outputs": [
        {
          "internalType": "uint256",
          "name": "",
          "type": "uint256"
        }
      ],
      "stateMutability": "view",
      "type": "function"
    },
    {
      "inputs": [],
      "name": "bufferStart",
      "outputs": [
        {
          "internalType": "uint256",
          "name": "",
          "type": "uint256"
        }
      ],
      "stateMutability": "view",
      "type": "function"
    },
    {
      "inputs": [
        {
          "internalType": "string",
          "name": "reason",
          "type": "string"
        }
      ],
      "name": "cancelElection",
      "outputs": [],
      "stateMutability": "nonpayable",
      "type": "function"
    },
    {
      "inputs": [
        {
          "internalType": "uint256",
          "name": "",
          "type": "uint256"
        }
      ],
      "name": "candidateVoteCount",
      "outputs": [
        {
          "internalType": "uint256",
          "name": "",
          "type": "uint256"
        }
      ],
      "stateMutability": "view",
      "type": "function"
    },
    {
      "inputs": [
        {
          "internalType": "uint256",
          "name": "",
          "type": "uint256"
        }
      ],
      "name": "constituencyResults",
      "outputs": [
        {
          "internalType": "uint256",
          "name": "constituencyId",
          "type": "uint256"
        },
        {
          "internalType": "bool",
          "name": "isResultDeclared",
          "type": "bool"
        },
        {
          "internalType": "uint256",
          "name": "declarationTime",
          "type": "uint256"
        }
      ],
      "stateMutability": "view",
      "type": "function"
    },
    {
      "inputs": [
        {
          "internalType": "uint256",
          "name": "_constituencyId",
          "type": "uint256"
        }
      ],
      "name": "countConstituencyVotes",
      "outputs": [],
      "stateMutability": "nonpayable",
      "type": "function"
    },
    {
      "inputs": [],
      "name": "electionEnd",
      "outputs": [
        {
          "internalType": "uint256",
          "name": "",
          "type": "uint256"
        }
      ],
      "stateMutability": "view",
      "type": "function"
    },
    {
      "inputs": [],
      "name": "electionStart",
      "outputs": [
        {
          "internalType": "uint256",
          "name": "",
          "type": "uint256"
        }
      ],
      "stateMutability": "view",
      "type": "function"
    },
    {
      "inputs": [],
      "name": "getAllVotes",
      "outputs": [
        {
          "internalType": "uint256[]",
          "name": "voterIds",
          "type": "uint256[]"
        },
        {
          "internalType": "uint256[]",
          "name": "candidateIds",
          "type": "uint256[]"
        },
        {
          "internalType": "uint256[]",
          "name": "timestamps",
          "type": "uint256[]"
        }
      ],
      "stateMutability": "view",
      "type": "function"
    },
    {
      "inputs": [
        {
          "internalType": "uint256",
          "name": "_constituencyId",
          "type": "uint256"
        }
      ],
      "name": "getElectionResults",
      "outputs": [
        {
          "internalType": "address[]",
          "name": "candidateAddresses",
          "type": "address[]"
        },
        {
          "internalType": "uint256[]",
          "name": "voteCounts",
          "type": "uint256[]"
        },
        {
          "internalType": "address[]",
          "name": "winners",
          "type": "address[]"
        },
        {
          "internalType": "bool",
          "name": "isResultDeclared",
          "type": "bool"
        },
        {
          "internalType": "uint256",
          "name": "declarationTime",
          "type": "uint256"
        }
      ],
      "stateMutability": "view",
      "type": "function"
    },
    {
      "inputs": [],
      "name": "getElectionStatus",
      "outputs": [
        {
          "internalType": "bool",
          "name": "isActive",
          "type": "bool"
        },
        {
          "internalType": "bool",
          "name": "isPaused",
          "type": "bool"
        },
        {
          "internalType": "bool",
          "name": "isCancelled",
          "type": "bool"
        },
        {
          "internalType": "uint256",
          "name": "timeRemaining",
          "type": "uint256"
        },
        {
          "internalType": "uint256",
          "name": "totalVotesCast",
          "type": "uint256"
        }
      ],
      "stateMutability": "view",
      "type": "function"
    },
    {
      "inputs": [],
      "name": "getTotalVotes",
      "outputs": [
        {
          "internalType": "uint256",
          "name": "",
          "type": "uint256"
        }
      ],
      "stateMutability": "view",
      "type": "function"
    },
    {
      "inputs": [
        {
          "internalType": "uint256",
          "name": "_candidateId",
          "type": "uint256"
        }
      ],
      "name": "getVoteCount",
      "outputs": [
        {
          "internalType": "uint256",
          "name": "",
          "type": "uint256"
        }
      ],
      "stateMutability": "view",
      "type": "function"
    },
    {
      "inputs": [
        {
          "internalType": "uint256",
          "name": "_voterId",
          "type": "uint256"
        }
      ],
      "name": "getVoteDetails",
      "outputs": [
        {
          "internalType": "uint256",
          "name": "candidateId",
          "type": "uint256"
        },
        {
          "internalType": "uint256",
          "name": "timestamp",
          "type": "uint256"
        },
        {
          "internalType": "bytes32",
          "name": "proof",
          "type": "bytes32"
        }
      ],
      "stateMutability": "view",
      "type": "function"
    },
    {
      "inputs": [
        {
          "internalType": "uint256",
          "name": "_voterId",
          "type": "uint256"
        }
      ],
      "name": "getVoteProof",
      "outputs": [
        {
          "internalType": "bytes32",
          "name": "",
          "type": "bytes32"
        }
      ],
      "stateMutability": "view",
      "type": "function"
    },
    {
      "inputs": [
        {
          "internalType": "uint256",
          "name": "_constituencyId",
          "type": "uint256"
        }
      ],
      "name": "getVoterTurnout",
      "outputs": [
        {
          "internalType": "uint256",
          "name": "totalVoters",
          "type": "uint256"
        },
        {
          "internalType": "uint256",
          "name": "totalVotes",
          "type": "uint256"
        }
      ],
      "stateMutability": "view",
      "type": "function"
    },
    {
      "inputs": [],
      "name": "isElectionCancelled",
      "outputs": [
        {
          "internalType": "bool",
          "name": "",
          "type": "bool"
        }
      ],
      "stateMutability": "view",
      "type": "function"
    },
    {
      "inputs": [],
      "name": "isElectionPaused",
      "outputs": [
        {
          "internalType": "bool",
          "name": "",
          "type": "bool"
        }
      ],
      "stateMutability": "view",
      "type": "function"
    },
    {
      "inputs": [
        {
          "internalType": "string",
          "name": "reason",
          "type": "string"
        }
      ],
      "name": "pauseElection",
      "outputs": [],
      "stateMutability": "nonpayable",
      "type": "function"
    },
    {
      "inputs": [
        {
          "internalType": "uint256",
          "name": "_voterId",
          "type": "uint256"
        },
        {
          "internalType": "uint256",
          "name": "_candidateId",
          "type": "uint256"
        }
      ],
      "name": "registerVote",
      "outputs": [],
      "stateMutability": "nonpayable",
      "type": "function"
    },
    {
      "inputs": [],
      "name": "resumeElection",
      "outputs": [],
      "stateMutability": "nonpayable",
      "type": "function"
    },
    {
      "inputs": [],
      "name": "totalVotes",
      "outputs": [
        {
          "internalType": "uint256",
          "name": "",
          "type": "uint256"
        }
      ],
      "stateMutability": "view",
      "type": "function"
    },
    {
      "inputs": [
        {
          "internalType": "bytes32",
          "name": "",
          "type": "bytes32"
        }
      ],
      "name": "usedProofs",
      "outputs": [
        {
          "internalType": "bool",
          "name": "",
          "type": "bool"
        }
      ],
      "stateMutability": "view",
      "type": "function"
    },
    {
      "inputs": [
        {
          "internalType": "uint256",
          "name": "_voterId",
          "type": "uint256"
        },
        {
          "internalType": "uint256",
          "name": "_candidateId",
          "type": "uint256"
        },
        {
          "internalType": "bytes32",
          "name": "_proof",
          "type": "bytes32"
        }
      ],
      "name": "verifyVote",
      "outputs": [
        {
          "internalType": "bool",
          "name": "",
          "type": "bool"
        }
      ],
      "stateMutability": "view",
      "type": "function"
    },
    {
      "inputs": [
        {
          "internalType": "uint256",
          "name": "",
          "type": "uint256"
        }
      ],
      "name": "voteProofs",
      "outputs": [
        {
          "internalType": "bytes32",
          "name": "",
          "type": "bytes32"
        }
      ],
      "stateMutability": "view",
      "type": "function"
    }
  ],
  "bytecode": "0x608060405260006007556008805461ffff191690553480156200002157600080fd5b5060405162002128380380620021288339810160408190526200004491620000f2565b62000053426203f4806200013c565b6003819055620000679062093a806200013c565b60048190556200007b906202a3006200013c565b60058190556200008f9062093a806200013c565b600655600180546001600160a01b039485166001600160a01b03199182161790915560008054938516938216939093179092556002805491909316911617905562000164565b80516001600160a01b0381168114620000ed57600080fd5b919050565b6000806000606084860312156200010857600080fd5b6200011384620000d5565b92506200012360208501620000d5565b91506200013360408501620000d5565b90509250925092565b808201808211156200015e57634e487b7160e01b600052601160045260246000fd5b92915050565b611fb480620001746000396000f3fe608060405234801561001057600080fd5b50600436106101735760003560e01c806390b536e3116100de578063c1211c8611610097578063d522e39611610071578063d522e39614610393578063e476f635146103e0578063e852a14b146103e9578063e8ededa6146103f157600080fd5b8063c1211c861461035e578063c30a0f2514610367578063ce7ea1611461038a57600080fd5b806390b536e3146102cf5780639a0e7d66146102fa5780639a590c6314610302578063a30ecee61461030b578063b2c2f2e81461032b578063b88218d71461034b57600080fd5b80633676df83116101305780633676df831461023257806340bc6c72146102445780634ce4fdec1461025757806354a1b4311461026a578063670d119414610298578063851b6ef2146102b857600080fd5b806301aa2e03146101785780630d15fd77146101ab578063122902a6146101b457806314c06b2d146101ed578063326c8e391461020257806333b89d8b1461021f575b600080fd5b610198610186366004611b12565b600a6020526000908152604090205481565b6040519081526020015b60405180910390f35b61019860075481565b6101bc610415565b6040516101a29594939291909415158552921515602085015290151560408401526060830152608082015260a00190565b6102006101fb366004611b12565b6104a4565b005b60085461020f9060ff1681565b60405190151581526020016101a2565b61020061022d366004611b72565b61081a565b60085461020f90610100900460ff1681565b61020f610252366004611c07565b61093d565b610200610265366004611b72565b6109ac565b61027d610278366004611b12565b610acb565b604080519384526020840192909252908201526060016101a2565b6101986102a6366004611b12565b6000908152600c602052604090205490565b6102c0610b7c565b6040516101a293929190611c6e565b6102e56102dd366004611b12565b506000908190565b604080519283526020830191909152016101a2565b600754610198565b61019860065481565b610198610319366004611b12565b600c6020526000908152604090205481565b610198610339366004611b12565b6000908152600a602052604090205490565b610200610359366004611cb1565b610d57565b61019860035481565b61020f610375366004611b12565b600d6020526000908152604090205460ff1681565b61019860045481565b6103c56103a1366004611b12565b600b60205260009081526040902080546004820154600590920154909160ff169083565b604080519384529115156020840152908201526060016101a2565b61019860055481565b6102006114d5565b6104046103ff366004611b12565b61162f565b6040516101a2959493929190611d0c565b600080600080600080600354421015801561043257506004544211155b8015610441575060085460ff16155b80156104555750600854610100900460ff16155b90506000811561048057426004541161046f57600061047d565b4260045461047d9190611d70565b90505b60085460075492975060ff8082169750610100909104169450925090509091929394565b600254604051635fb3cd0760e11b81523360048201526001600160a01b039091169063bf679a0e90602401602060405180830381865afa1580156104ec573d6000803e3d6000fd5b505050506040513d601f19601f820116820180604052508101906105109190611d83565b6105775760405162461bcd60e51b815260206004820152602d60248201527f4f6e6c7920456c656374696f6e204f6666696365722063616e20706572666f7260448201526c36903a3434b99030b1ba34b7b760991b60648201526084015b60405180910390fd5b600554421015801561058b57506006544211155b6105ce5760405162461bcd60e51b8152602060048201526014602482015273139bdd081a5b88189d5999995c881c195c9a5bd960621b604482015260640161056e565b6000818152600b602052604090206004015460ff16156106475760405162461bcd60e51b815260206004820152602e60248201527f526573756c747320616c7265616479206465636c6172656420666f722074686960448201526d7320636f6e7374697475656e637960901b606482015260840161056e565b6000610652826117c5565b90506000815167ffffffffffffffff81111561067057610670611b2b565b604051908082528060200260200182016040528015610699578160200160208202803683370190505b50905060005b82518110156107125760006106cc8483815181106106bf576106bf611dac565b602002602001015161183d565b9050600a6000828152602001908152602001600020548383815181106106f4576106f4611dac565b6020908102919091010152508061070a81611dc2565b91505061069f565b50600061071f83836118ac565b6040805160c0810182528681526020808201878152828401879052606083018590526001608084018190524260a085015260008a8152600b84529490942083518155905180519596509294909361077b93908501920190611a5d565b5060408201518051610797916002840191602090910190611ac2565b50606082015180516107b3916003840191602090910190611a5d565b50608082015160048201805460ff191691151591909117905560a0909101516005909101556040517ffa32d2f2e90614659c2683ea46e2213f8265962ccd2454d4ff7631048b95657d9061080c90869084908690611ddb565b60405180910390a150505050565b600254604051634e1f6af960e11b81523360048201526001600160a01b0390911690639c3ed5f290602401602060405180830381865afa158015610862573d6000803e3d6000fd5b505050506040513d601f19601f820116820180604052508101906108869190611d83565b6108a25760405162461bcd60e51b815260040161056e90611e06565b60085460ff16156108f55760405162461bcd60e51b815260206004820152601a60248201527f456c656374696f6e20697320616c726561647920706175736564000000000000604482015260640161056e565b6008805460ff191660011790556040517f048b2775bae5065ec73324b99025185776a5ba360ec80c3e45597263f5ac71cc90610932908390611e58565b60405180910390a150565b60408051602080820186905281830185905242606080840191909152835180840390910181526080909201909252805191012060009081906000868152600c6020526040902054909150831480156109a357506000838152600d602052604090205460ff165b95945050505050565b600254604051634e1f6af960e11b81523360048201526001600160a01b0390911690639c3ed5f290602401602060405180830381865afa1580156109f4573d6000803e3d6000fd5b505050506040513d601f19601f82011682018060405250810190610a189190611d83565b610a345760405162461bcd60e51b815260040161056e90611e06565b600854610100900460ff1615610a8c5760405162461bcd60e51b815260206004820152601d60248201527f456c656374696f6e20697320616c72656164792063616e63656c6c6564000000604482015260640161056e565b6008805461ff0019166101001790556040517f27133424d58fd97bec0388ceb182111468d3666dd4ae095d2b43262039abc53c90610932908390611e58565b60008060006009805490508410610b155760405162461bcd60e51b815260206004820152600e60248201526d159bdd19481b9bdd08199bdd5b9960921b604482015260640161056e565b600060098581548110610b2a57610b2a611dac565b60009182526020808320604080516060810182526003909402909101805480855260018201548585018190526002909201549483018590528552600c9092529092205491955093509150509193909250565b6060806060600060098054905067ffffffffffffffff811115610ba157610ba1611b2b565b604051908082528060200260200182016040528015610bca578160200160208202803683370190505b5060095490915060009067ffffffffffffffff811115610bec57610bec611b2b565b604051908082528060200260200182016040528015610c15578160200160208202803683370190505b5060095490915060009067ffffffffffffffff811115610c3757610c37611b2b565b604051908082528060200260200182016040528015610c60578160200160208202803683370190505b50905060005b600954811015610d4a5760098181548110610c8357610c83611dac565b906000526020600020906003020160000154848281518110610ca757610ca7611dac565b60200260200101818152505060098181548110610cc657610cc6611dac565b906000526020600020906003020160010154838281518110610cea57610cea611dac565b60200260200101818152505060098181548110610d0957610d09611dac565b906000526020600020906003020160020154828281518110610d2d57610d2d611dac565b602090810291909101015280610d4281611dc2565b915050610c66565b5091959094509092509050565b600354421015610da95760405162461bcd60e51b815260206004820181905260248201527f54686520656c656374696f6e20686173206e6f74207374617274656420796574604482015260640161056e565b600454421115610dfb5760405162461bcd60e51b815260206004820152601e60248201527f54686520656c656374696f6e2068617320616c726561647920656e6465640000604482015260640161056e565b60085460ff1615610e4e5760405162461bcd60e51b815260206004820152601c60248201527f456c656374696f6e2069732063757272656e746c792070617573656400000000604482015260640161056e565b600854610100900460ff1615610ea65760405162461bcd60e51b815260206004820152601b60248201527f456c656374696f6e20686173206265656e2063616e63656c6c65640000000000604482015260640161056e565b60005460405163ba2cdd4560e01b81526004810184905283916001600160a01b03169063ba2cdd4590602401602060405180830381865afa158015610eef573d6000803e3d6000fd5b505050506040513d601f19601f82011682018060405250810190610f139190611d83565b610f6e5760405162461bcd60e51b815260206004820152602660248201527f466f6c6c6f77696e6720566f746572206973206e6f7420616c6c6f77656420746044820152656f20766f746560d01b606482015260840161056e565b600154604051631e99d00760e11b81526004810184905283916001600160a01b031690633d33a00e90602401602060405180830381865afa158015610fb7573d6000803e3d6000fd5b505050506040513d601f19601f82011682018060405250810190610fdb9190611d83565b61103a5760405162461bcd60e51b815260206004820152602a60248201527f466f6c6c6f77696e672063616e646964617465206e6f7420616c6c6f776564206044820152691d1bc818dbdb9d195cdd60b21b606482015260840161056e565b6000546040516338e26ed960e01b81526004810186905285916001600160a01b0316906338e26ed990602401602060405180830381865afa158015611083573d6000803e3d6000fd5b505050506040513d601f19601f820116820180604052508101906110a79190611d83565b156110f45760405162461bcd60e51b815260206004820152601b60248201527f54686520766f7465722068617320616c726561647920766f7465640000000000604482015260640161056e565b600054604051635490ab6760e11b815260048101879052869186916001600160a01b039091169063a92156ce90602401602060405180830381865afa158015611141573d6000803e3d6000fd5b505050506040513d601f19601f820116820180604052508101906111659190611ea6565b60015460405163284a58c160e21b8152600481018490526001600160a01b039091169063a129630490602401602060405180830381865afa1580156111ae573d6000803e3d6000fd5b505050506040513d601f19601f820116820180604052508101906111d29190611ea6565b146112355760405162461bcd60e51b815260206004820152602d60248201527f426f746820656e746974696573206172652066726f6d20646966666572656e7460448201526c20636f6e7374697475656e637960981b606482015260840161056e565b60408051606081018252888152602081018881524292820192835260098054600181018255600091825292517f6e1540171b6c0c960b71a7020d9f60077f6af931a8bbf590da0223dacf75c7af60039094029384015590517f6e1540171b6c0c960b71a7020d9f60077f6af931a8bbf590da0223dacf75c7b083015591517f6e1540171b6c0c960b71a7020d9f60077f6af931a8bbf590da0223dacf75c7b19091015560078054916112e683611dc2565b90915550506000868152600a6020526040812080549161130583611dc2565b90915550506040805160208082018a90528183018990524260608084019190915283518084039091018152608090920190925280519101206000906000898152600c60209081526040808320849055838352600d909152808220805460ff191660011790559054905163105d4da160e11b8152600481018b90529192506001600160a01b0316906320ba9b4290602401600060405180830381600087803b1580156113af57600080fd5b505af11580156113c3573d6000803e3d6000fd5b505050507f048dc05d5a62ee34ad2dd8640a3daa300459fb5be6541e54615aa839a8f3d3156040516114439060208082526034908201527f596f757220766f74652069732063617374207375636365737366756c6c792e206040820152735468616e6b20796f7520666f7220766f74696e6760601b606082015260800190565b60405180910390a16000878152600a60209081526040918290205482518a8152918201527f31d81ebe37883c18b31e90cc63789b9828e3b4bece67d3173c4b9b388eeb0040910160405180910390a160408051898152602081018390527f1208a3834c90266eb749bcc9e53f3d2e416cc716f4deee30993d4bcf9882a748910160405180910390a15050505050505050565b600254604051634e1f6af960e11b81523360048201526001600160a01b0390911690639c3ed5f290602401602060405180830381865afa15801561151d573d6000803e3d6000fd5b505050506040513d601f19601f820116820180604052508101906115419190611d83565b61155d5760405162461bcd60e51b815260040161056e90611e06565b60085460ff166115a85760405162461bcd60e51b8152602060048201526016602482015275115b1958dd1a5bdb881a5cc81b9bdd081c185d5cd95960521b604482015260640161056e565b6004544211156115fa5760405162461bcd60e51b815260206004820152601960248201527f456c656374696f6e20706572696f642068617320656e64656400000000000000604482015260640161056e565b6008805460ff191690556040517fda642f9fa747c5d18512f4f3d7aaa3f20afb6dd32160cf9df7f46e91aa84583690600090a1565b60608060606000806000600b60008881526020019081526020016000206040518060c001604052908160008201548152602001600182018054806020026020016040519081016040528092919081815260200182805480156116ba57602002820191906000526020600020905b81546001600160a01b0316815260019091019060200180831161169c575b505050505081526020016002820180548060200260200160405190810160405280929190818152602001828054801561171257602002820191906000526020600020905b8154815260200190600101908083116116fe575b505050505081526020016003820180548060200260200160405190810160405280929190818152602001828054801561177457602002820191906000526020600020905b81546001600160a01b03168152600190910190602001808311611756575b5050509183525050600482015460ff16151560208083019190915260059092015460409182015290820151908201516060830151608084015160a090940151929b919a509850919650945092505050565b60015460405163f9ed806760e01b8152600481018390526060916001600160a01b03169063f9ed806790602401600060405180830381865afa15801561180f573d6000803e3d6000fd5b505050506040513d6000823e601f3d908101601f191682016040526118379190810190611ebf565b92915050565b60015460405163341f179360e11b81526001600160a01b038381166004830152600092169063683e2f2690602401602060405180830381865afa158015611888573d6000803e3d6000fd5b505050506040513d601f19601f820116820180604052508101906118379190611ea6565b606082516000036118cc5750604080516000815260208101909152611837565b60008060005b845181101561192b57828582815181106118ee576118ee611dac565b602002602001015111156119195784818151811061190e5761190e611dac565b602002602001015192505b8061192381611dc2565b9150506118d2565b5060005b8451811015611978578285828151811061194b5761194b611dac565b602002602001015103611966578161196281611dc2565b9250505b8061197081611dc2565b91505061192f565b5060008167ffffffffffffffff81111561199457611994611b2b565b6040519080825280602002602001820160405280156119bd578160200160208202803683370190505b5090506000805b8651811015611a5157848782815181106119e0576119e0611dac565b602002602001015103611a3f578781815181106119ff576119ff611dac565b6020026020010151838381518110611a1957611a19611dac565b6001600160a01b039092166020928302919091019091015281611a3b81611dc2565b9250505b80611a4981611dc2565b9150506119c4565b50909695505050505050565b828054828255906000526020600020908101928215611ab2579160200282015b82811115611ab257825182546001600160a01b0319166001600160a01b03909116178255602090920191600190910190611a7d565b50611abe929150611afd565b5090565b828054828255906000526020600020908101928215611ab2579160200282015b82811115611ab2578251825591602001919060010190611ae2565b5b80821115611abe5760008155600101611afe565b600060208284031215611b2457600080fd5b5035919050565b634e487b7160e01b600052604160045260246000fd5b604051601f8201601f1916810167ffffffffffffffff81118282101715611b6a57611b6a611b2b565b604052919050565b60006020808385031215611b8557600080fd5b823567ffffffffffffffff80821115611b9d57600080fd5b818501915085601f830112611bb157600080fd5b813581811115611bc357611bc3611b2b565b611bd5601f8201601f19168501611b41565b91508082528684828501011115611beb57600080fd5b8084840185840137600090820190930192909252509392505050565b600080600060608486031215611c1c57600080fd5b505081359360208301359350604090920135919050565b600081518084526020808501945080840160005b83811015611c6357815187529582019590820190600101611c47565b509495945050505050565b606081526000611c816060830186611c33565b8281036020840152611c938186611c33565b90508281036040840152611ca78185611c33565b9695505050505050565b60008060408385031215611cc457600080fd5b50508035926020909101359150565b600081518084526020808501945080840160005b83811015611c635781516001600160a01b031687529582019590820190600101611ce7565b60a081526000611d1f60a0830188611cd3565b8281036020840152611d318188611c33565b90508281036040840152611d458187611cd3565b94151560608401525050608001529392505050565b634e487b7160e01b600052601160045260246000fd5b8181038181111561183757611837611d5a565b600060208284031215611d9557600080fd5b81518015158114611da557600080fd5b9392505050565b634e487b7160e01b600052603260045260246000fd5b600060018201611dd457611dd4611d5a565b5060010190565b838152606060208201526000611df46060830185611cd3565b8281036040840152611ca78185611c33565b60208082526032908201527f4f6e6c7920456c656374696f6e20436f6d6d697373696f6e65722063616e207060408201527132b93337b936903a3434b99030b1ba34b7b760711b606082015260800190565b600060208083528351808285015260005b81811015611e8557858101830151858201604001528201611e69565b506000604082860101526040601f19601f8301168501019250505092915050565b600060208284031215611eb857600080fd5b5051919050565b60006020808385031215611ed257600080fd5b825167ffffffffffffffff80821115611eea57600080fd5b818501915085601f830112611efe57600080fd5b815181811115611f1057611f10611b2b565b8060051b9150611f21848301611b41565b8181529183018401918481019088841115611f3b57600080fd5b938501935b83851015611f7257845192506001600160a01b0383168314611f625760008081fd5b8282529385019390850190611f40565b9897505050505050505056fea26469706673582212204c9439aeb087499454d1699a33f6c8a8bc8653bc8293ca746127d56dbbd066a364736f6c63430008140033",
  "linkReferences": {},
  "deployedLinkReferences": {}
}